{
  "address": "0x3C79fb16Cfc8fbBA101c44BbE0da22cb2DdD9715",
  "abi": [
    {
      "inputs": [
        {
          "internalType": "address",
          "name": "_endpoint",
          "type": "address"
        },
        {
          "internalType": "address",
          "name": "_delegate",
          "type": "address"
        },
        {
          "internalType": "bool",
          "name": "_addInitialValidTarget",
          "type": "bool"
        },
        {
          "internalType": "uint32",
          "name": "_initialValidTargetSrcEid",
          "type": "uint32"
        },
        {
          "internalType": "bytes32",
          "name": "_initialValidTargetOriginCaller",
          "type": "bytes32"
        },
        {
          "internalType": "address",
          "name": "_initialValidTargetGovernedContract",
          "type": "address"
        }
      ],
      "stateMutability": "nonpayable",
      "type": "constructor"
    },
    {
      "inputs": [],
      "name": "GovernanceCallFailed",
      "type": "error"
    },
    {
      "inputs": [
        {
          "internalType": "uint8",
          "name": "action",
          "type": "uint8"
        }
      ],
      "name": "InvalidAction",
      "type": "error"
    },
    {
      "inputs": [],
      "name": "InvalidCaller",
      "type": "error"
    },
    {
      "inputs": [],
      "name": "InvalidDelegate",
      "type": "error"
    },
    {
      "inputs": [],
      "name": "InvalidEndpointCall",
      "type": "error"
    },
    {
      "inputs": [],
      "name": "InvalidGenericMessageLength",
      "type": "error"
    },
    {
      "inputs": [
        {
          "internalType": "address",
          "name": "_governedContract",
          "type": "address"
        }
      ],
      "name": "InvalidGovernedContract",
      "type": "error"
    },
    {
      "inputs": [],
      "name": "InvalidMessageLength",
      "type": "error"
    },
    {
      "inputs": [
        {
          "internalType": "bytes",
          "name": "options",
          "type": "bytes"
        }
      ],
      "name": "InvalidOptions",
      "type": "error"
    },
    {
      "inputs": [],
      "name": "InvalidTarget",
      "type": "error"
    },
    {
      "inputs": [],
      "name": "LzTokenUnavailable",
      "type": "error"
    },
    {
      "inputs": [
        {
          "internalType": "uint32",
          "name": "eid",
          "type": "uint32"
        }
      ],
      "name": "NoPeer",
      "type": "error"
    },
    {
      "inputs": [
        {
          "internalType": "uint256",
          "name": "msgValue",
          "type": "uint256"
        }
      ],
      "name": "NotEnoughNative",
      "type": "error"
    },
    {
      "inputs": [
        {
          "internalType": "address",
          "name": "addr",
          "type": "address"
        }
      ],
      "name": "OnlyEndpoint",
      "type": "error"
    },
    {
      "inputs": [
        {
          "internalType": "uint32",
          "name": "eid",
          "type": "uint32"
        },
        {
          "internalType": "bytes32",
          "name": "sender",
          "type": "bytes32"
        }
      ],
      "name": "OnlyPeer",
      "type": "error"
    },
    {
      "inputs": [
        {
          "internalType": "address",
          "name": "owner",
          "type": "address"
        }
      ],
      "name": "OwnableInvalidOwner",
      "type": "error"
    },
    {
      "inputs": [
        {
          "internalType": "address",
          "name": "account",
          "type": "address"
        }
      ],
      "name": "OwnableUnauthorizedAccount",
      "type": "error"
    },
    {
      "inputs": [],
      "name": "ReentrancyGuardReentrantCall",
      "type": "error"
    },
    {
      "inputs": [
        {
          "internalType": "address",
          "name": "token",
          "type": "address"
        }
      ],
      "name": "SafeERC20FailedOperation",
      "type": "error"
    },
    {
      "inputs": [],
      "name": "UnauthorizedOriginCaller",
      "type": "error"
    },
    {
      "anonymous": false,
      "inputs": [
        {
          "components": [
            {
              "internalType": "uint32",
              "name": "eid",
              "type": "uint32"
            },
            {
              "internalType": "uint16",
              "name": "msgType",
              "type": "uint16"
            },
            {
              "internalType": "bytes",
              "name": "options",
              "type": "bytes"
            }
          ],
          "indexed": false,
          "internalType": "struct EnforcedOptionParam[]",
          "name": "_enforcedOptions",
          "type": "tuple[]"
        }
      ],
      "name": "EnforcedOptionSet",
      "type": "event"
    },
    {
      "anonymous": false,
      "inputs": [
        {
          "indexed": true,
          "internalType": "address",
          "name": "previousOwner",
          "type": "address"
        },
        {
          "indexed": true,
          "internalType": "address",
          "name": "newOwner",
          "type": "address"
        }
      ],
      "name": "OwnershipTransferred",
      "type": "event"
    },
    {
      "anonymous": false,
      "inputs": [
        {
          "indexed": false,
          "internalType": "uint32",
          "name": "eid",
          "type": "uint32"
        },
        {
          "indexed": false,
          "internalType": "bytes32",
          "name": "peer",
          "type": "bytes32"
        }
      ],
      "name": "PeerSet",
      "type": "event"
    },
    {
      "anonymous": false,
      "inputs": [
        {
          "indexed": true,
          "internalType": "address",
          "name": "_address",
          "type": "address"
        }
      ],
      "name": "ValidCallerAdded",
      "type": "event"
    },
    {
      "anonymous": false,
      "inputs": [
        {
          "indexed": true,
          "internalType": "address",
          "name": "_address",
          "type": "address"
        }
      ],
      "name": "ValidCallerRemoved",
      "type": "event"
    },
    {
      "anonymous": false,
      "inputs": [
        {
          "indexed": true,
          "internalType": "uint32",
          "name": "srcEid",
          "type": "uint32"
        },
        {
          "indexed": true,
          "internalType": "bytes32",
          "name": "originCaller",
          "type": "bytes32"
        },
        {
          "indexed": true,
          "internalType": "address",
          "name": "governedContract",
          "type": "address"
        }
      ],
      "name": "ValidTargetAdded",
      "type": "event"
    },
    {
      "anonymous": false,
      "inputs": [
        {
          "indexed": true,
          "internalType": "uint32",
          "name": "srcEid",
          "type": "uint32"
        },
        {
          "indexed": true,
          "internalType": "bytes32",
          "name": "originCaller",
          "type": "bytes32"
        },
        {
          "indexed": true,
          "internalType": "address",
          "name": "governedContract",
          "type": "address"
        }
      ],
      "name": "ValidTargetRemoved",
      "type": "event"
    },
    {
      "inputs": [],
      "name": "SEND",
      "outputs": [
        {
          "internalType": "uint16",
          "name": "",
          "type": "uint16"
        }
      ],
      "stateMutability": "view",
      "type": "function"
    },
    {
      "inputs": [
        {
          "internalType": "address",
          "name": "_address",
          "type": "address"
        }
      ],
      "name": "addValidCaller",
      "outputs": [],
      "stateMutability": "nonpayable",
      "type": "function"
    },
    {
      "inputs": [
        {
          "internalType": "uint32",
          "name": "_srcEid",
          "type": "uint32"
        },
        {
          "internalType": "bytes32",
          "name": "_originCaller",
          "type": "bytes32"
        },
        {
          "internalType": "address",
          "name": "_governedContract",
          "type": "address"
        }
      ],
      "name": "addValidTarget",
      "outputs": [],
      "stateMutability": "nonpayable",
      "type": "function"
    },
    {
      "inputs": [
        {
          "components": [
            {
              "internalType": "uint32",
              "name": "srcEid",
              "type": "uint32"
            },
            {
              "internalType": "bytes32",
              "name": "sender",
              "type": "bytes32"
            },
            {
              "internalType": "uint64",
              "name": "nonce",
              "type": "uint64"
            }
          ],
          "internalType": "struct Origin",
          "name": "origin",
          "type": "tuple"
        }
      ],
      "name": "allowInitializePath",
      "outputs": [
        {
          "internalType": "bool",
          "name": "",
          "type": "bool"
        }
      ],
      "stateMutability": "view",
      "type": "function"
    },
    {
      "inputs": [
        {
          "internalType": "uint32",
          "name": "_eid",
          "type": "uint32"
        },
        {
          "internalType": "uint16",
          "name": "_msgType",
          "type": "uint16"
        },
        {
          "internalType": "bytes",
          "name": "_extraOptions",
          "type": "bytes"
        }
      ],
      "name": "combineOptions",
      "outputs": [
        {
          "internalType": "bytes",
          "name": "",
          "type": "bytes"
        }
      ],
      "stateMutability": "view",
      "type": "function"
    },
    {
      "inputs": [],
      "name": "endpoint",
      "outputs": [
        {
          "internalType": "contract ILayerZeroEndpointV2",
          "name": "",
          "type": "address"
        }
      ],
      "stateMutability": "view",
      "type": "function"
    },
    {
      "inputs": [
        {
          "internalType": "uint32",
          "name": "eid",
          "type": "uint32"
        },
        {
          "internalType": "uint16",
          "name": "msgType",
          "type": "uint16"
        }
      ],
      "name": "enforcedOptions",
      "outputs": [
        {
          "internalType": "bytes",
          "name": "enforcedOption",
          "type": "bytes"
        }
      ],
      "stateMutability": "view",
      "type": "function"
    },
    {
      "inputs": [
        {
          "components": [
            {
              "internalType": "uint32",
              "name": "srcEid",
              "type": "uint32"
            },
            {
              "internalType": "bytes32",
              "name": "sender",
              "type": "bytes32"
            },
            {
              "internalType": "uint64",
              "name": "nonce",
              "type": "uint64"
            }
          ],
          "internalType": "struct Origin",
          "name": "",
          "type": "tuple"
        },
        {
          "internalType": "bytes",
          "name": "",
          "type": "bytes"
        },
        {
          "internalType": "address",
          "name": "_sender",
          "type": "address"
        }
      ],
      "name": "isComposeMsgSender",
      "outputs": [
        {
          "internalType": "bool",
          "name": "",
          "type": "bool"
        }
      ],
      "stateMutability": "view",
      "type": "function"
    },
    {
      "inputs": [
        {
          "components": [
            {
              "internalType": "uint32",
              "name": "srcEid",
              "type": "uint32"
            },
            {
              "internalType": "bytes32",
              "name": "sender",
              "type": "bytes32"
            },
            {
              "internalType": "uint64",
              "name": "nonce",
              "type": "uint64"
            }
          ],
          "internalType": "struct Origin",
          "name": "_origin",
          "type": "tuple"
        },
        {
          "internalType": "bytes32",
          "name": "_guid",
          "type": "bytes32"
        },
        {
          "internalType": "bytes",
          "name": "_message",
          "type": "bytes"
        },
        {
          "internalType": "address",
          "name": "_executor",
          "type": "address"
        },
        {
          "internalType": "bytes",
          "name": "_extraData",
          "type": "bytes"
        }
      ],
      "name": "lzReceive",
      "outputs": [],
      "stateMutability": "payable",
      "type": "function"
    },
    {
      "inputs": [],
      "name": "messageOrigin",
      "outputs": [
        {
          "internalType": "uint32",
          "name": "eid",
          "type": "uint32"
        },
        {
          "internalType": "bytes32",
          "name": "caller",
          "type": "bytes32"
        }
      ],
      "stateMutability": "view",
      "type": "function"
    },
    {
      "inputs": [
        {
          "internalType": "uint32",
          "name": "",
          "type": "uint32"
        },
        {
          "internalType": "bytes32",
          "name": "",
          "type": "bytes32"
        }
      ],
      "name": "nextNonce",
      "outputs": [
        {
          "internalType": "uint64",
          "name": "nonce",
          "type": "uint64"
        }
      ],
      "stateMutability": "view",
      "type": "function"
    },
    {
      "inputs": [],
      "name": "oAppVersion",
      "outputs": [
        {
          "internalType": "uint64",
          "name": "senderVersion",
          "type": "uint64"
        },
        {
          "internalType": "uint64",
          "name": "receiverVersion",
          "type": "uint64"
        }
      ],
      "stateMutability": "pure",
      "type": "function"
    },
    {
      "inputs": [],
      "name": "owner",
      "outputs": [
        {
          "internalType": "address",
          "name": "",
          "type": "address"
        }
      ],
      "stateMutability": "view",
      "type": "function"
    },
    {
      "inputs": [
        {
          "internalType": "uint32",
          "name": "eid",
          "type": "uint32"
        }
      ],
      "name": "peers",
      "outputs": [
        {
          "internalType": "bytes32",
          "name": "peer",
          "type": "bytes32"
        }
      ],
      "stateMutability": "view",
      "type": "function"
    },
    {
      "inputs": [
        {
          "components": [
            {
              "internalType": "uint8",
              "name": "action",
              "type": "uint8"
            },
            {
              "internalType": "bytes32",
              "name": "originCaller",
              "type": "bytes32"
            },
            {
              "internalType": "address",
              "name": "governedContract",
              "type": "address"
            },
            {
              "internalType": "bytes",
              "name": "callData",
              "type": "bytes"
            }
          ],
          "internalType": "struct GovernanceMessageEVMCodec.GovernanceMessage",
          "name": "_message",
          "type": "tuple"
        },
        {
          "internalType": "uint32",
          "name": "_dstEid",
          "type": "uint32"
        },
        {
          "internalType": "bytes",
          "name": "_extraOptions",
          "type": "bytes"
        },
        {
          "internalType": "bool",
          "name": "_payInLzToken",
          "type": "bool"
        }
      ],
      "name": "quoteEVMAction",
      "outputs": [
        {
          "components": [
            {
              "internalType": "uint256",
              "name": "nativeFee",
              "type": "uint256"
            },
            {
              "internalType": "uint256",
              "name": "lzTokenFee",
              "type": "uint256"
            }
          ],
          "internalType": "struct MessagingFee",
          "name": "fee",
          "type": "tuple"
        }
      ],
      "stateMutability": "view",
      "type": "function"
    },
    {
      "inputs": [
        {
          "internalType": "bytes",
          "name": "_message",
          "type": "bytes"
        },
        {
          "internalType": "uint32",
          "name": "_dstEid",
          "type": "uint32"
        },
        {
          "internalType": "bytes",
          "name": "_extraOptions",
          "type": "bytes"
        },
        {
          "internalType": "bool",
          "name": "_payInLzToken",
          "type": "bool"
        }
      ],
      "name": "quoteRawBytesAction",
      "outputs": [
        {
          "components": [
            {
              "internalType": "uint256",
              "name": "nativeFee",
              "type": "uint256"
            },
            {
              "internalType": "uint256",
              "name": "lzTokenFee",
              "type": "uint256"
            }
          ],
          "internalType": "struct MessagingFee",
          "name": "fee",
          "type": "tuple"
        }
      ],
      "stateMutability": "view",
      "type": "function"
    },
    {
      "inputs": [
        {
          "internalType": "address",
          "name": "_address",
          "type": "address"
        }
      ],
      "name": "removeValidCaller",
      "outputs": [],
      "stateMutability": "nonpayable",
      "type": "function"
    },
    {
      "inputs": [
        {
          "internalType": "uint32",
          "name": "_srcEid",
          "type": "uint32"
        },
        {
          "internalType": "bytes32",
          "name": "_originCaller",
          "type": "bytes32"
        },
        {
          "internalType": "address",
          "name": "_governedContract",
          "type": "address"
        }
      ],
      "name": "removeValidTarget",
      "outputs": [],
      "stateMutability": "nonpayable",
      "type": "function"
    },
    {
      "inputs": [],
      "name": "renounceOwnership",
      "outputs": [],
      "stateMutability": "nonpayable",
      "type": "function"
    },
    {
      "inputs": [
        {
          "components": [
            {
              "internalType": "uint8",
              "name": "action",
              "type": "uint8"
            },
            {
              "internalType": "bytes32",
              "name": "originCaller",
              "type": "bytes32"
            },
            {
              "internalType": "address",
              "name": "governedContract",
              "type": "address"
            },
            {
              "internalType": "bytes",
              "name": "callData",
              "type": "bytes"
            }
          ],
          "internalType": "struct GovernanceMessageEVMCodec.GovernanceMessage",
          "name": "_message",
          "type": "tuple"
        },
        {
          "internalType": "uint32",
          "name": "_dstEid",
          "type": "uint32"
        },
        {
          "internalType": "bytes",
          "name": "_extraOptions",
          "type": "bytes"
        },
        {
          "components": [
            {
              "internalType": "uint256",
              "name": "nativeFee",
              "type": "uint256"
            },
            {
              "internalType": "uint256",
              "name": "lzTokenFee",
              "type": "uint256"
            }
          ],
          "internalType": "struct MessagingFee",
          "name": "_fee",
          "type": "tuple"
        },
        {
          "internalType": "address",
          "name": "_refundAddress",
          "type": "address"
        }
      ],
      "name": "sendEVMAction",
      "outputs": [
        {
          "components": [
            {
              "internalType": "bytes32",
              "name": "guid",
              "type": "bytes32"
            },
            {
              "internalType": "uint64",
              "name": "nonce",
              "type": "uint64"
            },
            {
              "components": [
                {
                  "internalType": "uint256",
                  "name": "nativeFee",
                  "type": "uint256"
                },
                {
                  "internalType": "uint256",
                  "name": "lzTokenFee",
                  "type": "uint256"
                }
              ],
              "internalType": "struct MessagingFee",
              "name": "fee",
              "type": "tuple"
            }
          ],
          "internalType": "struct MessagingReceipt",
          "name": "receipt",
          "type": "tuple"
        }
      ],
      "stateMutability": "payable",
      "type": "function"
    },
    {
      "inputs": [
        {
          "internalType": "bytes",
          "name": "_message",
          "type": "bytes"
        },
        {
          "internalType": "uint32",
          "name": "_dstEid",
          "type": "uint32"
        },
        {
          "internalType": "bytes",
          "name": "_extraOptions",
          "type": "bytes"
        },
        {
          "components": [
            {
              "internalType": "uint256",
              "name": "nativeFee",
              "type": "uint256"
            },
            {
              "internalType": "uint256",
              "name": "lzTokenFee",
              "type": "uint256"
            }
          ],
          "internalType": "struct MessagingFee",
          "name": "_fee",
          "type": "tuple"
        },
        {
          "internalType": "address",
          "name": "_refundAddress",
          "type": "address"
        }
      ],
      "name": "sendRawBytesAction",
      "outputs": [
        {
          "components": [
            {
              "internalType": "bytes32",
              "name": "guid",
              "type": "bytes32"
            },
            {
              "internalType": "uint64",
              "name": "nonce",
              "type": "uint64"
            },
            {
              "components": [
                {
                  "internalType": "uint256",
                  "name": "nativeFee",
                  "type": "uint256"
                },
                {
                  "internalType": "uint256",
                  "name": "lzTokenFee",
                  "type": "uint256"
                }
              ],
              "internalType": "struct MessagingFee",
              "name": "fee",
              "type": "tuple"
            }
          ],
          "internalType": "struct MessagingReceipt",
          "name": "receipt",
          "type": "tuple"
        }
      ],
      "stateMutability": "payable",
      "type": "function"
    },
    {
      "inputs": [
        {
          "internalType": "address",
          "name": "_delegate",
          "type": "address"
        }
      ],
      "name": "setDelegate",
      "outputs": [],
      "stateMutability": "nonpayable",
      "type": "function"
    },
    {
      "inputs": [
        {
          "components": [
            {
              "internalType": "uint32",
              "name": "eid",
              "type": "uint32"
            },
            {
              "internalType": "uint16",
              "name": "msgType",
              "type": "uint16"
            },
            {
              "internalType": "bytes",
              "name": "options",
              "type": "bytes"
            }
          ],
          "internalType": "struct EnforcedOptionParam[]",
          "name": "_enforcedOptions",
          "type": "tuple[]"
        }
      ],
      "name": "setEnforcedOptions",
      "outputs": [],
      "stateMutability": "nonpayable",
      "type": "function"
    },
    {
      "inputs": [
        {
          "internalType": "uint32",
          "name": "_eid",
          "type": "uint32"
        },
        {
          "internalType": "bytes32",
          "name": "_peer",
          "type": "bytes32"
        }
      ],
      "name": "setPeer",
      "outputs": [],
      "stateMutability": "nonpayable",
      "type": "function"
    },
    {
      "inputs": [
        {
          "internalType": "address",
          "name": "newOwner",
          "type": "address"
        }
      ],
      "name": "transferOwnership",
      "outputs": [],
      "stateMutability": "nonpayable",
      "type": "function"
    },
    {
      "inputs": [
        {
          "internalType": "address",
          "name": "",
          "type": "address"
        }
      ],
      "name": "validCallers",
      "outputs": [
        {
          "internalType": "bool",
          "name": "",
          "type": "bool"
        }
      ],
      "stateMutability": "view",
      "type": "function"
    },
    {
      "inputs": [
        {
          "internalType": "uint32",
          "name": "srcEid",
          "type": "uint32"
        },
        {
          "internalType": "bytes32",
          "name": "originCaller",
          "type": "bytes32"
        },
        {
          "internalType": "address",
          "name": "governedContract",
          "type": "address"
        }
      ],
      "name": "validTargets",
      "outputs": [
        {
          "internalType": "bool",
          "name": "allowed",
          "type": "bool"
        }
      ],
      "stateMutability": "view",
      "type": "function"
    }
  ],
  "transactionHash": "0xdf612958ce3dd9ca1f091a0d9e77605159be44428cda859789b0bf016a57a2a5",
  "args": [
    "0x6EDCE65403992e310A62460808c4b910D972f10f",
    "0x0804a6e2798F42C7F3c97215DdF958d5500f8ec8",
    false,
    "0",
    "0x0000000000000000000000000000000000000000000000000000000000000000",
    "0x0000000000000000000000000000000000000000"
  ],
  "numDeployments": 1,
  "solcInputHash": "dc78cd0d1036936de9f478216bd11afb",
  "bytecode": "0x60a06040523480156200001157600080fd5b5060405162002b2b38038062002b2b8339810160408190526200003491620001f7565b85858181806001600160a01b0381166200006857604051631e4fbdf760e01b81526000600482015260240160405180910390fd5b62000073816200018a565b506001600160a01b038083166080528116620000a257604051632d618d8160e21b815260040160405180910390fd5b60805160405163ca5eb5e160e01b81526001600160a01b0383811660048301529091169063ca5eb5e190602401600060405180830381600087803b158015620000ea57600080fd5b505af1158015620000ff573d6000803e3d6000fd5b505060016003555050871593506200017e925050505763ffffffff8316600081815260076020908152604080832086845282528083206001600160a01b0386168085529252808320805460ff19166001179055519092859290917fba1ebdae704ff482216c4243867e09d7affdfcb27144d4041f8e8d17784c17d89190a45b50505050505062000281565b600080546001600160a01b038381166001600160a01b0319831681178455604051919092169283917f8be0079c531659141344cd1fd0a4f28419497f9722a3daafe3b4186f6b6457e09190a35050565b80516001600160a01b0381168114620001f257600080fd5b919050565b60008060008060008060c087890312156200021157600080fd5b6200021c87620001da565b95506200022c60208801620001da565b9450604087015180151581146200024257600080fd5b606088015190945063ffffffff811681146200025d57600080fd5b608088015190935091506200027560a08801620001da565b90509295509295509295565b608051612856620002d5600039600081816102e10152818161063601528181610af501528181610d7a01528181610dfe0152818161116d0152818161166a01528181611850015261190701526128566000f3fe60806040526004361061019c5760003560e01c80638cf3239c116100ec578063ca5eb5e11161008a578063f2264f0e11610064578063f2264f0e14610542578063f24be0c814610562578063f2fde38b14610582578063ff7bd03d146105a257600080fd5b8063ca5eb5e1146104c1578063db428235146104e1578063e9598b701461052257600080fd5b8063b98bd070116100c6578063b98bd07014610433578063bb0b6a5314610453578063bc70b3541461048e578063bf97fe81146104ae57600080fd5b80638cf3239c146103c85780638d43f142146103e85780638da5cb5b1461041557600080fd5b80633b1623fe11610159578063715018a611610133578063715018a61461031b5780637d25a05e1461033057806382413eac1461036857806388ff14e81461039857600080fd5b80633b1623fe146102655780635535d461146102a25780635e280f11146102cf57600080fd5b806310de4b45146101a157806313137d65146101c357806317442b70146101d65780631d3419ad146101fd5780631f5e13341461021d5780633400288b14610245575b600080fd5b3480156101ad57600080fd5b506101c16101bc366004611a6a565b6105c2565b005b6101c16101d1366004611b0a565b610634565b3480156101e257600080fd5b50604080516001815260026020820152015b60405180910390f35b34801561020957600080fd5b506101c1610218366004611ba9565b6106f4565b34801561022957600080fd5b50610232600181565b60405161ffff90911681526020016101f4565b34801561025157600080fd5b506101c1610260366004611bc6565b610748565b34801561027157600080fd5b506004546005546102869163ffffffff169082565b6040805163ffffffff90931683526020830191909152016101f4565b3480156102ae57600080fd5b506102c26102bd366004611c02565b61075e565b6040516101f49190611c85565b3480156102db57600080fd5b506103037f000000000000000000000000000000000000000000000000000000000000000081565b6040516001600160a01b0390911681526020016101f4565b34801561032757600080fd5b506101c1610803565b34801561033c57600080fd5b5061035061034b366004611bc6565b610817565b6040516001600160401b0390911681526020016101f4565b34801561037457600080fd5b50610388610383366004611c98565b610820565b60405190151581526020016101f4565b3480156103a457600080fd5b506103886103b3366004611ba9565b60066020526000908152604090205460ff1681565b6103db6103d6366004611d22565b610835565b6040516101f49190611dc1565b3480156103f457600080fd5b50610408610403366004611e13565b610886565b6040516101f49190611e9e565b34801561042157600080fd5b506000546001600160a01b0316610303565b34801561043f57600080fd5b506101c161044e366004611eb5565b6108c5565b34801561045f57600080fd5b5061048061046e366004611f29565b60016020526000908152604090205481565b6040519081526020016101f4565b34801561049a57600080fd5b506102c26104a9366004611f44565b6108df565b6103db6104bc366004611fa4565b610a87565b3480156104cd57600080fd5b506101c16104dc366004611ba9565b610ace565b3480156104ed57600080fd5b506103886104fc366004611a6a565b600760209081526000938452604080852082529284528284209052825290205460ff1681565b34801561052e57600080fd5b506101c161053d366004611ba9565b610b54565b34801561054e57600080fd5b5061040861055d36600461204d565b610ba5565b34801561056e57600080fd5b506101c161057d366004611a6a565b610c0e565b34801561058e57600080fd5b506101c161059d366004611ba9565b610c83565b3480156105ae57600080fd5b506103886105bd3660046120df565b610cc1565b6105ca610cf7565b63ffffffff8316600081815260076020908152604080832086845282528083206001600160a01b0386168085529252808320805460ff19169055519092859290917fe5b0ec7dcaf7d03e77d301248ef2fcd1289fc6db5cf46f55556cc9afefc2cb9c9190a4505050565b7f00000000000000000000000000000000000000000000000000000000000000006001600160a01b03163314610684576040516391ac5e4f60e01b81523360048201526024015b60405180910390fd5b6020870180359061069e90610699908a611f29565b610d24565b146106dc576106b06020880188611f29565b60405163309afaf360e21b815263ffffffff90911660048201526020880135602482015260440161067b565b6106eb87878787878787610d60565b50505050505050565b6106fc610cf7565b6001600160a01b038116600081815260066020526040808220805460ff19166001179055517f2db1268ac8751ea8f209ac22d0a6d1d47fe6e34603bafe4b499a781ce6e484e39190a250565b610750610cf7565b61075a828261101d565b5050565b600260209081526000928352604080842090915290825290208054610782906120fb565b80601f01602080910402602001604051908101604052809291908181526020018280546107ae906120fb565b80156107fb5780601f106107d0576101008083540402835291602001916107fb565b820191906000526020600020905b8154815290600101906020018083116107de57829003601f168201915b505050505081565b61080b610cf7565b6108156000611072565b565b60005b92915050565b6001600160a01b03811630145b949350505050565b61083d6119f5565b3360009081526006602052604090205460ff1661086d576040516348f5c3ed60e01b815260040160405180910390fd5b61087b8787878787876110c2565b979650505050505050565b60408051808201909152600080825260208201526000806108a988888888611129565b915091506108b987838387611157565b98975050505050505050565b6108cd610cf7565b61075a6108da828461222e565b611238565b63ffffffff8416600090815260026020908152604080832061ffff87168452909152812080546060929190610913906120fb565b80601f016020809104026020016040519081016040528092919081815260200182805461093f906120fb565b801561098c5780601f106109615761010080835404028352916020019161098c565b820191906000526020600020905b81548152906001019060200180831161096f57829003601f168201915b5050505050905080516000036109dc5783838080601f01602080910402602001604051908101604052809392919081815260200183838082843760009201919091525092945061082d9350505050565b60008390036109ec57905061082d565b60028310610a6a57610a3384848080601f01602080910402602001604051908101604052809392919081815260200183838082843760009201919091525061134a92505050565b80610a418460028188612303565b604051602001610a539392919061232d565b60405160208183030381529060405291505061082d565b8383604051639a6d49cd60e01b815260040161067b929190612355565b610a8f6119f5565b3360009081526006602052604090205460ff16610abf576040516348f5c3ed60e01b815260040160405180910390fd5b6108b988888888888888611376565b610ad6610cf7565b60405163ca5eb5e160e01b81526001600160a01b0382811660048301527f0000000000000000000000000000000000000000000000000000000000000000169063ca5eb5e190602401600060405180830381600087803b158015610b3957600080fd5b505af1158015610b4d573d6000803e3d6000fd5b5050505050565b610b5c610cf7565b6001600160a01b038116600081815260066020526040808220805460ff19169055517fd3dd4da22729423d3243f25c6646981e69acb10645ca3dc8ab95a443133304b79190a250565b60408051808201909152600080825260208201526000610bc886600187876108df565b90506108b98689898080601f0160208091040260200160405190810160405280939291908181526020018383808284376000920191909152508692508891506111579050565b610c16610cf7565b63ffffffff8316600081815260076020908152604080832086845282528083206001600160a01b0386168085529252808320805460ff19166001179055519092859290917fba1ebdae704ff482216c4243867e09d7affdfcb27144d4041f8e8d17784c17d89190a4505050565b610c8b610cf7565b6001600160a01b038116610cb557604051631e4fbdf760e01b81526000600482015260240161067b565b610cbe81611072565b50565b6000602082018035906001908390610cd99086611f29565b63ffffffff1681526020810191909152604001600020541492915050565b6000546001600160a01b031633146108155760405163118cdaa760e01b815233600482015260240161067b565b63ffffffff81166000908152600160205260408120548061081a5760405163f6ff4fb760e01b815263ffffffff8416600482015260240161067b565b610d68611413565b6000610d74868661143d565b905060007f00000000000000000000000000000000000000000000000000000000000000006001600160a01b031663e4fe1d946040518163ffffffff1660e01b8152600401602060405180830381865afa158015610dd6573d6000803e3d6000fd5b505050506040513d601f19601f82011682018060405250810190610dfa9190612384565b90507f00000000000000000000000000000000000000000000000000000000000000006001600160a01b031682604001516001600160a01b03161480610e6857506001600160a01b03811615801590610e685750806001600160a01b031682604001516001600160a01b0316145b15610e9757604080830151905163d0c5e62f60e01b81526001600160a01b03909116600482015260240161067b565b60076000610ea860208c018c611f29565b63ffffffff168152602080820192909252604090810160009081208584015182528352818120858301516001600160a01b0316825290925290205460ff16610f035760405163416aebb560e11b815260040160405180910390fd5b6040805180820190915280610f1b60208c018c611f29565b63ffffffff90811682526020858101519281019290925282516004805463ffffffff19169190921617905501516005556040808301516060840151915160009283926001600160a01b0316913491610f72916123a1565b60006040518083038185875af1925050503d8060008114610faf576040519150601f19603f3d011682016040523d82523d6000602084013e610fb4565b606091505b509150915081610fe8578051600003610fe057604051637138c4e760e11b815260040160405180910390fd5b805181602001fd5b505060408051808201909152600080825260209091018190526004805463ffffffff19169055600555505060016003556106eb565b63ffffffff8216600081815260016020908152604091829020849055815192835282018390527f238399d427b947898edb290f5ff0f9109849b1c3ba196a42e35f00c50a54b98b910160405180910390a15050565b600080546001600160a01b038381166001600160a01b0319831681178455604051919092169283917f8be0079c531659141344cd1fd0a4f28419497f9722a3daafe3b4186f6b6457e09190a35050565b6110ca6119f5565b338760200135146110ed5760405162961f7560e51b815260040160405180910390fd5b6000806110fc89898989611129565b909250905061111c888383611116368a90038a018a6123bd565b88611637565b9998505050505050505050565b60608061113d611138876123ef565b611737565b915061114c85600186866108df565b905094509492505050565b60408051808201909152600080825260208201527f00000000000000000000000000000000000000000000000000000000000000006001600160a01b031663ddc28c586040518060a001604052808863ffffffff1681526020016111ba89610d24565b8152602001878152602001868152602001851515815250306040518363ffffffff1660e01b81526004016111ef92919061248b565b6040805180830381865afa15801561120b573d6000803e3d6000fd5b505050506040513d601f19601f8201168201806040525081019061122f9190612534565b95945050505050565b60005b815181101561130f5761126a82828151811061125957611259612550565b60200260200101516040015161134a565b81818151811061127c5761127c612550565b6020026020010151604001516002600084848151811061129e5761129e612550565b60200260200101516000015163ffffffff1663ffffffff16815260200190815260200160002060008484815181106112d8576112d8612550565b60200260200101516020015161ffff1661ffff168152602001908152602001600020908161130691906125b7565b5060010161123b565b507fbe4864a8e820971c0247f5992e2da559595f7bf076a21cb5928d443d2a13b6748160405161133f9190612676565b60405180910390a150565b600281015161ffff811660031461075a5781604051639a6d49cd60e01b815260040161067b9190611c85565b61137e6119f5565b61138888886117a0565b3361139389896117da565b146113b05760405162961f7560e51b815260040160405180910390fd5b60006113bf87600188886108df565b905061111c878a8a8080601f01602080910402602001604051908101604052809392919081815260200183838082843760009201919091525086925061140d915050368990038901896123bd565b87611637565b60026003540361143657604051633ee5aeb560e01b815260040160405180910390fd5b6002600355565b604080516080810182526000808252602082018190529181019190915260608082015261146c60006001612701565b611477906020612701565b611482906014612701565b60ff168210156114a557604051638d0242c960e01b815260040160405180910390fd5b600183836000816114b8576114b8612550565b9050013560f81c60f81b60f81c60ff16146114ff5782826000816114de576114de612550565b6040516317949c6760e11b815292013560f81c60048301525060240161067b565b828260008161151057611510612550565b919091013560f81c825250828261152960006001612701565b60ff169061153960006001612701565b611544906020612701565b60ff169261155493929190612303565b61155d91612728565b6020820152828261157060006001612701565b61157b906020612701565b60ff169061158b60006001612701565b611596906020612701565b6115a1906014612701565b60ff16926115b193929190612303565b6115ba91612746565b60601c604082015282826115d060006001612701565b6115db906020612701565b6115e6906014612701565b60ff169080926115f893929190612303565b8080601f016020809104026020016040519081016040528093929190818152602001838380828437600092019190915250505050606082015292915050565b61163f6119f5565b600061164e8460000151611824565b60208501519091501561166857611668846020015161184c565b7f00000000000000000000000000000000000000000000000000000000000000006001600160a01b0316632637a450826040518060a001604052808b63ffffffff1681526020016116b88c610d24565b81526020018a815260200189815260200160008960200151111515815250866040518463ffffffff1660e01b81526004016116f492919061248b565b60806040518083038185885af1158015611712573d6000803e3d6000fd5b50505050506040513d601f19601f8201168201806040525081019061087b919061277b565b805160609060ff166001146117675781516040516317949c6760e11b815260ff909116600482015260240161067b565b81516020808401516040808601516060870151915161178a9594919291016127d1565b6040516020818303038152906040529050919050565b6117ac60006001612701565b6117b7906020612701565b60ff1681101561075a57604051637f0569db60e11b815260040160405180910390fd5b600082826117e9836001612701565b60ff16906117f960006001612701565b611804906020612701565b60ff169261181493929190612303565b61181d91612728565b9392505050565b6000813414611848576040516304fb820960e51b815234600482015260240161067b565b5090565b60007f00000000000000000000000000000000000000000000000000000000000000006001600160a01b031663e4fe1d946040518163ffffffff1660e01b8152600401602060405180830381865afa1580156118ac573d6000803e3d6000fd5b505050506040513d601f19601f820116820180604052508101906118d09190612384565b90506001600160a01b0381166118f9576040516329b99a9560e11b815260040160405180910390fd5b6040805133602482018190527f00000000000000000000000000000000000000000000000000000000000000006001600160a01b03818116604485015260648085018890528551808603909101815260849094019094526020830180516001600160e01b03166323b872dd60e01b17905261075a93851692869061197e908590611984565b50505050565b600080602060008451602086016000885af1806119a7576040513d6000823e3d81fd5b50506000513d915081156119bf5780600114156119cc565b6001600160a01b0384163b155b1561197e57604051635274afe760e01b81526001600160a01b038516600482015260240161067b565b60405180606001604052806000801916815260200160006001600160401b03168152602001611a37604051806040016040528060008152602001600081525090565b905290565b803563ffffffff81168114611a5057600080fd5b919050565b6001600160a01b0381168114610cbe57600080fd5b600080600060608486031215611a7f57600080fd5b611a8884611a3c565b9250602084013591506040840135611a9f81611a55565b809150509250925092565b600060608284031215611abc57600080fd5b50919050565b60008083601f840112611ad457600080fd5b5081356001600160401b03811115611aeb57600080fd5b602083019150836020828501011115611b0357600080fd5b9250929050565b600080600080600080600060e0888a031215611b2557600080fd5b611b2f8989611aaa565b96506060880135955060808801356001600160401b0380821115611b5257600080fd5b611b5e8b838c01611ac2565b909750955060a08a01359150611b7382611a55565b90935060c08901359080821115611b8957600080fd5b50611b968a828b01611ac2565b989b979a50959850939692959293505050565b600060208284031215611bbb57600080fd5b813561181d81611a55565b60008060408385031215611bd957600080fd5b611be283611a3c565b946020939093013593505050565b803561ffff81168114611a5057600080fd5b60008060408385031215611c1557600080fd5b611c1e83611a3c565b9150611c2c60208401611bf0565b90509250929050565b60005b83811015611c50578181015183820152602001611c38565b50506000910152565b60008151808452611c71816020860160208601611c35565b601f01601f19169290920160200192915050565b60208152600061181d6020830184611c59565b60008060008060a08587031215611cae57600080fd5b611cb88686611aaa565b935060608501356001600160401b03811115611cd357600080fd5b611cdf87828801611ac2565b9094509250506080850135611cf381611a55565b939692955090935050565b600060808284031215611abc57600080fd5b600060408284031215611abc57600080fd5b60008060008060008060c08789031215611d3b57600080fd5b86356001600160401b0380821115611d5257600080fd5b611d5e8a838b01611cfe565b9750611d6c60208a01611a3c565b96506040890135915080821115611d8257600080fd5b50611d8f89828a01611ac2565b9095509350611da390508860608901611d10565b915060a0870135611db381611a55565b809150509295509295509295565b6000608082019050825182526001600160401b0360208401511660208301526040830151611dfc604084018280518252602090810151910152565b5092915050565b80358015158114611a5057600080fd5b600080600080600060808688031215611e2b57600080fd5b85356001600160401b0380821115611e4257600080fd5b611e4e89838a01611cfe565b9650611e5c60208901611a3c565b95506040880135915080821115611e7257600080fd5b50611e7f88828901611ac2565b9094509250611e92905060608701611e03565b90509295509295909350565b81518152602080830151908201526040810161081a565b60008060208385031215611ec857600080fd5b82356001600160401b0380821115611edf57600080fd5b818501915085601f830112611ef357600080fd5b813581811115611f0257600080fd5b8660208260051b8501011115611f1757600080fd5b60209290920196919550909350505050565b600060208284031215611f3b57600080fd5b61181d82611a3c565b60008060008060608587031215611f5a57600080fd5b611f6385611a3c565b9350611f7160208601611bf0565b925060408501356001600160401b03811115611f8c57600080fd5b611f9887828801611ac2565b95989497509550505050565b600080600080600080600060c0888a031215611fbf57600080fd5b87356001600160401b0380821115611fd657600080fd5b611fe28b838c01611ac2565b9099509750879150611ff660208b01611a3c565b965060408a013591508082111561200c57600080fd5b506120198a828b01611ac2565b909550935061202d90508960608a01611d10565b915060a088013561203d81611a55565b8091505092959891949750929550565b6000806000806000806080878903121561206657600080fd5b86356001600160401b038082111561207d57600080fd5b6120898a838b01611ac2565b909850965086915061209d60208a01611a3c565b955060408901359150808211156120b357600080fd5b506120c089828a01611ac2565b90945092506120d3905060608801611e03565b90509295509295509295565b6000606082840312156120f157600080fd5b61181d8383611aaa565b600181811c9082168061210f57607f821691505b602082108103611abc57634e487b7160e01b600052602260045260246000fd5b634e487b7160e01b600052604160045260246000fd5b604051606081016001600160401b03811182821017156121675761216761212f565b60405290565b604080519081016001600160401b03811182821017156121675761216761212f565b604051601f8201601f191681016001600160401b03811182821017156121b7576121b761212f565b604052919050565b600082601f8301126121d057600080fd5b81356001600160401b038111156121e9576121e961212f565b6121fc601f8201601f191660200161218f565b81815284602083860101111561221157600080fd5b816020850160208301376000918101602001919091529392505050565b60006001600160401b03808411156122485761224861212f565b8360051b602061225981830161218f565b86815291850191818101903684111561227157600080fd5b865b848110156122f75780358681111561228b5760008081fd5b8801606036829003121561229f5760008081fd5b6122a7612145565b6122b082611a3c565b81526122bd868301611bf0565b86820152604080830135898111156122d55760008081fd5b6122e1368286016121bf565b9183019190915250845250918301918301612273565b50979650505050505050565b6000808585111561231357600080fd5b8386111561232057600080fd5b5050820193919092039150565b6000845161233f818460208901611c35565b8201838582376000930192835250909392505050565b60208152816020820152818360408301376000818301604090810191909152601f909201601f19160101919050565b60006020828403121561239657600080fd5b815161181d81611a55565b600082516123b3818460208701611c35565b9190910192915050565b6000604082840312156123cf57600080fd5b6123d761216d565b82358152602083013560208201528091505092915050565b60006080823603121561240157600080fd5b604051608081016001600160401b0382821081831117156124245761242461212f565b816040528435915060ff8216821461243b57600080fd5b818352602085013560208401526040850135915061245882611a55565b816040840152606085013591508082111561247257600080fd5b5061247f368286016121bf565b60608301525092915050565b6040815263ffffffff8351166040820152602083015160608201526000604084015160a060808401526124c160e0840182611c59565b90506060850151603f198483030160a08501526124de8282611c59565b60809690960151151560c08501525050506001600160a01b039190911660209091015290565b60006040828403121561251657600080fd5b61251e61216d565b9050815181526020820151602082015292915050565b60006040828403121561254657600080fd5b61181d8383612504565b634e487b7160e01b600052603260045260246000fd5b601f8211156125b2576000816000526020600020601f850160051c8101602086101561258f5750805b601f850160051c820191505b818110156125ae5782815560010161259b565b5050505b505050565b81516001600160401b038111156125d0576125d061212f565b6125e4816125de84546120fb565b84612566565b602080601f83116001811461261957600084156126015750858301515b600019600386901b1c1916600185901b1785556125ae565b600085815260208120601f198616915b8281101561264857888601518255948401946001909101908401612629565b50858210156126665787850151600019600388901b60f8161c191681555b5050505050600190811b01905550565b600060208083018184528085518083526040925060408601915060408160051b87010184880160005b838110156126f357888303603f190185528151805163ffffffff1684528781015161ffff168885015286015160608785018190526126df81860183611c59565b96890196945050509086019060010161269f565b509098975050505050505050565b60ff818116838216019081111561081a57634e487b7160e01b600052601160045260246000fd5b8035602083101561081a57600019602084900360031b1b1692915050565b6bffffffffffffffffffffffff1981358181169160148510156127735780818660140360031b1b83161692505b505092915050565b60006080828403121561278d57600080fd5b612795612145565b8251815260208301516001600160401b03811681146127b357600080fd5b60208201526127c58460408501612504565b60408201529392505050565b60ff60f81b8560f81b1681528360018201526bffffffffffffffffffffffff198360601b16602182015260008251612810816035850160208701611c35565b919091016035019594505050505056fea26469706673582212205ee3ad31d8292b66c3cb4774204fb05a05b406d18adcedc7fcc443a5c967a40d64736f6c63430008160033",
  "devdoc": {
    "errors": {
      "OwnableInvalidOwner(address)": [
        {
          "details": "The owner is not a valid owner account. (eg. `address(0)`)"
        }
      ],
      "OwnableUnauthorizedAccount(address)": [
        {
          "details": "The caller account is not authorized to perform an operation."
        }
      ],
      "ReentrancyGuardReentrantCall()": [
        {
          "details": "Unauthorized reentrant call."
        }
      ],
      "SafeERC20FailedOperation(address)": [
        {
          "details": "An operation with an ERC-20 token failed."
        }
      ]
    },
    "kind": "dev",
    "methods": {
      "addValidCaller(address)": {
        "params": {
          "_address": "The address to add to the valid caller list."
        }
      },
      "addValidTarget(uint32,bytes32,address)": {
        "params": {
          "_governedContract": "The governed contract address.",
          "_originCaller": "The origin caller address (as bytes32).",
          "_srcEid": "The source endpoint ID."
        }
      },
      "allowInitializePath((uint32,bytes32,uint64))": {
        "details": "This indicates to the endpoint that the OApp has enabled msgs for this particular path to be received.This defaults to assuming if a peer has been set, its initialized. Can be overridden by the OApp if there is other logic to determine this.",
        "params": {
          "origin": "The origin information containing the source endpoint and sender address."
        },
        "returns": {
          "_0": "Whether the path has been initialized."
        }
      },
      "combineOptions(uint32,uint16,bytes)": {
        "details": "If there is an enforced lzReceive option: - {gasLimit: 200k, msg.value: 1 ether} AND a caller supplies a lzReceive option: {gasLimit: 100k, msg.value: 0.5 ether} - The resulting options will be {gasLimit: 300k, msg.value: 1.5 ether} when the message is executed on the remote lzReceive() function.This presence of duplicated options is handled off-chain in the verifier/executor.",
        "params": {
          "_eid": "The endpoint ID.",
          "_extraOptions": "Additional options passed by the caller.",
          "_msgType": "The OAPP message type."
        },
        "returns": {
          "_0": "options The combination of caller specified options AND enforced options."
        }
      },
      "isComposeMsgSender((uint32,bytes32,uint64),bytes,address)": {
        "details": "_origin The origin information containing the source endpoint and sender address.  - srcEid: The source chain endpoint ID.  - sender: The sender address on the src chain.  - nonce: The nonce of the message._message The lzReceive payload.Applications can optionally choose to implement separate composeMsg senders that are NOT the bridging layer.The default sender IS the OAppReceiver implementer.",
        "params": {
          "_sender": "The sender address."
        },
        "returns": {
          "_0": "isSender Is a valid sender."
        }
      },
      "lzReceive((uint32,bytes32,uint64),bytes32,bytes,address,bytes)": {
        "details": "Entry point for receiving messages or packets from the endpoint.Entry point for receiving msg/packet from the LayerZero endpoint.",
        "params": {
          "_executor": "The address of the executor for the received message.",
          "_extraData": "Additional arbitrary data provided by the corresponding executor.",
          "_guid": "The unique identifier for the received LayerZero message.",
          "_message": "The payload of the received message.",
          "_origin": "The origin information containing the source endpoint and sender address.  - srcEid: The source chain endpoint ID.  - sender: The sender address on the src chain.  - nonce: The nonce of the message."
        }
      },
      "nextNonce(uint32,bytes32)": {
        "details": "_srcEid The source endpoint ID._sender The sender address.The path nonce starts from 1. If 0 is returned it means that there is NO nonce ordered enforcement.Is required by the off-chain executor to determine the OApp expects msg execution is ordered.This is also enforced by the OApp.By default this is NOT enabled. ie. nextNonce is hardcoded to return 0.",
        "returns": {
          "nonce": "The next nonce."
        }
      },
      "oAppVersion()": {
        "returns": {
          "receiverVersion": "The version of the OAppReceiver.sol implementation.",
          "senderVersion": "The version of the OAppSender.sol implementation."
        }
      },
      "owner()": {
        "details": "Returns the address of the current owner."
      },
      "removeValidCaller(address)": {
        "params": {
          "_address": "The address to remove from the valid caller list."
        }
      },
      "removeValidTarget(uint32,bytes32,address)": {
        "params": {
          "_governedContract": "The governed contract address.",
          "_originCaller": "The origin caller address (as bytes32).",
          "_srcEid": "The source endpoint ID."
        }
      },
      "renounceOwnership()": {
        "details": "Leaves the contract without owner. It will not be possible to call `onlyOwner` functions. Can only be called by the current owner. NOTE: Renouncing ownership will leave the contract without an owner, thereby disabling any functionality that is only available to the owner."
      },
      "setDelegate(address)": {
        "details": "Only the owner/admin of the OApp can call this function.Provides the ability for a delegate to set configs, on behalf of the OApp, directly on the Endpoint contract.",
        "params": {
          "_delegate": "The address of the delegate to be set."
        }
      },
      "setEnforcedOptions((uint32,uint16,bytes)[])": {
        "details": "Sets the enforced options for specific endpoint and message type combinations.Only the owner/admin of the OApp can call this function.Provides a way for the OApp to enforce things like paying for PreCrime, AND/OR minimum dst lzReceive gas amounts etc.These enforced options can vary as the potential options/execution on the remote may differ as per the msgType. eg. Amount of lzReceive() gas necessary to deliver a lzCompose() message adds overhead you dont want to pay if you are only making a standard LayerZero message ie. lzReceive() WITHOUT sendCompose().",
        "params": {
          "_enforcedOptions": "An array of EnforcedOptionParam structures specifying enforced options."
        }
      },
      "setPeer(uint32,bytes32)": {
        "details": "Only the owner/admin of the OApp can call this function.Indicates that the peer is trusted to send LayerZero messages to this OApp.Set this to bytes32(0) to remove the peer address.Peer is a bytes32 to accommodate non-evm chains.",
        "params": {
          "_eid": "The endpoint ID.",
          "_peer": "The address of the peer to be associated with the corresponding endpoint."
        }
      },
      "transferOwnership(address)": {
        "details": "Transfers ownership of the contract to a new account (`newOwner`). Can only be called by the current owner."
      }
    },
    "version": 1
  },
  "userdoc": {
    "kind": "user",
    "methods": {
      "addValidCaller(address)": {
        "notice": "Adds an address to the valid caller list."
      },
      "addValidTarget(uint32,bytes32,address)": {
        "notice": "Adds a specific (srcEid, originCaller, governedContract) combination to the valid target list."
      },
      "allowInitializePath((uint32,bytes32,uint64))": {
        "notice": "Checks if the path initialization is allowed based on the provided origin."
      },
      "combineOptions(uint32,uint16,bytes)": {
        "notice": "Combines options for a given endpoint and message type."
      },
      "endpoint()": {
        "notice": "Retrieves the LayerZero endpoint associated with the OApp."
      },
      "isComposeMsgSender((uint32,bytes32,uint64),bytes,address)": {
        "notice": "Indicates whether an address is an approved composeMsg sender to the Endpoint."
      },
      "nextNonce(uint32,bytes32)": {
        "notice": "Retrieves the next nonce for a given source endpoint and sender address."
      },
      "oAppVersion()": {
        "notice": "Retrieves the OApp version information."
      },
      "peers(uint32)": {
        "notice": "Retrieves the peer (OApp) associated with a corresponding endpoint."
      },
      "removeValidCaller(address)": {
        "notice": "Removes an address from the valid caller list."
      },
      "removeValidTarget(uint32,bytes32,address)": {
        "notice": "Removes a specific (srcEid, originCaller, governedContract) combination from the valid target list."
      },
      "setDelegate(address)": {
        "notice": "Sets the delegate address for the OApp."
      },
      "setPeer(uint32,bytes32)": {
        "notice": "Sets the peer address (OApp instance) for a corresponding endpoint."
      }
    },
    "version": 1
  },
  "storageLayout": {
    "storage": [
      {
        "astId": 1686,
        "contract": "contracts/GovernanceControllerOApp.sol:GovernanceControllerOApp",
        "label": "_owner",
        "offset": 0,
        "slot": "0",
        "type": "t_address"
      },
      {
        "astId": 938,
        "contract": "contracts/GovernanceControllerOApp.sol:GovernanceControllerOApp",
        "label": "peers",
        "offset": 0,
        "slot": "1",
        "type": "t_mapping(t_uint32,t_bytes32)"
      },
      {
        "astId": 1534,
        "contract": "contracts/GovernanceControllerOApp.sol:GovernanceControllerOApp",
        "label": "enforcedOptions",
        "offset": 0,
        "slot": "2",
        "type": "t_mapping(t_uint32,t_mapping(t_uint16,t_bytes_storage))"
      },
      {
        "astId": 2443,
        "contract": "contracts/GovernanceControllerOApp.sol:GovernanceControllerOApp",
        "label": "_status",
        "offset": 0,
        "slot": "3",
        "type": "t_uint256"
      },
      {
        "astId": 2550,
        "contract": "contracts/GovernanceControllerOApp.sol:GovernanceControllerOApp",
        "label": "messageOrigin",
        "offset": 0,
        "slot": "4",
        "type": "t_struct(GovernanceOrigin)3366_storage"
      },
      {
        "astId": 2566,
        "contract": "contracts/GovernanceControllerOApp.sol:GovernanceControllerOApp",
        "label": "validCallers",
        "offset": 0,
        "slot": "6",
        "type": "t_mapping(t_address,t_bool)"
      },
      {
        "astId": 2574,
        "contract": "contracts/GovernanceControllerOApp.sol:GovernanceControllerOApp",
        "label": "validTargets",
        "offset": 0,
        "slot": "7",
        "type": "t_mapping(t_uint32,t_mapping(t_bytes32,t_mapping(t_address,t_bool)))"
      }
    ],
    "types": {
      "t_address": {
        "encoding": "inplace",
        "label": "address",
        "numberOfBytes": "20"
      },
      "t_bool": {
        "encoding": "inplace",
        "label": "bool",
        "numberOfBytes": "1"
      },
      "t_bytes32": {
        "encoding": "inplace",
        "label": "bytes32",
        "numberOfBytes": "32"
      },
      "t_bytes_storage": {
        "encoding": "bytes",
        "label": "bytes",
        "numberOfBytes": "32"
      },
      "t_mapping(t_address,t_bool)": {
        "encoding": "mapping",
        "key": "t_address",
        "label": "mapping(address => bool)",
        "numberOfBytes": "32",
        "value": "t_bool"
      },
      "t_mapping(t_bytes32,t_mapping(t_address,t_bool))": {
        "encoding": "mapping",
        "key": "t_bytes32",
        "label": "mapping(bytes32 => mapping(address => bool))",
        "numberOfBytes": "32",
        "value": "t_mapping(t_address,t_bool)"
      },
      "t_mapping(t_uint16,t_bytes_storage)": {
        "encoding": "mapping",
        "key": "t_uint16",
        "label": "mapping(uint16 => bytes)",
        "numberOfBytes": "32",
        "value": "t_bytes_storage"
      },
      "t_mapping(t_uint32,t_bytes32)": {
        "encoding": "mapping",
        "key": "t_uint32",
        "label": "mapping(uint32 => bytes32)",
        "numberOfBytes": "32",
        "value": "t_bytes32"
      },
      "t_mapping(t_uint32,t_mapping(t_bytes32,t_mapping(t_address,t_bool)))": {
        "encoding": "mapping",
        "key": "t_uint32",
        "label": "mapping(uint32 => mapping(bytes32 => mapping(address => bool)))",
        "numberOfBytes": "32",
        "value": "t_mapping(t_bytes32,t_mapping(t_address,t_bool))"
      },
      "t_mapping(t_uint32,t_mapping(t_uint16,t_bytes_storage))": {
        "encoding": "mapping",
        "key": "t_uint32",
        "label": "mapping(uint32 => mapping(uint16 => bytes))",
        "numberOfBytes": "32",
        "value": "t_mapping(t_uint16,t_bytes_storage)"
      },
      "t_struct(GovernanceOrigin)3366_storage": {
        "encoding": "inplace",
        "label": "struct GovernanceOrigin",
        "members": [
          {
            "astId": 3363,
            "contract": "contracts/GovernanceControllerOApp.sol:GovernanceControllerOApp",
            "label": "eid",
            "offset": 0,
            "slot": "0",
            "type": "t_uint32"
          },
          {
            "astId": 3365,
            "contract": "contracts/GovernanceControllerOApp.sol:GovernanceControllerOApp",
            "label": "caller",
            "offset": 0,
            "slot": "1",
            "type": "t_bytes32"
          }
        ],
        "numberOfBytes": "64"
      },
      "t_uint16": {
        "encoding": "inplace",
        "label": "uint16",
        "numberOfBytes": "2"
      },
      "t_uint256": {
        "encoding": "inplace",
        "label": "uint256",
        "numberOfBytes": "32"
      },
      "t_uint32": {
        "encoding": "inplace",
        "label": "uint32",
        "numberOfBytes": "4"
      }
    }
  }
}