{
  "address": "0xeB0b84339f30AB8b9c8cEB6DB87EdD048a29bDc3",
  "abi": [
    {
      "inputs": [
        {
          "internalType": "address",
          "name": "_endpoint",
          "type": "address"
        },
        {
          "internalType": "address",
          "name": "_delegate",
          "type": "address"
        }
      ],
      "stateMutability": "nonpayable",
      "type": "constructor"
    },
    {
      "inputs": [
        {
          "internalType": "uint8",
          "name": "action",
          "type": "uint8"
        }
      ],
      "name": "InvalidAction",
      "type": "error"
    },
    {
      "inputs": [],
      "name": "InvalidCallDataLength",
      "type": "error"
    },
    {
      "inputs": [],
      "name": "InvalidDelegate",
      "type": "error"
    },
    {
      "inputs": [],
      "name": "InvalidEndpointCall",
      "type": "error"
    },
    {
      "inputs": [],
      "name": "InvalidMessageLength",
      "type": "error"
    },
    {
      "inputs": [],
      "name": "InvalidModule",
      "type": "error"
    },
    {
      "inputs": [
        {
          "internalType": "bytes",
          "name": "options",
          "type": "bytes"
        }
      ],
      "name": "InvalidOptions",
      "type": "error"
    },
    {
      "inputs": [],
      "name": "LzTokenUnavailable",
      "type": "error"
    },
    {
      "inputs": [
        {
          "internalType": "uint32",
          "name": "eid",
          "type": "uint32"
        }
      ],
      "name": "NoPeer",
      "type": "error"
    },
    {
      "inputs": [
        {
          "internalType": "uint256",
          "name": "msgValue",
          "type": "uint256"
        }
      ],
      "name": "NotEnoughNative",
      "type": "error"
    },
    {
      "inputs": [
        {
          "internalType": "address",
          "name": "addr",
          "type": "address"
        }
      ],
      "name": "OnlyEndpoint",
      "type": "error"
    },
    {
      "inputs": [
        {
          "internalType": "uint32",
          "name": "eid",
          "type": "uint32"
        },
        {
          "internalType": "bytes32",
          "name": "sender",
          "type": "bytes32"
        }
      ],
      "name": "OnlyPeer",
      "type": "error"
    },
    {
      "inputs": [
        {
          "internalType": "address",
          "name": "owner",
          "type": "address"
        }
      ],
      "name": "OwnableInvalidOwner",
      "type": "error"
    },
    {
      "inputs": [
        {
          "internalType": "address",
          "name": "account",
          "type": "address"
        }
      ],
      "name": "OwnableUnauthorizedAccount",
      "type": "error"
    },
    {
      "inputs": [
        {
          "internalType": "uint256",
          "name": "length",
          "type": "uint256"
        }
      ],
      "name": "PayloadTooLong",
      "type": "error"
    },
    {
      "inputs": [
        {
          "internalType": "address",
          "name": "token",
          "type": "address"
        }
      ],
      "name": "SafeERC20FailedOperation",
      "type": "error"
    },
    {
      "inputs": [],
      "name": "UnauthorizedOriginCaller",
      "type": "error"
    },
    {
      "anonymous": false,
      "inputs": [
        {
          "components": [
            {
              "internalType": "uint32",
              "name": "eid",
              "type": "uint32"
            },
            {
              "internalType": "uint16",
              "name": "msgType",
              "type": "uint16"
            },
            {
              "internalType": "bytes",
              "name": "options",
              "type": "bytes"
            }
          ],
          "indexed": false,
          "internalType": "struct EnforcedOptionParam[]",
          "name": "_enforcedOptions",
          "type": "tuple[]"
        }
      ],
      "name": "EnforcedOptionSet",
      "type": "event"
    },
    {
      "anonymous": false,
      "inputs": [
        {
          "indexed": true,
          "internalType": "address",
          "name": "previousOwner",
          "type": "address"
        },
        {
          "indexed": true,
          "internalType": "address",
          "name": "newOwner",
          "type": "address"
        }
      ],
      "name": "OwnershipTransferred",
      "type": "event"
    },
    {
      "anonymous": false,
      "inputs": [
        {
          "indexed": false,
          "internalType": "uint32",
          "name": "eid",
          "type": "uint32"
        },
        {
          "indexed": false,
          "internalType": "bytes32",
          "name": "peer",
          "type": "bytes32"
        }
      ],
      "name": "PeerSet",
      "type": "event"
    },
    {
      "inputs": [],
      "name": "SEND",
      "outputs": [
        {
          "internalType": "uint16",
          "name": "",
          "type": "uint16"
        }
      ],
      "stateMutability": "view",
      "type": "function"
    },
    {
      "inputs": [
        {
          "components": [
            {
              "internalType": "uint32",
              "name": "srcEid",
              "type": "uint32"
            },
            {
              "internalType": "bytes32",
              "name": "sender",
              "type": "bytes32"
            },
            {
              "internalType": "uint64",
              "name": "nonce",
              "type": "uint64"
            }
          ],
          "internalType": "struct Origin",
          "name": "origin",
          "type": "tuple"
        }
      ],
      "name": "allowInitializePath",
      "outputs": [
        {
          "internalType": "bool",
          "name": "",
          "type": "bool"
        }
      ],
      "stateMutability": "view",
      "type": "function"
    },
    {
      "inputs": [
        {
          "internalType": "uint32",
          "name": "_eid",
          "type": "uint32"
        },
        {
          "internalType": "uint16",
          "name": "_msgType",
          "type": "uint16"
        },
        {
          "internalType": "bytes",
          "name": "_extraOptions",
          "type": "bytes"
        }
      ],
      "name": "combineOptions",
      "outputs": [
        {
          "internalType": "bytes",
          "name": "",
          "type": "bytes"
        }
      ],
      "stateMutability": "view",
      "type": "function"
    },
    {
      "inputs": [],
      "name": "endpoint",
      "outputs": [
        {
          "internalType": "contract ILayerZeroEndpointV2",
          "name": "",
          "type": "address"
        }
      ],
      "stateMutability": "view",
      "type": "function"
    },
    {
      "inputs": [
        {
          "internalType": "uint32",
          "name": "eid",
          "type": "uint32"
        },
        {
          "internalType": "uint16",
          "name": "msgType",
          "type": "uint16"
        }
      ],
      "name": "enforcedOptions",
      "outputs": [
        {
          "internalType": "bytes",
          "name": "enforcedOption",
          "type": "bytes"
        }
      ],
      "stateMutability": "view",
      "type": "function"
    },
    {
      "inputs": [
        {
          "components": [
            {
              "internalType": "uint32",
              "name": "srcEid",
              "type": "uint32"
            },
            {
              "internalType": "bytes32",
              "name": "sender",
              "type": "bytes32"
            },
            {
              "internalType": "uint64",
              "name": "nonce",
              "type": "uint64"
            }
          ],
          "internalType": "struct Origin",
          "name": "",
          "type": "tuple"
        },
        {
          "internalType": "bytes",
          "name": "",
          "type": "bytes"
        },
        {
          "internalType": "address",
          "name": "_sender",
          "type": "address"
        }
      ],
      "name": "isComposeMsgSender",
      "outputs": [
        {
          "internalType": "bool",
          "name": "",
          "type": "bool"
        }
      ],
      "stateMutability": "view",
      "type": "function"
    },
    {
      "inputs": [
        {
          "components": [
            {
              "internalType": "uint32",
              "name": "srcEid",
              "type": "uint32"
            },
            {
              "internalType": "bytes32",
              "name": "sender",
              "type": "bytes32"
            },
            {
              "internalType": "uint64",
              "name": "nonce",
              "type": "uint64"
            }
          ],
          "internalType": "struct Origin",
          "name": "_origin",
          "type": "tuple"
        },
        {
          "internalType": "bytes32",
          "name": "_guid",
          "type": "bytes32"
        },
        {
          "internalType": "bytes",
          "name": "_message",
          "type": "bytes"
        },
        {
          "internalType": "address",
          "name": "_executor",
          "type": "address"
        },
        {
          "internalType": "bytes",
          "name": "_extraData",
          "type": "bytes"
        }
      ],
      "name": "lzReceive",
      "outputs": [],
      "stateMutability": "payable",
      "type": "function"
    },
    {
      "inputs": [
        {
          "internalType": "uint32",
          "name": "",
          "type": "uint32"
        },
        {
          "internalType": "bytes32",
          "name": "",
          "type": "bytes32"
        }
      ],
      "name": "nextNonce",
      "outputs": [
        {
          "internalType": "uint64",
          "name": "nonce",
          "type": "uint64"
        }
      ],
      "stateMutability": "view",
      "type": "function"
    },
    {
      "inputs": [],
      "name": "oAppVersion",
      "outputs": [
        {
          "internalType": "uint64",
          "name": "senderVersion",
          "type": "uint64"
        },
        {
          "internalType": "uint64",
          "name": "receiverVersion",
          "type": "uint64"
        }
      ],
      "stateMutability": "pure",
      "type": "function"
    },
    {
      "inputs": [],
      "name": "originCaller",
      "outputs": [
        {
          "internalType": "bytes32",
          "name": "",
          "type": "bytes32"
        }
      ],
      "stateMutability": "view",
      "type": "function"
    },
    {
      "inputs": [],
      "name": "owner",
      "outputs": [
        {
          "internalType": "address",
          "name": "",
          "type": "address"
        }
      ],
      "stateMutability": "view",
      "type": "function"
    },
    {
      "inputs": [
        {
          "internalType": "uint32",
          "name": "eid",
          "type": "uint32"
        }
      ],
      "name": "peers",
      "outputs": [
        {
          "internalType": "bytes32",
          "name": "peer",
          "type": "bytes32"
        }
      ],
      "stateMutability": "view",
      "type": "function"
    },
    {
      "inputs": [
        {
          "components": [
            {
              "internalType": "uint8",
              "name": "action",
              "type": "uint8"
            },
            {
              "internalType": "uint32",
              "name": "dstEid",
              "type": "uint32"
            },
            {
              "internalType": "bytes32",
              "name": "originCaller",
              "type": "bytes32"
            },
            {
              "internalType": "address",
              "name": "governedContract",
              "type": "address"
            },
            {
              "internalType": "bytes",
              "name": "callData",
              "type": "bytes"
            }
          ],
          "internalType": "struct GovernanceMessageEVMCodec.GovernanceMessage",
          "name": "_message",
          "type": "tuple"
        },
        {
          "internalType": "bytes",
          "name": "_extraOptions",
          "type": "bytes"
        },
        {
          "internalType": "bool",
          "name": "_payInLzToken",
          "type": "bool"
        }
      ],
      "name": "quoteEVMAction",
      "outputs": [
        {
          "components": [
            {
              "internalType": "uint256",
              "name": "nativeFee",
              "type": "uint256"
            },
            {
              "internalType": "uint256",
              "name": "lzTokenFee",
              "type": "uint256"
            }
          ],
          "internalType": "struct MessagingFee",
          "name": "fee",
          "type": "tuple"
        }
      ],
      "stateMutability": "view",
      "type": "function"
    },
    {
      "inputs": [
        {
          "internalType": "bytes",
          "name": "_message",
          "type": "bytes"
        },
        {
          "internalType": "bytes",
          "name": "_extraOptions",
          "type": "bytes"
        },
        {
          "internalType": "bool",
          "name": "_payInLzToken",
          "type": "bool"
        }
      ],
      "name": "quoteRawBytesAction",
      "outputs": [
        {
          "components": [
            {
              "internalType": "uint256",
              "name": "nativeFee",
              "type": "uint256"
            },
            {
              "internalType": "uint256",
              "name": "lzTokenFee",
              "type": "uint256"
            }
          ],
          "internalType": "struct MessagingFee",
          "name": "fee",
          "type": "tuple"
        }
      ],
      "stateMutability": "view",
      "type": "function"
    },
    {
      "inputs": [],
      "name": "renounceOwnership",
      "outputs": [],
      "stateMutability": "nonpayable",
      "type": "function"
    },
    {
      "inputs": [
        {
          "components": [
            {
              "internalType": "uint8",
              "name": "action",
              "type": "uint8"
            },
            {
              "internalType": "uint32",
              "name": "dstEid",
              "type": "uint32"
            },
            {
              "internalType": "bytes32",
              "name": "originCaller",
              "type": "bytes32"
            },
            {
              "internalType": "address",
              "name": "governedContract",
              "type": "address"
            },
            {
              "internalType": "bytes",
              "name": "callData",
              "type": "bytes"
            }
          ],
          "internalType": "struct GovernanceMessageEVMCodec.GovernanceMessage",
          "name": "_message",
          "type": "tuple"
        },
        {
          "internalType": "bytes",
          "name": "_extraOptions",
          "type": "bytes"
        },
        {
          "components": [
            {
              "internalType": "uint256",
              "name": "nativeFee",
              "type": "uint256"
            },
            {
              "internalType": "uint256",
              "name": "lzTokenFee",
              "type": "uint256"
            }
          ],
          "internalType": "struct MessagingFee",
          "name": "_fee",
          "type": "tuple"
        },
        {
          "internalType": "address",
          "name": "_refundAddress",
          "type": "address"
        }
      ],
      "name": "sendEVMAction",
      "outputs": [
        {
          "components": [
            {
              "internalType": "bytes32",
              "name": "guid",
              "type": "bytes32"
            },
            {
              "internalType": "uint64",
              "name": "nonce",
              "type": "uint64"
            },
            {
              "components": [
                {
                  "internalType": "uint256",
                  "name": "nativeFee",
                  "type": "uint256"
                },
                {
                  "internalType": "uint256",
                  "name": "lzTokenFee",
                  "type": "uint256"
                }
              ],
              "internalType": "struct MessagingFee",
              "name": "fee",
              "type": "tuple"
            }
          ],
          "internalType": "struct MessagingReceipt",
          "name": "receipt",
          "type": "tuple"
        }
      ],
      "stateMutability": "payable",
      "type": "function"
    },
    {
      "inputs": [
        {
          "internalType": "bytes",
          "name": "_message",
          "type": "bytes"
        },
        {
          "internalType": "bytes",
          "name": "_extraOptions",
          "type": "bytes"
        },
        {
          "components": [
            {
              "internalType": "uint256",
              "name": "nativeFee",
              "type": "uint256"
            },
            {
              "internalType": "uint256",
              "name": "lzTokenFee",
              "type": "uint256"
            }
          ],
          "internalType": "struct MessagingFee",
          "name": "_fee",
          "type": "tuple"
        },
        {
          "internalType": "address",
          "name": "_refundAddress",
          "type": "address"
        }
      ],
      "name": "sendRawBytesAction",
      "outputs": [
        {
          "components": [
            {
              "internalType": "bytes32",
              "name": "guid",
              "type": "bytes32"
            },
            {
              "internalType": "uint64",
              "name": "nonce",
              "type": "uint64"
            },
            {
              "components": [
                {
                  "internalType": "uint256",
                  "name": "nativeFee",
                  "type": "uint256"
                },
                {
                  "internalType": "uint256",
                  "name": "lzTokenFee",
                  "type": "uint256"
                }
              ],
              "internalType": "struct MessagingFee",
              "name": "fee",
              "type": "tuple"
            }
          ],
          "internalType": "struct MessagingReceipt",
          "name": "receipt",
          "type": "tuple"
        }
      ],
      "stateMutability": "payable",
      "type": "function"
    },
    {
      "inputs": [
        {
          "internalType": "address",
          "name": "_delegate",
          "type": "address"
        }
      ],
      "name": "setDelegate",
      "outputs": [],
      "stateMutability": "nonpayable",
      "type": "function"
    },
    {
      "inputs": [
        {
          "components": [
            {
              "internalType": "uint32",
              "name": "eid",
              "type": "uint32"
            },
            {
              "internalType": "uint16",
              "name": "msgType",
              "type": "uint16"
            },
            {
              "internalType": "bytes",
              "name": "options",
              "type": "bytes"
            }
          ],
          "internalType": "struct EnforcedOptionParam[]",
          "name": "_enforcedOptions",
          "type": "tuple[]"
        }
      ],
      "name": "setEnforcedOptions",
      "outputs": [],
      "stateMutability": "nonpayable",
      "type": "function"
    },
    {
      "inputs": [
        {
          "internalType": "uint32",
          "name": "_eid",
          "type": "uint32"
        },
        {
          "internalType": "bytes32",
          "name": "_peer",
          "type": "bytes32"
        }
      ],
      "name": "setPeer",
      "outputs": [],
      "stateMutability": "nonpayable",
      "type": "function"
    },
    {
      "inputs": [
        {
          "internalType": "address",
          "name": "newOwner",
          "type": "address"
        }
      ],
      "name": "transferOwnership",
      "outputs": [],
      "stateMutability": "nonpayable",
      "type": "function"
    }
  ],
  "transactionHash": "0x052c8c53b35e68d8a081aea6b9741443b815756059abb7ad060584158832d3ee",
  "args": [
    "0x6EDCE65403992e310A62460808c4b910D972f10f",
    "0x0804a6e2798F42C7F3c97215DdF958d5500f8ec8"
  ],
  "numDeployments": 2,
  "solcInputHash": "89424ee5c7181ed6a25bd84068ffe60e",
  "bytecode": "0x60a06040523480156200001157600080fd5b50604051620028963803806200289683398101604081905262000034916200017c565b81818181806001600160a01b0381166200006857604051631e4fbdf760e01b81526000600482015260240160405180910390fd5b62000073816200010f565b506001600160a01b038083166080528116620000a257604051632d618d8160e21b815260040160405180910390fd5b60805160405163ca5eb5e160e01b81526001600160a01b0383811660048301529091169063ca5eb5e190602401600060405180830381600087803b158015620000ea57600080fd5b505af1158015620000ff573d6000803e3d6000fd5b50505050505050505050620001b4565b600080546001600160a01b038381166001600160a01b0319831681178455604051919092169283917f8be0079c531659141344cd1fd0a4f28419497f9722a3daafe3b4186f6b6457e09190a35050565b80516001600160a01b03811681146200017757600080fd5b919050565b600080604083850312156200019057600080fd5b6200019b836200015f565b9150620001ab602084016200015f565b90509250929050565b60805161269c620001fa600039600081816102760152818161049c015281816108de01528181610a03015281816115480152818161164101526116f8015261269c6000f3fe60806040526004361061012a5760003560e01c8063715018a6116100ab578063b98bd0701161006f578063b98bd0701461037e578063bb0b6a531461039e578063bc70b354146103cb578063ca5eb5e1146103eb578063f2fde38b1461040b578063ff7bd03d1461042b57600080fd5b8063715018a6146102b05780637d25a05e146102c557806382413eac146102fd5780638da5cb5b1461033c578063981b81c11461035a57600080fd5b80633400288b116100f25780633400288b146101e45780633f2820e9146102045780635535d461146102245780635dee0d05146102515780635e280f111461026457600080fd5b80630839de281461012f57806313137d651461016557806317442b701461017a5780631f5e13341461019c5780632505b38e146101c4575b600080fd5b34801561013b57600080fd5b5061014f61014a3660046118a2565b61044b565b60405161015c919061191c565b60405180910390f35b61017861017336600461195a565b61049a565b005b34801561018657600080fd5b506040805160018152600260208201520161015c565b3480156101a857600080fd5b506101b1600181565b60405161ffff909116815260200161015c565b3480156101d057600080fd5b5061014f6101df3660046119f9565b61055a565b3480156101f057600080fd5b506101786101ff366004611a8d565b6105dd565b610217610212366004611ac9565b6105f3565b60405161015c9190611b5d565b34801561023057600080fd5b5061024461023f366004611bb1565b610614565b60405161015c9190611c34565b61021761025f366004611c47565b6106b9565b34801561027057600080fd5b506102987f000000000000000000000000000000000000000000000000000000000000000081565b6040516001600160a01b03909116815260200161015c565b3480156102bc57600080fd5b506101786106d8565b3480156102d157600080fd5b506102e56102e0366004611a8d565b6106ec565b6040516001600160401b03909116815260200161015c565b34801561030957600080fd5b5061032c610318366004611cd7565b6001600160a01b0381163014949350505050565b604051901515815260200161015c565b34801561034857600080fd5b506000546001600160a01b0316610298565b34801561036657600080fd5b5061037060035481565b60405190815260200161015c565b34801561038a57600080fd5b50610178610399366004611d3d565b6106f5565b3480156103aa57600080fd5b506103706103b9366004611db1565b60016020526000908152604090205481565b3480156103d757600080fd5b506102446103e6366004611dcc565b61070f565b3480156103f757600080fd5b50610178610406366004611e2c565b6108b7565b34801561041757600080fd5b50610178610426366004611e2c565b61093d565b34801561043757600080fd5b5061032c610446366004611e49565b61097b565b604080518082019091526000808252602082015260008061046d8787876109b1565b909250905061048d6104856040890160208a01611db1565b8383876109ed565b925050505b949350505050565b7f00000000000000000000000000000000000000000000000000000000000000006001600160a01b031633146104ea576040516391ac5e4f60e01b81523360048201526024015b60405180910390fd5b60208701803590610504906104ff908a611db1565b610ace565b14610542576105166020880188611db1565b60405163309afaf360e21b815263ffffffff9091166004820152602088013560248201526044016104e1565b61055187878787878787610b0a565b50505050505050565b6040805180820190915260008082526020820152600061057a8787610beb565b9050600061058b826001888861070f565b90506105d18289898080601f0160208091040260200160405190810160405280939291908181526020018383808284376000920191909152508692508991506109ed9050565b98975050505050505050565b6105e5610c4e565b6105ef8282610c7b565b5050565b6105fb6117e6565b610609878787878787610cd0565b979650505050505050565b60026020908152600092835260408084209091529082529020805461063890611e65565b80601f016020809104026020016040519081016040528092919081815260200182805461066490611e65565b80156106b15780601f10610686576101008083540402835291602001916106b1565b820191906000526020600020905b81548152906001019060200180831161069457829003601f168201915b505050505081565b6106c16117e6565b6106ce8686868686610d87565b9695505050505050565b6106e0610c4e565b6106ea6000610e35565b565b60005b92915050565b6106fd610c4e565b6105ef61070a8284611f98565b610e85565b63ffffffff8416600090815260026020908152604080832061ffff8716845290915281208054606092919061074390611e65565b80601f016020809104026020016040519081016040528092919081815260200182805461076f90611e65565b80156107bc5780601f10610791576101008083540402835291602001916107bc565b820191906000526020600020905b81548152906001019060200180831161079f57829003601f168201915b50505050509050805160000361080c5783838080601f0160208091040260200160405190810160405280939291908181526020018383808284376000920191909152509294506104929350505050565b600083900361081c579050610492565b6002831061089a5761086384848080601f016020809104026020016040519081016040528093929190818152602001838380828437600092019190915250610f9792505050565b80610871846002818861206d565b60405160200161088393929190612097565b604051602081830303815290604052915050610492565b8383604051639a6d49cd60e01b81526004016104e19291906120bf565b6108bf610c4e565b60405163ca5eb5e160e01b81526001600160a01b0382811660048301527f0000000000000000000000000000000000000000000000000000000000000000169063ca5eb5e190602401600060405180830381600087803b15801561092257600080fd5b505af1158015610936573d6000803e3d6000fd5b5050505050565b610945610c4e565b6001600160a01b03811661096f57604051631e4fbdf760e01b8152600060048201526024016104e1565b61097881610e35565b50565b60006020820180359060019083906109939086611db1565b63ffffffff1681526020810191909152604001600020541492915050565b6060806109c56109c0866120ff565b610fc3565b91506109e36109da6040870160208801611db1565b6001868661070f565b9050935093915050565b60408051808201909152600080825260208201527f00000000000000000000000000000000000000000000000000000000000000006001600160a01b031663ddc28c586040518060a001604052808863ffffffff168152602001610a5089610ace565b8152602001878152602001868152602001851515815250306040518363ffffffff1660e01b8152600401610a859291906121a1565b6040805180830381865afa158015610aa1573d6000803e3d6000fd5b505050506040513d601f19601f82011682018060405250810190610ac5919061224a565b95945050505050565b63ffffffff8116600090815260016020526040812054806106ef5760405163f6ff4fb760e01b815263ffffffff841660048201526024016104e1565b6000610b168686611058565b805190915060ff16600114610b465780516040516317949c6760e11b815260ff90911660048201526024016104e1565b806040015160038190555060008082606001516001600160a01b03168360800151604051610b749190612266565b6000604051808303816000865af19150503d8060008114610bb1576040519150601f19603f3d011682016040523d82523d6000602084013e610bb6565b606091505b509150915081610bda578060405162461bcd60e51b81526004016104e19190611c34565b505060006003555050505050505050565b60008282610bfa836020612298565b610c05906001612298565b60ff1690610c1560006020612298565b610c20906001612298565b610c2b906004612298565b60ff1692610c3b9392919061206d565b610c44916122b1565b60e01c9392505050565b6000546001600160a01b031633146106ea5760405163118cdaa760e01b81523360048201526024016104e1565b63ffffffff8216600081815260016020908152604091829020849055815192835282018390527f238399d427b947898edb290f5ff0f9109849b1c3ba196a42e35f00c50a54b98b910160405180910390a15050565b610cd86117e6565b33610ce38888611499565b6001600160a01b031614610d095760405162961f7560e51b815260040160405180910390fd5b6000610d158888610beb565b90506000610d26826001898961070f565b9050610d7a828a8a8080601f016020809104026020016040519081016040528093929190818152602001838380828437600092019190915250869250610d74915050368a90038a018a6122e1565b88611515565b9998505050505050505050565b610d8f6117e6565b6001610d9e6020880188612313565b60ff1614610dd257610db36020870187612313565b6040516317949c6760e11b815260ff90911660048201526024016104e1565b3360408701356001600160a01b031614610dfe5760405162961f7560e51b815260040160405180910390fd5b600080610e0c8888886109b1565b90925090506105d1610e2460408a0160208b01611db1565b8383610d74368a90038a018a6122e1565b600080546001600160a01b038381166001600160a01b0319831681178455604051919092169283917f8be0079c531659141344cd1fd0a4f28419497f9722a3daafe3b4186f6b6457e09190a35050565b60005b8151811015610f5c57610eb7828281518110610ea657610ea661232e565b602002602001015160400151610f97565b818181518110610ec957610ec961232e565b60200260200101516040015160026000848481518110610eeb57610eeb61232e565b60200260200101516000015163ffffffff1663ffffffff1681526020019081526020016000206000848481518110610f2557610f2561232e565b60200260200101516020015161ffff1661ffff1681526020019081526020016000209081610f539190612395565b50600101610e88565b507fbe4864a8e820971c0247f5992e2da559595f7bf076a21cb5928d443d2a13b67481604051610f8c9190612454565b60405180910390a150565b600281015161ffff81166003146105ef5781604051639a6d49cd60e01b81526004016104e19190611c34565b606061ffff80168260800151511115610ff85781608001515160405163a341969160e01b81526004016104e191815260200190565b608082015180518351602080860151604080880151606089015191519596611041967747656e6572616c507572706f7365476f7665726e616e63659695929392899291016124df565b604051602081830303815290604052915050919050565b6040805160a0810182526000808252602080830182905292820181905260608083018290526080830152909161108e9190612298565b611099906001612298565b6110a4906004612298565b6110af906020612298565b6110ba906014612298565b6110c5906002612298565b60ff168210156110e857604051638d0242c960e01b815260040160405180910390fd5b7747656e6572616c507572706f7365476f7665726e616e636583600084611110826020612298565b60ff16926111209392919061206d565b61112991612559565b1461114757604051631bb2296560e31b815260040160405180910390fd5b828261115560006020612298565b60ff168181106111675761116761232e565b919091013560f81c825250828261118060006020612298565b61118b906001612298565b60ff169061119b60006020612298565b6111a6906001612298565b6111b1906004612298565b60ff16926111c19392919061206d565b6111ca916122b1565b60e01c602080830191909152839083906111e690600090612298565b6111f1906001612298565b6111fc906004612298565b60ff169061120c60006020612298565b611217906001612298565b611222906004612298565b61122d906020612298565b60ff169261123d9392919061206d565b61124691612559565b6040820152828261125960006020612298565b611264906001612298565b61126f906004612298565b61127a906020612298565b60ff169061128a60006020612298565b611295906001612298565b6112a0906004612298565b6112ab906020612298565b6112b6906014612298565b6112c1906002612298565b60ff16926112d19392919061206d565b6112da91612577565b606090811c90820152600083836112f2836020612298565b6112fd906001612298565b611308906004612298565b611313906020612298565b61131e906014612298565b60ff169061132e60006020612298565b611339906001612298565b611344906004612298565b61134f906020612298565b61135a906014612298565b611365906002612298565b611370906002612298565b60ff16926113809392919061206d565b611389916125aa565b60f01c90508061139b60006020612298565b6113a6906001612298565b6113b1906004612298565b6113bc906020612298565b6113c7906014612298565b6113d2906002612298565b60ff166113df91906125d8565b61ffff16831461140257604051630249dd0d60e51b815260040160405180910390fd5b838361141060006020612298565b61141b906001612298565b611426906004612298565b611431906020612298565b61143c906014612298565b611447906002612298565b60ff169080926114599392919061206d565b8080601f01602080910402602001604051908101604052809392919081815260200183838082843760009201919091525050505060808301525092915050565b600061150e83836114ab846020612298565b6114b6906001612298565b6114c1906004612298565b60ff16906114d160006020612298565b6114dc906001612298565b6114e7906004612298565b6114f2906020612298565b60ff16926115029392919061206d565b61150b91612559565b90565b9392505050565b61151d6117e6565b600061152c8460000151611615565b60208501519091501561154657611546846020015161163d565b7f00000000000000000000000000000000000000000000000000000000000000006001600160a01b0316632637a450826040518060a001604052808b63ffffffff1681526020016115968c610ace565b81526020018a815260200189815260200160008960200151111515815250866040518463ffffffff1660e01b81526004016115d29291906121a1565b60806040518083038185885af11580156115f0573d6000803e3d6000fd5b50505050506040513d601f19601f8201168201806040525081019061060991906125f3565b6000813414611639576040516304fb820960e51b81523460048201526024016104e1565b5090565b60007f00000000000000000000000000000000000000000000000000000000000000006001600160a01b031663e4fe1d946040518163ffffffff1660e01b8152600401602060405180830381865afa15801561169d573d6000803e3d6000fd5b505050506040513d601f19601f820116820180604052508101906116c19190612649565b90506001600160a01b0381166116ea576040516329b99a9560e11b815260040160405180910390fd5b6040805133602482018190527f00000000000000000000000000000000000000000000000000000000000000006001600160a01b03818116604485015260648085018890528551808603909101815260849094019094526020830180516001600160e01b03166323b872dd60e01b1790526105ef93851692869061176f908590611775565b50505050565b600080602060008451602086016000885af180611798576040513d6000823e3d81fd5b50506000513d915081156117b05780600114156117bd565b6001600160a01b0384163b155b1561176f57604051635274afe760e01b81526001600160a01b03851660048201526024016104e1565b60405180606001604052806000801916815260200160006001600160401b03168152602001611828604051806040016040528060008152602001600081525090565b905290565b600060a0828403121561183f57600080fd5b50919050565b60008083601f84011261185757600080fd5b5081356001600160401b0381111561186e57600080fd5b60208301915083602082850101111561188657600080fd5b9250929050565b8035801515811461189d57600080fd5b919050565b600080600080606085870312156118b857600080fd5b84356001600160401b03808211156118cf57600080fd5b6118db8883890161182d565b955060208701359150808211156118f157600080fd5b506118fe87828801611845565b909450925061191190506040860161188d565b905092959194509250565b8151815260208083015190820152604081016106ef565b60006060828403121561183f57600080fd5b6001600160a01b038116811461097857600080fd5b600080600080600080600060e0888a03121561197557600080fd5b61197f8989611933565b96506060880135955060808801356001600160401b03808211156119a257600080fd5b6119ae8b838c01611845565b909750955060a08a013591506119c382611945565b90935060c089013590808211156119d957600080fd5b506119e68a828b01611845565b989b979a50959850939692959293505050565b600080600080600060608688031215611a1157600080fd5b85356001600160401b0380821115611a2857600080fd5b611a3489838a01611845565b90975095506020880135915080821115611a4d57600080fd5b50611a5a88828901611845565b9094509250611a6d90506040870161188d565b90509295509295909350565b803563ffffffff8116811461189d57600080fd5b60008060408385031215611aa057600080fd5b611aa983611a79565b946020939093013593505050565b60006040828403121561183f57600080fd5b60008060008060008060a08789031215611ae257600080fd5b86356001600160401b0380821115611af957600080fd5b611b058a838b01611845565b90985096506020890135915080821115611b1e57600080fd5b50611b2b89828a01611845565b9095509350611b3f90508860408901611ab7565b91506080870135611b4f81611945565b809150509295509295509295565b6000608082019050825182526001600160401b0360208401511660208301526040830151611b98604084018280518252602090810151910152565b5092915050565b803561ffff8116811461189d57600080fd5b60008060408385031215611bc457600080fd5b611bcd83611a79565b9150611bdb60208401611b9f565b90509250929050565b60005b83811015611bff578181015183820152602001611be7565b50506000910152565b60008151808452611c20816020860160208601611be4565b601f01601f19169290920160200192915050565b60208152600061150e6020830184611c08565b600080600080600060a08688031215611c5f57600080fd5b85356001600160401b0380821115611c7657600080fd5b611c8289838a0161182d565b96506020880135915080821115611c9857600080fd5b50611ca588828901611845565b9095509350611cb990508760408801611ab7565b91506080860135611cc981611945565b809150509295509295909350565b60008060008060a08587031215611ced57600080fd5b611cf78686611933565b935060608501356001600160401b03811115611d1257600080fd5b611d1e87828801611845565b9094509250506080850135611d3281611945565b939692955090935050565b60008060208385031215611d5057600080fd5b82356001600160401b0380821115611d6757600080fd5b818501915085601f830112611d7b57600080fd5b813581811115611d8a57600080fd5b8660208260051b8501011115611d9f57600080fd5b60209290920196919550909350505050565b600060208284031215611dc357600080fd5b61150e82611a79565b60008060008060608587031215611de257600080fd5b611deb85611a79565b9350611df960208601611b9f565b925060408501356001600160401b03811115611e1457600080fd5b611e2087828801611845565b95989497509550505050565b600060208284031215611e3e57600080fd5b813561150e81611945565b600060608284031215611e5b57600080fd5b61150e8383611933565b600181811c90821680611e7957607f821691505b60208210810361183f57634e487b7160e01b600052602260045260246000fd5b634e487b7160e01b600052604160045260246000fd5b604051606081016001600160401b0381118282101715611ed157611ed1611e99565b60405290565b604080519081016001600160401b0381118282101715611ed157611ed1611e99565b604051601f8201601f191681016001600160401b0381118282101715611f2157611f21611e99565b604052919050565b600082601f830112611f3a57600080fd5b81356001600160401b03811115611f5357611f53611e99565b611f66601f8201601f1916602001611ef9565b818152846020838601011115611f7b57600080fd5b816020850160208301376000918101602001919091529392505050565b60006001600160401b0380841115611fb257611fb2611e99565b8360051b6020611fc3818301611ef9565b868152918501918181019036841115611fdb57600080fd5b865b8481101561206157803586811115611ff55760008081fd5b880160603682900312156120095760008081fd5b612011611eaf565b61201a82611a79565b8152612027868301611b9f565b868201526040808301358981111561203f5760008081fd5b61204b36828601611f29565b9183019190915250845250918301918301611fdd565b50979650505050505050565b6000808585111561207d57600080fd5b8386111561208a57600080fd5b5050820193919092039150565b600084516120a9818460208901611be4565b8201838582376000930192835250909392505050565b60208152816020820152818360408301376000818301604090810191909152601f909201601f19160101919050565b803560ff8116811461189d57600080fd5b600060a0823603121561211157600080fd5b60405160a081016001600160401b03828210818311171561213457612134611e99565b81604052612141856120ee565b835261214f60208601611a79565b6020840152604085013560408401526060850135915061216e82611945565b816060840152608085013591508082111561218857600080fd5b5061219536828601611f29565b60808301525092915050565b6040815263ffffffff8351166040820152602083015160608201526000604084015160a060808401526121d760e0840182611c08565b90506060850151603f198483030160a08501526121f48282611c08565b60809690960151151560c08501525050506001600160a01b039190911660209091015290565b60006040828403121561222c57600080fd5b612234611ed7565b9050815181526020820151602082015292915050565b60006040828403121561225c57600080fd5b61150e838361221a565b60008251612278818460208701611be4565b9190910192915050565b634e487b7160e01b600052601160045260246000fd5b60ff81811683821601908111156106ef576106ef612282565b6001600160e01b031981358181169160048510156122d95780818660040360031b1b83161692505b505092915050565b6000604082840312156122f357600080fd5b6122fb611ed7565b82358152602083013560208201528091505092915050565b60006020828403121561232557600080fd5b61150e826120ee565b634e487b7160e01b600052603260045260246000fd5b601f821115612390576000816000526020600020601f850160051c8101602086101561236d5750805b601f850160051c820191505b8181101561238c57828155600101612379565b5050505b505050565b81516001600160401b038111156123ae576123ae611e99565b6123c2816123bc8454611e65565b84612344565b602080601f8311600181146123f757600084156123df5750858301515b600019600386901b1c1916600185901b17855561238c565b600085815260208120601f198616915b8281101561242657888601518255948401946001909101908401612407565b50858210156124445787850151600019600388901b60f8161c191681555b5050505050600190811b01905550565b600060208083018184528085518083526040925060408601915060408160051b87010184880160005b838110156124d157888303603f190185528151805163ffffffff1684528781015161ffff168885015286015160608785018190526124bd81860183611c08565b96890196945050509086019060010161247d565b509098975050505050505050565b87815260ff60f81b8760f81b16602082015263ffffffff60e01b8660e01b1660218201528460258201526bffffffffffffffffffffffff198460601b16604582015261ffff60f01b8360f01b1660598201526000825161254681605b850160208701611be4565b91909101605b0198975050505050505050565b803560208310156106ef57600019602084900360031b1b1692915050565b6bffffffffffffffffffffffff1981358181169160148510156122d95760149490940360031b84901b1690921692915050565b6001600160f01b031981358181169160028510156122d95760029490940360031b84901b1690921692915050565b61ffff818116838216019080821115611b9857611b98612282565b60006080828403121561260557600080fd5b61260d611eaf565b8251815260208301516001600160401b038116811461262b57600080fd5b602082015261263d846040850161221a565b60408201529392505050565b60006020828403121561265b57600080fd5b815161150e8161194556fea2646970667358221220a834938721865abc141482d47d72363a0c3f23a762b764f641560e79829b64e164736f6c63430008160033",
  "devdoc": {
    "errors": {
      "OwnableInvalidOwner(address)": [
        {
          "details": "The owner is not a valid owner account. (eg. `address(0)`)"
        }
      ],
      "OwnableUnauthorizedAccount(address)": [
        {
          "details": "The caller account is not authorized to perform an operation."
        }
      ],
      "SafeERC20FailedOperation(address)": [
        {
          "details": "An operation with an ERC-20 token failed."
        }
      ]
    },
    "kind": "dev",
    "methods": {
      "allowInitializePath((uint32,bytes32,uint64))": {
        "details": "This indicates to the endpoint that the OApp has enabled msgs for this particular path to be received.This defaults to assuming if a peer has been set, its initialized. Can be overridden by the OApp if there is other logic to determine this.",
        "params": {
          "origin": "The origin information containing the source endpoint and sender address."
        },
        "returns": {
          "_0": "Whether the path has been initialized."
        }
      },
      "combineOptions(uint32,uint16,bytes)": {
        "details": "If there is an enforced lzReceive option: - {gasLimit: 200k, msg.value: 1 ether} AND a caller supplies a lzReceive option: {gasLimit: 100k, msg.value: 0.5 ether} - The resulting options will be {gasLimit: 300k, msg.value: 1.5 ether} when the message is executed on the remote lzReceive() function.This presence of duplicated options is handled off-chain in the verifier/executor.",
        "params": {
          "_eid": "The endpoint ID.",
          "_extraOptions": "Additional options passed by the caller.",
          "_msgType": "The OAPP message type."
        },
        "returns": {
          "_0": "options The combination of caller specified options AND enforced options."
        }
      },
      "isComposeMsgSender((uint32,bytes32,uint64),bytes,address)": {
        "details": "_origin The origin information containing the source endpoint and sender address.  - srcEid: The source chain endpoint ID.  - sender: The sender address on the src chain.  - nonce: The nonce of the message._message The lzReceive payload.Applications can optionally choose to implement separate composeMsg senders that are NOT the bridging layer.The default sender IS the OAppReceiver implementer.",
        "params": {
          "_sender": "The sender address."
        },
        "returns": {
          "_0": "isSender Is a valid sender."
        }
      },
      "lzReceive((uint32,bytes32,uint64),bytes32,bytes,address,bytes)": {
        "details": "Entry point for receiving messages or packets from the endpoint.Entry point for receiving msg/packet from the LayerZero endpoint.",
        "params": {
          "_executor": "The address of the executor for the received message.",
          "_extraData": "Additional arbitrary data provided by the corresponding executor.",
          "_guid": "The unique identifier for the received LayerZero message.",
          "_message": "The payload of the received message.",
          "_origin": "The origin information containing the source endpoint and sender address.  - srcEid: The source chain endpoint ID.  - sender: The sender address on the src chain.  - nonce: The nonce of the message."
        }
      },
      "nextNonce(uint32,bytes32)": {
        "details": "_srcEid The source endpoint ID._sender The sender address.The path nonce starts from 1. If 0 is returned it means that there is NO nonce ordered enforcement.Is required by the off-chain executor to determine the OApp expects msg execution is ordered.This is also enforced by the OApp.By default this is NOT enabled. ie. nextNonce is hardcoded to return 0.",
        "returns": {
          "nonce": "The next nonce."
        }
      },
      "oAppVersion()": {
        "returns": {
          "receiverVersion": "The version of the OAppReceiver.sol implementation.",
          "senderVersion": "The version of the OAppSender.sol implementation."
        }
      },
      "owner()": {
        "details": "Returns the address of the current owner."
      },
      "renounceOwnership()": {
        "details": "Leaves the contract without owner. It will not be possible to call `onlyOwner` functions. Can only be called by the current owner. NOTE: Renouncing ownership will leave the contract without an owner, thereby disabling any functionality that is only available to the owner."
      },
      "setDelegate(address)": {
        "details": "Only the owner/admin of the OApp can call this function.Provides the ability for a delegate to set configs, on behalf of the OApp, directly on the Endpoint contract.",
        "params": {
          "_delegate": "The address of the delegate to be set."
        }
      },
      "setEnforcedOptions((uint32,uint16,bytes)[])": {
        "details": "Sets the enforced options for specific endpoint and message type combinations.Only the owner/admin of the OApp can call this function.Provides a way for the OApp to enforce things like paying for PreCrime, AND/OR minimum dst lzReceive gas amounts etc.These enforced options can vary as the potential options/execution on the remote may differ as per the msgType. eg. Amount of lzReceive() gas necessary to deliver a lzCompose() message adds overhead you dont want to pay if you are only making a standard LayerZero message ie. lzReceive() WITHOUT sendCompose().",
        "params": {
          "_enforcedOptions": "An array of EnforcedOptionParam structures specifying enforced options."
        }
      },
      "setPeer(uint32,bytes32)": {
        "details": "Only the owner/admin of the OApp can call this function.Indicates that the peer is trusted to send LayerZero messages to this OApp.Set this to bytes32(0) to remove the peer address.Peer is a bytes32 to accommodate non-evm chains.",
        "params": {
          "_eid": "The endpoint ID.",
          "_peer": "The address of the peer to be associated with the corresponding endpoint."
        }
      },
      "transferOwnership(address)": {
        "details": "Transfers ownership of the contract to a new account (`newOwner`). Can only be called by the current owner."
      }
    },
    "version": 1
  },
  "userdoc": {
    "kind": "user",
    "methods": {
      "allowInitializePath((uint32,bytes32,uint64))": {
        "notice": "Checks if the path initialization is allowed based on the provided origin."
      },
      "combineOptions(uint32,uint16,bytes)": {
        "notice": "Combines options for a given endpoint and message type."
      },
      "endpoint()": {
        "notice": "Retrieves the LayerZero endpoint associated with the OApp."
      },
      "isComposeMsgSender((uint32,bytes32,uint64),bytes,address)": {
        "notice": "Indicates whether an address is an approved composeMsg sender to the Endpoint."
      },
      "nextNonce(uint32,bytes32)": {
        "notice": "Retrieves the next nonce for a given source endpoint and sender address."
      },
      "oAppVersion()": {
        "notice": "Retrieves the OApp version information."
      },
      "peers(uint32)": {
        "notice": "Retrieves the peer (OApp) associated with a corresponding endpoint."
      },
      "setDelegate(address)": {
        "notice": "Sets the delegate address for the OApp."
      },
      "setPeer(uint32,bytes32)": {
        "notice": "Sets the peer address (OApp instance) for a corresponding endpoint."
      }
    },
    "version": 1
  },
  "storageLayout": {
    "storage": [
      {
        "astId": 1686,
        "contract": "contracts/GovernanceControllerOApp.sol:GovernanceControllerOApp",
        "label": "_owner",
        "offset": 0,
        "slot": "0",
        "type": "t_address"
      },
      {
        "astId": 938,
        "contract": "contracts/GovernanceControllerOApp.sol:GovernanceControllerOApp",
        "label": "peers",
        "offset": 0,
        "slot": "1",
        "type": "t_mapping(t_uint32,t_bytes32)"
      },
      {
        "astId": 1534,
        "contract": "contracts/GovernanceControllerOApp.sol:GovernanceControllerOApp",
        "label": "enforcedOptions",
        "offset": 0,
        "slot": "2",
        "type": "t_mapping(t_uint32,t_mapping(t_uint16,t_bytes_storage))"
      },
      {
        "astId": 2480,
        "contract": "contracts/GovernanceControllerOApp.sol:GovernanceControllerOApp",
        "label": "originCaller",
        "offset": 0,
        "slot": "3",
        "type": "t_bytes32"
      }
    ],
    "types": {
      "t_address": {
        "encoding": "inplace",
        "label": "address",
        "numberOfBytes": "20"
      },
      "t_bytes32": {
        "encoding": "inplace",
        "label": "bytes32",
        "numberOfBytes": "32"
      },
      "t_bytes_storage": {
        "encoding": "bytes",
        "label": "bytes",
        "numberOfBytes": "32"
      },
      "t_mapping(t_uint16,t_bytes_storage)": {
        "encoding": "mapping",
        "key": "t_uint16",
        "label": "mapping(uint16 => bytes)",
        "numberOfBytes": "32",
        "value": "t_bytes_storage"
      },
      "t_mapping(t_uint32,t_bytes32)": {
        "encoding": "mapping",
        "key": "t_uint32",
        "label": "mapping(uint32 => bytes32)",
        "numberOfBytes": "32",
        "value": "t_bytes32"
      },
      "t_mapping(t_uint32,t_mapping(t_uint16,t_bytes_storage))": {
        "encoding": "mapping",
        "key": "t_uint32",
        "label": "mapping(uint32 => mapping(uint16 => bytes))",
        "numberOfBytes": "32",
        "value": "t_mapping(t_uint16,t_bytes_storage)"
      },
      "t_uint16": {
        "encoding": "inplace",
        "label": "uint16",
        "numberOfBytes": "2"
      },
      "t_uint32": {
        "encoding": "inplace",
        "label": "uint32",
        "numberOfBytes": "4"
      }
    }
  }
}