{
  "address": "0xBc817352af3298bB9fFE385aB6466334c6B4c5CF",
  "abi": [
    {
      "inputs": [
        {
          "internalType": "address",
          "name": "_endpoint",
          "type": "address"
        },
        {
          "internalType": "address",
          "name": "_delegate",
          "type": "address"
        }
      ],
      "stateMutability": "nonpayable",
      "type": "constructor"
    },
    {
      "inputs": [
        {
          "internalType": "uint8",
          "name": "action",
          "type": "uint8"
        }
      ],
      "name": "InvalidAction",
      "type": "error"
    },
    {
      "inputs": [],
      "name": "InvalidCallDataLength",
      "type": "error"
    },
    {
      "inputs": [],
      "name": "InvalidDelegate",
      "type": "error"
    },
    {
      "inputs": [],
      "name": "InvalidEndpointCall",
      "type": "error"
    },
    {
      "inputs": [],
      "name": "InvalidMessageLength",
      "type": "error"
    },
    {
      "inputs": [],
      "name": "InvalidModule",
      "type": "error"
    },
    {
      "inputs": [
        {
          "internalType": "bytes",
          "name": "options",
          "type": "bytes"
        }
      ],
      "name": "InvalidOptions",
      "type": "error"
    },
    {
      "inputs": [],
      "name": "LzTokenUnavailable",
      "type": "error"
    },
    {
      "inputs": [
        {
          "internalType": "uint32",
          "name": "eid",
          "type": "uint32"
        }
      ],
      "name": "NoPeer",
      "type": "error"
    },
    {
      "inputs": [
        {
          "internalType": "uint256",
          "name": "msgValue",
          "type": "uint256"
        }
      ],
      "name": "NotEnoughNative",
      "type": "error"
    },
    {
      "inputs": [
        {
          "internalType": "address",
          "name": "addr",
          "type": "address"
        }
      ],
      "name": "OnlyEndpoint",
      "type": "error"
    },
    {
      "inputs": [
        {
          "internalType": "uint32",
          "name": "eid",
          "type": "uint32"
        },
        {
          "internalType": "bytes32",
          "name": "sender",
          "type": "bytes32"
        }
      ],
      "name": "OnlyPeer",
      "type": "error"
    },
    {
      "inputs": [
        {
          "internalType": "address",
          "name": "owner",
          "type": "address"
        }
      ],
      "name": "OwnableInvalidOwner",
      "type": "error"
    },
    {
      "inputs": [
        {
          "internalType": "address",
          "name": "account",
          "type": "address"
        }
      ],
      "name": "OwnableUnauthorizedAccount",
      "type": "error"
    },
    {
      "inputs": [
        {
          "internalType": "uint256",
          "name": "length",
          "type": "uint256"
        }
      ],
      "name": "PayloadTooLong",
      "type": "error"
    },
    {
      "inputs": [
        {
          "internalType": "address",
          "name": "token",
          "type": "address"
        }
      ],
      "name": "SafeERC20FailedOperation",
      "type": "error"
    },
    {
      "inputs": [],
      "name": "UnauthorizedOriginCaller",
      "type": "error"
    },
    {
      "anonymous": false,
      "inputs": [
        {
          "components": [
            {
              "internalType": "uint32",
              "name": "eid",
              "type": "uint32"
            },
            {
              "internalType": "uint16",
              "name": "msgType",
              "type": "uint16"
            },
            {
              "internalType": "bytes",
              "name": "options",
              "type": "bytes"
            }
          ],
          "indexed": false,
          "internalType": "struct EnforcedOptionParam[]",
          "name": "_enforcedOptions",
          "type": "tuple[]"
        }
      ],
      "name": "EnforcedOptionSet",
      "type": "event"
    },
    {
      "anonymous": false,
      "inputs": [
        {
          "indexed": true,
          "internalType": "address",
          "name": "previousOwner",
          "type": "address"
        },
        {
          "indexed": true,
          "internalType": "address",
          "name": "newOwner",
          "type": "address"
        }
      ],
      "name": "OwnershipTransferred",
      "type": "event"
    },
    {
      "anonymous": false,
      "inputs": [
        {
          "indexed": false,
          "internalType": "uint32",
          "name": "eid",
          "type": "uint32"
        },
        {
          "indexed": false,
          "internalType": "bytes32",
          "name": "peer",
          "type": "bytes32"
        }
      ],
      "name": "PeerSet",
      "type": "event"
    },
    {
      "inputs": [],
      "name": "SEND",
      "outputs": [
        {
          "internalType": "uint16",
          "name": "",
          "type": "uint16"
        }
      ],
      "stateMutability": "view",
      "type": "function"
    },
    {
      "inputs": [
        {
          "components": [
            {
              "internalType": "uint32",
              "name": "srcEid",
              "type": "uint32"
            },
            {
              "internalType": "bytes32",
              "name": "sender",
              "type": "bytes32"
            },
            {
              "internalType": "uint64",
              "name": "nonce",
              "type": "uint64"
            }
          ],
          "internalType": "struct Origin",
          "name": "origin",
          "type": "tuple"
        }
      ],
      "name": "allowInitializePath",
      "outputs": [
        {
          "internalType": "bool",
          "name": "",
          "type": "bool"
        }
      ],
      "stateMutability": "view",
      "type": "function"
    },
    {
      "inputs": [
        {
          "internalType": "uint32",
          "name": "_eid",
          "type": "uint32"
        },
        {
          "internalType": "uint16",
          "name": "_msgType",
          "type": "uint16"
        },
        {
          "internalType": "bytes",
          "name": "_extraOptions",
          "type": "bytes"
        }
      ],
      "name": "combineOptions",
      "outputs": [
        {
          "internalType": "bytes",
          "name": "",
          "type": "bytes"
        }
      ],
      "stateMutability": "view",
      "type": "function"
    },
    {
      "inputs": [],
      "name": "endpoint",
      "outputs": [
        {
          "internalType": "contract ILayerZeroEndpointV2",
          "name": "",
          "type": "address"
        }
      ],
      "stateMutability": "view",
      "type": "function"
    },
    {
      "inputs": [
        {
          "internalType": "uint32",
          "name": "eid",
          "type": "uint32"
        },
        {
          "internalType": "uint16",
          "name": "msgType",
          "type": "uint16"
        }
      ],
      "name": "enforcedOptions",
      "outputs": [
        {
          "internalType": "bytes",
          "name": "enforcedOption",
          "type": "bytes"
        }
      ],
      "stateMutability": "view",
      "type": "function"
    },
    {
      "inputs": [
        {
          "components": [
            {
              "internalType": "uint32",
              "name": "srcEid",
              "type": "uint32"
            },
            {
              "internalType": "bytes32",
              "name": "sender",
              "type": "bytes32"
            },
            {
              "internalType": "uint64",
              "name": "nonce",
              "type": "uint64"
            }
          ],
          "internalType": "struct Origin",
          "name": "",
          "type": "tuple"
        },
        {
          "internalType": "bytes",
          "name": "",
          "type": "bytes"
        },
        {
          "internalType": "address",
          "name": "_sender",
          "type": "address"
        }
      ],
      "name": "isComposeMsgSender",
      "outputs": [
        {
          "internalType": "bool",
          "name": "",
          "type": "bool"
        }
      ],
      "stateMutability": "view",
      "type": "function"
    },
    {
      "inputs": [
        {
          "components": [
            {
              "internalType": "uint32",
              "name": "srcEid",
              "type": "uint32"
            },
            {
              "internalType": "bytes32",
              "name": "sender",
              "type": "bytes32"
            },
            {
              "internalType": "uint64",
              "name": "nonce",
              "type": "uint64"
            }
          ],
          "internalType": "struct Origin",
          "name": "_origin",
          "type": "tuple"
        },
        {
          "internalType": "bytes32",
          "name": "_guid",
          "type": "bytes32"
        },
        {
          "internalType": "bytes",
          "name": "_message",
          "type": "bytes"
        },
        {
          "internalType": "address",
          "name": "_executor",
          "type": "address"
        },
        {
          "internalType": "bytes",
          "name": "_extraData",
          "type": "bytes"
        }
      ],
      "name": "lzReceive",
      "outputs": [],
      "stateMutability": "payable",
      "type": "function"
    },
    {
      "inputs": [],
      "name": "messageOrigin",
      "outputs": [
        {
          "internalType": "uint32",
          "name": "eid",
          "type": "uint32"
        },
        {
          "internalType": "bytes32",
          "name": "caller",
          "type": "bytes32"
        }
      ],
      "stateMutability": "view",
      "type": "function"
    },
    {
      "inputs": [
        {
          "internalType": "uint32",
          "name": "",
          "type": "uint32"
        },
        {
          "internalType": "bytes32",
          "name": "",
          "type": "bytes32"
        }
      ],
      "name": "nextNonce",
      "outputs": [
        {
          "internalType": "uint64",
          "name": "nonce",
          "type": "uint64"
        }
      ],
      "stateMutability": "view",
      "type": "function"
    },
    {
      "inputs": [],
      "name": "oAppVersion",
      "outputs": [
        {
          "internalType": "uint64",
          "name": "senderVersion",
          "type": "uint64"
        },
        {
          "internalType": "uint64",
          "name": "receiverVersion",
          "type": "uint64"
        }
      ],
      "stateMutability": "pure",
      "type": "function"
    },
    {
      "inputs": [],
      "name": "owner",
      "outputs": [
        {
          "internalType": "address",
          "name": "",
          "type": "address"
        }
      ],
      "stateMutability": "view",
      "type": "function"
    },
    {
      "inputs": [
        {
          "internalType": "uint32",
          "name": "eid",
          "type": "uint32"
        }
      ],
      "name": "peers",
      "outputs": [
        {
          "internalType": "bytes32",
          "name": "peer",
          "type": "bytes32"
        }
      ],
      "stateMutability": "view",
      "type": "function"
    },
    {
      "inputs": [
        {
          "components": [
            {
              "internalType": "uint8",
              "name": "action",
              "type": "uint8"
            },
            {
              "internalType": "uint32",
              "name": "dstEid",
              "type": "uint32"
            },
            {
              "internalType": "bytes32",
              "name": "originCaller",
              "type": "bytes32"
            },
            {
              "internalType": "address",
              "name": "governedContract",
              "type": "address"
            },
            {
              "internalType": "bytes",
              "name": "callData",
              "type": "bytes"
            }
          ],
          "internalType": "struct GovernanceMessageEVMCodec.GovernanceMessage",
          "name": "_message",
          "type": "tuple"
        },
        {
          "internalType": "bytes",
          "name": "_extraOptions",
          "type": "bytes"
        },
        {
          "internalType": "bool",
          "name": "_payInLzToken",
          "type": "bool"
        }
      ],
      "name": "quoteEVMAction",
      "outputs": [
        {
          "components": [
            {
              "internalType": "uint256",
              "name": "nativeFee",
              "type": "uint256"
            },
            {
              "internalType": "uint256",
              "name": "lzTokenFee",
              "type": "uint256"
            }
          ],
          "internalType": "struct MessagingFee",
          "name": "fee",
          "type": "tuple"
        }
      ],
      "stateMutability": "view",
      "type": "function"
    },
    {
      "inputs": [
        {
          "internalType": "bytes",
          "name": "_message",
          "type": "bytes"
        },
        {
          "internalType": "bytes",
          "name": "_extraOptions",
          "type": "bytes"
        },
        {
          "internalType": "bool",
          "name": "_payInLzToken",
          "type": "bool"
        }
      ],
      "name": "quoteRawBytesAction",
      "outputs": [
        {
          "components": [
            {
              "internalType": "uint256",
              "name": "nativeFee",
              "type": "uint256"
            },
            {
              "internalType": "uint256",
              "name": "lzTokenFee",
              "type": "uint256"
            }
          ],
          "internalType": "struct MessagingFee",
          "name": "fee",
          "type": "tuple"
        }
      ],
      "stateMutability": "view",
      "type": "function"
    },
    {
      "inputs": [],
      "name": "renounceOwnership",
      "outputs": [],
      "stateMutability": "nonpayable",
      "type": "function"
    },
    {
      "inputs": [
        {
          "components": [
            {
              "internalType": "uint8",
              "name": "action",
              "type": "uint8"
            },
            {
              "internalType": "uint32",
              "name": "dstEid",
              "type": "uint32"
            },
            {
              "internalType": "bytes32",
              "name": "originCaller",
              "type": "bytes32"
            },
            {
              "internalType": "address",
              "name": "governedContract",
              "type": "address"
            },
            {
              "internalType": "bytes",
              "name": "callData",
              "type": "bytes"
            }
          ],
          "internalType": "struct GovernanceMessageEVMCodec.GovernanceMessage",
          "name": "_message",
          "type": "tuple"
        },
        {
          "internalType": "bytes",
          "name": "_extraOptions",
          "type": "bytes"
        },
        {
          "components": [
            {
              "internalType": "uint256",
              "name": "nativeFee",
              "type": "uint256"
            },
            {
              "internalType": "uint256",
              "name": "lzTokenFee",
              "type": "uint256"
            }
          ],
          "internalType": "struct MessagingFee",
          "name": "_fee",
          "type": "tuple"
        },
        {
          "internalType": "address",
          "name": "_refundAddress",
          "type": "address"
        }
      ],
      "name": "sendEVMAction",
      "outputs": [
        {
          "components": [
            {
              "internalType": "bytes32",
              "name": "guid",
              "type": "bytes32"
            },
            {
              "internalType": "uint64",
              "name": "nonce",
              "type": "uint64"
            },
            {
              "components": [
                {
                  "internalType": "uint256",
                  "name": "nativeFee",
                  "type": "uint256"
                },
                {
                  "internalType": "uint256",
                  "name": "lzTokenFee",
                  "type": "uint256"
                }
              ],
              "internalType": "struct MessagingFee",
              "name": "fee",
              "type": "tuple"
            }
          ],
          "internalType": "struct MessagingReceipt",
          "name": "receipt",
          "type": "tuple"
        }
      ],
      "stateMutability": "payable",
      "type": "function"
    },
    {
      "inputs": [
        {
          "internalType": "bytes",
          "name": "_message",
          "type": "bytes"
        },
        {
          "internalType": "bytes",
          "name": "_extraOptions",
          "type": "bytes"
        },
        {
          "components": [
            {
              "internalType": "uint256",
              "name": "nativeFee",
              "type": "uint256"
            },
            {
              "internalType": "uint256",
              "name": "lzTokenFee",
              "type": "uint256"
            }
          ],
          "internalType": "struct MessagingFee",
          "name": "_fee",
          "type": "tuple"
        },
        {
          "internalType": "address",
          "name": "_refundAddress",
          "type": "address"
        }
      ],
      "name": "sendRawBytesAction",
      "outputs": [
        {
          "components": [
            {
              "internalType": "bytes32",
              "name": "guid",
              "type": "bytes32"
            },
            {
              "internalType": "uint64",
              "name": "nonce",
              "type": "uint64"
            },
            {
              "components": [
                {
                  "internalType": "uint256",
                  "name": "nativeFee",
                  "type": "uint256"
                },
                {
                  "internalType": "uint256",
                  "name": "lzTokenFee",
                  "type": "uint256"
                }
              ],
              "internalType": "struct MessagingFee",
              "name": "fee",
              "type": "tuple"
            }
          ],
          "internalType": "struct MessagingReceipt",
          "name": "receipt",
          "type": "tuple"
        }
      ],
      "stateMutability": "payable",
      "type": "function"
    },
    {
      "inputs": [
        {
          "internalType": "address",
          "name": "_delegate",
          "type": "address"
        }
      ],
      "name": "setDelegate",
      "outputs": [],
      "stateMutability": "nonpayable",
      "type": "function"
    },
    {
      "inputs": [
        {
          "components": [
            {
              "internalType": "uint32",
              "name": "eid",
              "type": "uint32"
            },
            {
              "internalType": "uint16",
              "name": "msgType",
              "type": "uint16"
            },
            {
              "internalType": "bytes",
              "name": "options",
              "type": "bytes"
            }
          ],
          "internalType": "struct EnforcedOptionParam[]",
          "name": "_enforcedOptions",
          "type": "tuple[]"
        }
      ],
      "name": "setEnforcedOptions",
      "outputs": [],
      "stateMutability": "nonpayable",
      "type": "function"
    },
    {
      "inputs": [
        {
          "internalType": "uint32",
          "name": "_eid",
          "type": "uint32"
        },
        {
          "internalType": "bytes32",
          "name": "_peer",
          "type": "bytes32"
        }
      ],
      "name": "setPeer",
      "outputs": [],
      "stateMutability": "nonpayable",
      "type": "function"
    },
    {
      "inputs": [
        {
          "internalType": "address",
          "name": "newOwner",
          "type": "address"
        }
      ],
      "name": "transferOwnership",
      "outputs": [],
      "stateMutability": "nonpayable",
      "type": "function"
    }
  ],
  "transactionHash": "0xe00e082d368e804da208e737497311e3f8d82eafedad7ff2706f16113017072f",
  "args": [
    "0x6EDCE65403992e310A62460808c4b910D972f10f",
    "0x0804a6e2798F42C7F3c97215DdF958d5500f8ec8"
  ],
  "numDeployments": 1,
  "solcInputHash": "0112eb18e251cd85299e3a3a1613fad4",
  "bytecode": "0x60a06040523480156200001157600080fd5b506040516200291f3803806200291f83398101604081905262000034916200017c565b81818181806001600160a01b0381166200006857604051631e4fbdf760e01b81526000600482015260240160405180910390fd5b62000073816200010f565b506001600160a01b038083166080528116620000a257604051632d618d8160e21b815260040160405180910390fd5b60805160405163ca5eb5e160e01b81526001600160a01b0383811660048301529091169063ca5eb5e190602401600060405180830381600087803b158015620000ea57600080fd5b505af1158015620000ff573d6000803e3d6000fd5b50505050505050505050620001b4565b600080546001600160a01b038381166001600160a01b0319831681178455604051919092169283917f8be0079c531659141344cd1fd0a4f28419497f9722a3daafe3b4186f6b6457e09190a35050565b80516001600160a01b03811681146200017757600080fd5b919050565b600080604083850312156200019057600080fd5b6200019b836200015f565b9150620001ab602084016200015f565b90509250929050565b608051612725620001fa600039600081816102b3015281816104c30152818161090501528181610a2a015281816115d1015281816116ca015261178101526127256000f3fe60806040526004361061012a5760003560e01c80635e280f11116100ab578063b98bd0701161006f578063b98bd07014610397578063bb0b6a53146103b7578063bc70b354146103f2578063ca5eb5e114610412578063f2fde38b14610432578063ff7bd03d1461045257600080fd5b80635e280f11146102a1578063715018a6146102ed5780637d25a05e1461030257806382413eac1461033a5780638da5cb5b1461037957600080fd5b80633400288b116100f25780633400288b146101e45780633b1623fe146102045780633f2820e9146102415780635535d461146102615780635dee0d051461028e57600080fd5b80630839de281461012f57806313137d651461016557806317442b701461017a5780631f5e13341461019c5780632505b38e146101c4575b600080fd5b34801561013b57600080fd5b5061014f61014a36600461192b565b610472565b60405161015c91906119a5565b60405180910390f35b6101786101733660046119e3565b6104c1565b005b34801561018657600080fd5b506040805160018152600260208201520161015c565b3480156101a857600080fd5b506101b1600181565b60405161ffff909116815260200161015c565b3480156101d057600080fd5b5061014f6101df366004611a82565b610581565b3480156101f057600080fd5b506101786101ff366004611b16565b610604565b34801561021057600080fd5b506003546004546102259163ffffffff169082565b6040805163ffffffff909316835260208301919091520161015c565b61025461024f366004611b52565b61061a565b60405161015c9190611be6565b34801561026d57600080fd5b5061028161027c366004611c3a565b61063b565b60405161015c9190611cbd565b61025461029c366004611cd0565b6106e0565b3480156102ad57600080fd5b506102d57f000000000000000000000000000000000000000000000000000000000000000081565b6040516001600160a01b03909116815260200161015c565b3480156102f957600080fd5b506101786106ff565b34801561030e57600080fd5b5061032261031d366004611b16565b610713565b6040516001600160401b03909116815260200161015c565b34801561034657600080fd5b50610369610355366004611d60565b6001600160a01b0381163014949350505050565b604051901515815260200161015c565b34801561038557600080fd5b506000546001600160a01b03166102d5565b3480156103a357600080fd5b506101786103b2366004611dc6565b61071c565b3480156103c357600080fd5b506103e46103d2366004611e3a565b60016020526000908152604090205481565b60405190815260200161015c565b3480156103fe57600080fd5b5061028161040d366004611e55565b610736565b34801561041e57600080fd5b5061017861042d366004611eb5565b6108de565b34801561043e57600080fd5b5061017861044d366004611eb5565b610964565b34801561045e57600080fd5b5061036961046d366004611ed2565b6109a2565b60408051808201909152600080825260208201526000806104948787876109d8565b90925090506104b46104ac6040890160208a01611e3a565b838387610a14565b925050505b949350505050565b7f00000000000000000000000000000000000000000000000000000000000000006001600160a01b03163314610511576040516391ac5e4f60e01b81523360048201526024015b60405180910390fd5b6020870180359061052b90610526908a611e3a565b610af5565b146105695761053d6020880188611e3a565b60405163309afaf360e21b815263ffffffff909116600482015260208801356024820152604401610508565b61057887878787878787610b31565b50505050505050565b604080518082019091526000808252602082015260006105a18787610c74565b905060006105b28260018888610736565b90506105f88289898080601f016020809104026020016040519081016040528093929190818152602001838380828437600092019190915250869250899150610a149050565b98975050505050505050565b61060c610cd7565b6106168282610d04565b5050565b61062261186f565b610630878787878787610d59565b979650505050505050565b60026020908152600092835260408084209091529082529020805461065f90611eee565b80601f016020809104026020016040519081016040528092919081815260200182805461068b90611eee565b80156106d85780601f106106ad576101008083540402835291602001916106d8565b820191906000526020600020905b8154815290600101906020018083116106bb57829003601f168201915b505050505081565b6106e861186f565b6106f58686868686610e10565b9695505050505050565b610707610cd7565b6107116000610ebe565b565b60005b92915050565b610724610cd7565b6106166107318284612021565b610f0e565b63ffffffff8416600090815260026020908152604080832061ffff8716845290915281208054606092919061076a90611eee565b80601f016020809104026020016040519081016040528092919081815260200182805461079690611eee565b80156107e35780601f106107b8576101008083540402835291602001916107e3565b820191906000526020600020905b8154815290600101906020018083116107c657829003601f168201915b5050505050905080516000036108335783838080601f0160208091040260200160405190810160405280939291908181526020018383808284376000920191909152509294506104b99350505050565b60008390036108435790506104b9565b600283106108c15761088a84848080601f01602080910402602001604051908101604052809392919081815260200183838082843760009201919091525061102092505050565b8061089884600281886120f6565b6040516020016108aa93929190612120565b6040516020818303038152906040529150506104b9565b8383604051639a6d49cd60e01b8152600401610508929190612148565b6108e6610cd7565b60405163ca5eb5e160e01b81526001600160a01b0382811660048301527f0000000000000000000000000000000000000000000000000000000000000000169063ca5eb5e190602401600060405180830381600087803b15801561094957600080fd5b505af115801561095d573d6000803e3d6000fd5b5050505050565b61096c610cd7565b6001600160a01b03811661099657604051631e4fbdf760e01b815260006004820152602401610508565b61099f81610ebe565b50565b60006020820180359060019083906109ba9086611e3a565b63ffffffff1681526020810191909152604001600020541492915050565b6060806109ec6109e786612188565b61104c565b9150610a0a610a016040870160208801611e3a565b60018686610736565b9050935093915050565b60408051808201909152600080825260208201527f00000000000000000000000000000000000000000000000000000000000000006001600160a01b031663ddc28c586040518060a001604052808863ffffffff168152602001610a7789610af5565b8152602001878152602001868152602001851515815250306040518363ffffffff1660e01b8152600401610aac92919061222a565b6040805180830381865afa158015610ac8573d6000803e3d6000fd5b505050506040513d601f19601f82011682018060405250810190610aec91906122d3565b95945050505050565b63ffffffff8116600090815260016020526040812054806107165760405163f6ff4fb760e01b815263ffffffff84166004820152602401610508565b6000610b3d86866110e1565b805190915060ff16600114610b6d5780516040516317949c6760e11b815260ff9091166004820152602401610508565b6040805180820190915280610b8560208b018b611e3a565b63ffffffff908116825260408481015160209384015283516003805463ffffffff1916919093161790915591015160045560608201516080830151915160009283926001600160a01b031691610bdb91906122ef565b6000604051808303816000865af19150503d8060008114610c18576040519150601f19603f3d011682016040523d82523d6000602084013e610c1d565b606091505b509150915081610c41578060405162461bcd60e51b81526004016105089190611cbd565b505060408051808201909152600080825260209091018190526003805463ffffffff191690556004555050505050505050565b60008282610c83836020612321565b610c8e906001612321565b60ff1690610c9e60006020612321565b610ca9906001612321565b610cb4906004612321565b60ff1692610cc4939291906120f6565b610ccd9161233a565b60e01c9392505050565b6000546001600160a01b031633146107115760405163118cdaa760e01b8152336004820152602401610508565b63ffffffff8216600081815260016020908152604091829020849055815192835282018390527f238399d427b947898edb290f5ff0f9109849b1c3ba196a42e35f00c50a54b98b910160405180910390a15050565b610d6161186f565b33610d6c8888611522565b6001600160a01b031614610d925760405162961f7560e51b815260040160405180910390fd5b6000610d9e8888610c74565b90506000610daf8260018989610736565b9050610e03828a8a8080601f016020809104026020016040519081016040528093929190818152602001838380828437600092019190915250869250610dfd915050368a90038a018a61236a565b8861159e565b9998505050505050505050565b610e1861186f565b6001610e27602088018861239c565b60ff1614610e5b57610e3c602087018761239c565b6040516317949c6760e11b815260ff9091166004820152602401610508565b3360408701356001600160a01b031614610e875760405162961f7560e51b815260040160405180910390fd5b600080610e958888886109d8565b90925090506105f8610ead60408a0160208b01611e3a565b8383610dfd368a90038a018a61236a565b600080546001600160a01b038381166001600160a01b0319831681178455604051919092169283917f8be0079c531659141344cd1fd0a4f28419497f9722a3daafe3b4186f6b6457e09190a35050565b60005b8151811015610fe557610f40828281518110610f2f57610f2f6123b7565b602002602001015160400151611020565b818181518110610f5257610f526123b7565b60200260200101516040015160026000848481518110610f7457610f746123b7565b60200260200101516000015163ffffffff1663ffffffff1681526020019081526020016000206000848481518110610fae57610fae6123b7565b60200260200101516020015161ffff1661ffff1681526020019081526020016000209081610fdc919061241e565b50600101610f11565b507fbe4864a8e820971c0247f5992e2da559595f7bf076a21cb5928d443d2a13b6748160405161101591906124dd565b60405180910390a150565b600281015161ffff81166003146106165781604051639a6d49cd60e01b81526004016105089190611cbd565b606061ffff801682608001515111156110815781608001515160405163a341969160e01b815260040161050891815260200190565b6080820151805183516020808601516040808801516060890151915195966110ca967747656e6572616c507572706f7365476f7665726e616e6365969592939289929101612568565b604051602081830303815290604052915050919050565b6040805160a081018252600080825260208083018290529282018190526060808301829052608083015290916111179190612321565b611122906001612321565b61112d906004612321565b611138906020612321565b611143906014612321565b61114e906002612321565b60ff1682101561117157604051638d0242c960e01b815260040160405180910390fd5b7747656e6572616c507572706f7365476f7665726e616e636583600084611199826020612321565b60ff16926111a9939291906120f6565b6111b2916125e2565b146111d057604051631bb2296560e31b815260040160405180910390fd5b82826111de60006020612321565b60ff168181106111f0576111f06123b7565b919091013560f81c825250828261120960006020612321565b611214906001612321565b60ff169061122460006020612321565b61122f906001612321565b61123a906004612321565b60ff169261124a939291906120f6565b6112539161233a565b60e01c6020808301919091528390839061126f90600090612321565b61127a906001612321565b611285906004612321565b60ff169061129560006020612321565b6112a0906001612321565b6112ab906004612321565b6112b6906020612321565b60ff16926112c6939291906120f6565b6112cf916125e2565b604082015282826112e260006020612321565b6112ed906001612321565b6112f8906004612321565b611303906020612321565b60ff169061131360006020612321565b61131e906001612321565b611329906004612321565b611334906020612321565b61133f906014612321565b61134a906002612321565b60ff169261135a939291906120f6565b61136391612600565b606090811c908201526000838361137b836020612321565b611386906001612321565b611391906004612321565b61139c906020612321565b6113a7906014612321565b60ff16906113b760006020612321565b6113c2906001612321565b6113cd906004612321565b6113d8906020612321565b6113e3906014612321565b6113ee906002612321565b6113f9906002612321565b60ff1692611409939291906120f6565b61141291612633565b60f01c90508061142460006020612321565b61142f906001612321565b61143a906004612321565b611445906020612321565b611450906014612321565b61145b906002612321565b60ff166114689190612661565b61ffff16831461148b57604051630249dd0d60e51b815260040160405180910390fd5b838361149960006020612321565b6114a4906001612321565b6114af906004612321565b6114ba906020612321565b6114c5906014612321565b6114d0906002612321565b60ff169080926114e2939291906120f6565b8080601f01602080910402602001604051908101604052809392919081815260200183838082843760009201919091525050505060808301525092915050565b60006115978383611534846020612321565b61153f906001612321565b61154a906004612321565b60ff169061155a60006020612321565b611565906001612321565b611570906004612321565b61157b906020612321565b60ff169261158b939291906120f6565b611594916125e2565b90565b9392505050565b6115a661186f565b60006115b5846000015161169e565b6020850151909150156115cf576115cf84602001516116c6565b7f00000000000000000000000000000000000000000000000000000000000000006001600160a01b0316632637a450826040518060a001604052808b63ffffffff16815260200161161f8c610af5565b81526020018a815260200189815260200160008960200151111515815250866040518463ffffffff1660e01b815260040161165b92919061222a565b60806040518083038185885af1158015611679573d6000803e3d6000fd5b50505050506040513d601f19601f82011682018060405250810190610630919061267c565b60008134146116c2576040516304fb820960e51b8152346004820152602401610508565b5090565b60007f00000000000000000000000000000000000000000000000000000000000000006001600160a01b031663e4fe1d946040518163ffffffff1660e01b8152600401602060405180830381865afa158015611726573d6000803e3d6000fd5b505050506040513d601f19601f8201168201806040525081019061174a91906126d2565b90506001600160a01b038116611773576040516329b99a9560e11b815260040160405180910390fd5b6040805133602482018190527f00000000000000000000000000000000000000000000000000000000000000006001600160a01b03818116604485015260648085018890528551808603909101815260849094019094526020830180516001600160e01b03166323b872dd60e01b1790526106169385169286906117f89085906117fe565b50505050565b600080602060008451602086016000885af180611821576040513d6000823e3d81fd5b50506000513d91508115611839578060011415611846565b6001600160a01b0384163b155b156117f857604051635274afe760e01b81526001600160a01b0385166004820152602401610508565b60405180606001604052806000801916815260200160006001600160401b031681526020016118b1604051806040016040528060008152602001600081525090565b905290565b600060a082840312156118c857600080fd5b50919050565b60008083601f8401126118e057600080fd5b5081356001600160401b038111156118f757600080fd5b60208301915083602082850101111561190f57600080fd5b9250929050565b8035801515811461192657600080fd5b919050565b6000806000806060858703121561194157600080fd5b84356001600160401b038082111561195857600080fd5b611964888389016118b6565b9550602087013591508082111561197a57600080fd5b50611987878288016118ce565b909450925061199a905060408601611916565b905092959194509250565b815181526020808301519082015260408101610716565b6000606082840312156118c857600080fd5b6001600160a01b038116811461099f57600080fd5b600080600080600080600060e0888a0312156119fe57600080fd5b611a0889896119bc565b96506060880135955060808801356001600160401b0380821115611a2b57600080fd5b611a378b838c016118ce565b909750955060a08a01359150611a4c826119ce565b90935060c08901359080821115611a6257600080fd5b50611a6f8a828b016118ce565b989b979a50959850939692959293505050565b600080600080600060608688031215611a9a57600080fd5b85356001600160401b0380821115611ab157600080fd5b611abd89838a016118ce565b90975095506020880135915080821115611ad657600080fd5b50611ae3888289016118ce565b9094509250611af6905060408701611916565b90509295509295909350565b803563ffffffff8116811461192657600080fd5b60008060408385031215611b2957600080fd5b611b3283611b02565b946020939093013593505050565b6000604082840312156118c857600080fd5b60008060008060008060a08789031215611b6b57600080fd5b86356001600160401b0380821115611b8257600080fd5b611b8e8a838b016118ce565b90985096506020890135915080821115611ba757600080fd5b50611bb489828a016118ce565b9095509350611bc890508860408901611b40565b91506080870135611bd8816119ce565b809150509295509295509295565b6000608082019050825182526001600160401b0360208401511660208301526040830151611c21604084018280518252602090810151910152565b5092915050565b803561ffff8116811461192657600080fd5b60008060408385031215611c4d57600080fd5b611c5683611b02565b9150611c6460208401611c28565b90509250929050565b60005b83811015611c88578181015183820152602001611c70565b50506000910152565b60008151808452611ca9816020860160208601611c6d565b601f01601f19169290920160200192915050565b6020815260006115976020830184611c91565b600080600080600060a08688031215611ce857600080fd5b85356001600160401b0380821115611cff57600080fd5b611d0b89838a016118b6565b96506020880135915080821115611d2157600080fd5b50611d2e888289016118ce565b9095509350611d4290508760408801611b40565b91506080860135611d52816119ce565b809150509295509295909350565b60008060008060a08587031215611d7657600080fd5b611d8086866119bc565b935060608501356001600160401b03811115611d9b57600080fd5b611da7878288016118ce565b9094509250506080850135611dbb816119ce565b939692955090935050565b60008060208385031215611dd957600080fd5b82356001600160401b0380821115611df057600080fd5b818501915085601f830112611e0457600080fd5b813581811115611e1357600080fd5b8660208260051b8501011115611e2857600080fd5b60209290920196919550909350505050565b600060208284031215611e4c57600080fd5b61159782611b02565b60008060008060608587031215611e6b57600080fd5b611e7485611b02565b9350611e8260208601611c28565b925060408501356001600160401b03811115611e9d57600080fd5b611ea9878288016118ce565b95989497509550505050565b600060208284031215611ec757600080fd5b8135611597816119ce565b600060608284031215611ee457600080fd5b61159783836119bc565b600181811c90821680611f0257607f821691505b6020821081036118c857634e487b7160e01b600052602260045260246000fd5b634e487b7160e01b600052604160045260246000fd5b604051606081016001600160401b0381118282101715611f5a57611f5a611f22565b60405290565b604080519081016001600160401b0381118282101715611f5a57611f5a611f22565b604051601f8201601f191681016001600160401b0381118282101715611faa57611faa611f22565b604052919050565b600082601f830112611fc357600080fd5b81356001600160401b03811115611fdc57611fdc611f22565b611fef601f8201601f1916602001611f82565b81815284602083860101111561200457600080fd5b816020850160208301376000918101602001919091529392505050565b60006001600160401b038084111561203b5761203b611f22565b8360051b602061204c818301611f82565b86815291850191818101903684111561206457600080fd5b865b848110156120ea5780358681111561207e5760008081fd5b880160603682900312156120925760008081fd5b61209a611f38565b6120a382611b02565b81526120b0868301611c28565b86820152604080830135898111156120c85760008081fd5b6120d436828601611fb2565b9183019190915250845250918301918301612066565b50979650505050505050565b6000808585111561210657600080fd5b8386111561211357600080fd5b5050820193919092039150565b60008451612132818460208901611c6d565b8201838582376000930192835250909392505050565b60208152816020820152818360408301376000818301604090810191909152601f909201601f19160101919050565b803560ff8116811461192657600080fd5b600060a0823603121561219a57600080fd5b60405160a081016001600160401b0382821081831117156121bd576121bd611f22565b816040526121ca85612177565b83526121d860208601611b02565b602084015260408501356040840152606085013591506121f7826119ce565b816060840152608085013591508082111561221157600080fd5b5061221e36828601611fb2565b60808301525092915050565b6040815263ffffffff8351166040820152602083015160608201526000604084015160a0608084015261226060e0840182611c91565b90506060850151603f198483030160a085015261227d8282611c91565b60809690960151151560c08501525050506001600160a01b039190911660209091015290565b6000604082840312156122b557600080fd5b6122bd611f60565b9050815181526020820151602082015292915050565b6000604082840312156122e557600080fd5b61159783836122a3565b60008251612301818460208701611c6d565b9190910192915050565b634e487b7160e01b600052601160045260246000fd5b60ff81811683821601908111156107165761071661230b565b6001600160e01b031981358181169160048510156123625780818660040360031b1b83161692505b505092915050565b60006040828403121561237c57600080fd5b612384611f60565b82358152602083013560208201528091505092915050565b6000602082840312156123ae57600080fd5b61159782612177565b634e487b7160e01b600052603260045260246000fd5b601f821115612419576000816000526020600020601f850160051c810160208610156123f65750805b601f850160051c820191505b8181101561241557828155600101612402565b5050505b505050565b81516001600160401b0381111561243757612437611f22565b61244b816124458454611eee565b846123cd565b602080601f83116001811461248057600084156124685750858301515b600019600386901b1c1916600185901b178555612415565b600085815260208120601f198616915b828110156124af57888601518255948401946001909101908401612490565b50858210156124cd5787850151600019600388901b60f8161c191681555b5050505050600190811b01905550565b600060208083018184528085518083526040925060408601915060408160051b87010184880160005b8381101561255a57888303603f190185528151805163ffffffff1684528781015161ffff1688850152860151606087850181905261254681860183611c91565b968901969450505090860190600101612506565b509098975050505050505050565b87815260ff60f81b8760f81b16602082015263ffffffff60e01b8660e01b1660218201528460258201526bffffffffffffffffffffffff198460601b16604582015261ffff60f01b8360f01b166059820152600082516125cf81605b850160208701611c6d565b91909101605b0198975050505050505050565b8035602083101561071657600019602084900360031b1b1692915050565b6bffffffffffffffffffffffff1981358181169160148510156123625760149490940360031b84901b1690921692915050565b6001600160f01b031981358181169160028510156123625760029490940360031b84901b1690921692915050565b61ffff818116838216019080821115611c2157611c2161230b565b60006080828403121561268e57600080fd5b612696611f38565b8251815260208301516001600160401b03811681146126b457600080fd5b60208201526126c684604085016122a3565b60408201529392505050565b6000602082840312156126e457600080fd5b8151611597816119ce56fea2646970667358221220b95426026545b2e5696be20e721693527db4fcdfd1012a48b910a466a1be42c964736f6c63430008160033",
  "devdoc": {
    "errors": {
      "OwnableInvalidOwner(address)": [
        {
          "details": "The owner is not a valid owner account. (eg. `address(0)`)"
        }
      ],
      "OwnableUnauthorizedAccount(address)": [
        {
          "details": "The caller account is not authorized to perform an operation."
        }
      ],
      "SafeERC20FailedOperation(address)": [
        {
          "details": "An operation with an ERC-20 token failed."
        }
      ]
    },
    "kind": "dev",
    "methods": {
      "allowInitializePath((uint32,bytes32,uint64))": {
        "details": "This indicates to the endpoint that the OApp has enabled msgs for this particular path to be received.This defaults to assuming if a peer has been set, its initialized. Can be overridden by the OApp if there is other logic to determine this.",
        "params": {
          "origin": "The origin information containing the source endpoint and sender address."
        },
        "returns": {
          "_0": "Whether the path has been initialized."
        }
      },
      "combineOptions(uint32,uint16,bytes)": {
        "details": "If there is an enforced lzReceive option: - {gasLimit: 200k, msg.value: 1 ether} AND a caller supplies a lzReceive option: {gasLimit: 100k, msg.value: 0.5 ether} - The resulting options will be {gasLimit: 300k, msg.value: 1.5 ether} when the message is executed on the remote lzReceive() function.This presence of duplicated options is handled off-chain in the verifier/executor.",
        "params": {
          "_eid": "The endpoint ID.",
          "_extraOptions": "Additional options passed by the caller.",
          "_msgType": "The OAPP message type."
        },
        "returns": {
          "_0": "options The combination of caller specified options AND enforced options."
        }
      },
      "isComposeMsgSender((uint32,bytes32,uint64),bytes,address)": {
        "details": "_origin The origin information containing the source endpoint and sender address.  - srcEid: The source chain endpoint ID.  - sender: The sender address on the src chain.  - nonce: The nonce of the message._message The lzReceive payload.Applications can optionally choose to implement separate composeMsg senders that are NOT the bridging layer.The default sender IS the OAppReceiver implementer.",
        "params": {
          "_sender": "The sender address."
        },
        "returns": {
          "_0": "isSender Is a valid sender."
        }
      },
      "lzReceive((uint32,bytes32,uint64),bytes32,bytes,address,bytes)": {
        "details": "Entry point for receiving messages or packets from the endpoint.Entry point for receiving msg/packet from the LayerZero endpoint.",
        "params": {
          "_executor": "The address of the executor for the received message.",
          "_extraData": "Additional arbitrary data provided by the corresponding executor.",
          "_guid": "The unique identifier for the received LayerZero message.",
          "_message": "The payload of the received message.",
          "_origin": "The origin information containing the source endpoint and sender address.  - srcEid: The source chain endpoint ID.  - sender: The sender address on the src chain.  - nonce: The nonce of the message."
        }
      },
      "nextNonce(uint32,bytes32)": {
        "details": "_srcEid The source endpoint ID._sender The sender address.The path nonce starts from 1. If 0 is returned it means that there is NO nonce ordered enforcement.Is required by the off-chain executor to determine the OApp expects msg execution is ordered.This is also enforced by the OApp.By default this is NOT enabled. ie. nextNonce is hardcoded to return 0.",
        "returns": {
          "nonce": "The next nonce."
        }
      },
      "oAppVersion()": {
        "returns": {
          "receiverVersion": "The version of the OAppReceiver.sol implementation.",
          "senderVersion": "The version of the OAppSender.sol implementation."
        }
      },
      "owner()": {
        "details": "Returns the address of the current owner."
      },
      "renounceOwnership()": {
        "details": "Leaves the contract without owner. It will not be possible to call `onlyOwner` functions. Can only be called by the current owner. NOTE: Renouncing ownership will leave the contract without an owner, thereby disabling any functionality that is only available to the owner."
      },
      "setDelegate(address)": {
        "details": "Only the owner/admin of the OApp can call this function.Provides the ability for a delegate to set configs, on behalf of the OApp, directly on the Endpoint contract.",
        "params": {
          "_delegate": "The address of the delegate to be set."
        }
      },
      "setEnforcedOptions((uint32,uint16,bytes)[])": {
        "details": "Sets the enforced options for specific endpoint and message type combinations.Only the owner/admin of the OApp can call this function.Provides a way for the OApp to enforce things like paying for PreCrime, AND/OR minimum dst lzReceive gas amounts etc.These enforced options can vary as the potential options/execution on the remote may differ as per the msgType. eg. Amount of lzReceive() gas necessary to deliver a lzCompose() message adds overhead you dont want to pay if you are only making a standard LayerZero message ie. lzReceive() WITHOUT sendCompose().",
        "params": {
          "_enforcedOptions": "An array of EnforcedOptionParam structures specifying enforced options."
        }
      },
      "setPeer(uint32,bytes32)": {
        "details": "Only the owner/admin of the OApp can call this function.Indicates that the peer is trusted to send LayerZero messages to this OApp.Set this to bytes32(0) to remove the peer address.Peer is a bytes32 to accommodate non-evm chains.",
        "params": {
          "_eid": "The endpoint ID.",
          "_peer": "The address of the peer to be associated with the corresponding endpoint."
        }
      },
      "transferOwnership(address)": {
        "details": "Transfers ownership of the contract to a new account (`newOwner`). Can only be called by the current owner."
      }
    },
    "version": 1
  },
  "userdoc": {
    "kind": "user",
    "methods": {
      "allowInitializePath((uint32,bytes32,uint64))": {
        "notice": "Checks if the path initialization is allowed based on the provided origin."
      },
      "combineOptions(uint32,uint16,bytes)": {
        "notice": "Combines options for a given endpoint and message type."
      },
      "endpoint()": {
        "notice": "Retrieves the LayerZero endpoint associated with the OApp."
      },
      "isComposeMsgSender((uint32,bytes32,uint64),bytes,address)": {
        "notice": "Indicates whether an address is an approved composeMsg sender to the Endpoint."
      },
      "nextNonce(uint32,bytes32)": {
        "notice": "Retrieves the next nonce for a given source endpoint and sender address."
      },
      "oAppVersion()": {
        "notice": "Retrieves the OApp version information."
      },
      "peers(uint32)": {
        "notice": "Retrieves the peer (OApp) associated with a corresponding endpoint."
      },
      "setDelegate(address)": {
        "notice": "Sets the delegate address for the OApp."
      },
      "setPeer(uint32,bytes32)": {
        "notice": "Sets the peer address (OApp instance) for a corresponding endpoint."
      }
    },
    "version": 1
  },
  "storageLayout": {
    "storage": [
      {
        "astId": 1686,
        "contract": "contracts/GovernanceControllerOApp.sol:GovernanceControllerOApp",
        "label": "_owner",
        "offset": 0,
        "slot": "0",
        "type": "t_address"
      },
      {
        "astId": 938,
        "contract": "contracts/GovernanceControllerOApp.sol:GovernanceControllerOApp",
        "label": "peers",
        "offset": 0,
        "slot": "1",
        "type": "t_mapping(t_uint32,t_bytes32)"
      },
      {
        "astId": 1534,
        "contract": "contracts/GovernanceControllerOApp.sol:GovernanceControllerOApp",
        "label": "enforcedOptions",
        "offset": 0,
        "slot": "2",
        "type": "t_mapping(t_uint32,t_mapping(t_uint16,t_bytes_storage))"
      },
      {
        "astId": 2482,
        "contract": "contracts/GovernanceControllerOApp.sol:GovernanceControllerOApp",
        "label": "messageOrigin",
        "offset": 0,
        "slot": "3",
        "type": "t_struct(GovernanceOrigin)3177_storage"
      }
    ],
    "types": {
      "t_address": {
        "encoding": "inplace",
        "label": "address",
        "numberOfBytes": "20"
      },
      "t_bytes32": {
        "encoding": "inplace",
        "label": "bytes32",
        "numberOfBytes": "32"
      },
      "t_bytes_storage": {
        "encoding": "bytes",
        "label": "bytes",
        "numberOfBytes": "32"
      },
      "t_mapping(t_uint16,t_bytes_storage)": {
        "encoding": "mapping",
        "key": "t_uint16",
        "label": "mapping(uint16 => bytes)",
        "numberOfBytes": "32",
        "value": "t_bytes_storage"
      },
      "t_mapping(t_uint32,t_bytes32)": {
        "encoding": "mapping",
        "key": "t_uint32",
        "label": "mapping(uint32 => bytes32)",
        "numberOfBytes": "32",
        "value": "t_bytes32"
      },
      "t_mapping(t_uint32,t_mapping(t_uint16,t_bytes_storage))": {
        "encoding": "mapping",
        "key": "t_uint32",
        "label": "mapping(uint32 => mapping(uint16 => bytes))",
        "numberOfBytes": "32",
        "value": "t_mapping(t_uint16,t_bytes_storage)"
      },
      "t_struct(GovernanceOrigin)3177_storage": {
        "encoding": "inplace",
        "label": "struct GovernanceOrigin",
        "members": [
          {
            "astId": 3174,
            "contract": "contracts/GovernanceControllerOApp.sol:GovernanceControllerOApp",
            "label": "eid",
            "offset": 0,
            "slot": "0",
            "type": "t_uint32"
          },
          {
            "astId": 3176,
            "contract": "contracts/GovernanceControllerOApp.sol:GovernanceControllerOApp",
            "label": "caller",
            "offset": 0,
            "slot": "1",
            "type": "t_bytes32"
          }
        ],
        "numberOfBytes": "64"
      },
      "t_uint16": {
        "encoding": "inplace",
        "label": "uint16",
        "numberOfBytes": "2"
      },
      "t_uint32": {
        "encoding": "inplace",
        "label": "uint32",
        "numberOfBytes": "4"
      }
    }
  }
}