{
  "address": "0xF941318E00FB58E00701423Ba1aDC607574bce99",
  "abi": [
    {
      "inputs": [
        {
          "internalType": "address",
          "name": "_endpoint",
          "type": "address"
        },
        {
          "internalType": "address",
          "name": "_delegate",
          "type": "address"
        }
      ],
      "stateMutability": "nonpayable",
      "type": "constructor"
    },
    {
      "inputs": [
        {
          "internalType": "uint8",
          "name": "action",
          "type": "uint8"
        }
      ],
      "name": "InvalidAction",
      "type": "error"
    },
    {
      "inputs": [],
      "name": "InvalidCallDataLength",
      "type": "error"
    },
    {
      "inputs": [],
      "name": "InvalidDelegate",
      "type": "error"
    },
    {
      "inputs": [],
      "name": "InvalidEndpointCall",
      "type": "error"
    },
    {
      "inputs": [],
      "name": "InvalidMessageLength",
      "type": "error"
    },
    {
      "inputs": [],
      "name": "InvalidModule",
      "type": "error"
    },
    {
      "inputs": [
        {
          "internalType": "bytes",
          "name": "options",
          "type": "bytes"
        }
      ],
      "name": "InvalidOptions",
      "type": "error"
    },
    {
      "inputs": [],
      "name": "LzTokenUnavailable",
      "type": "error"
    },
    {
      "inputs": [
        {
          "internalType": "uint32",
          "name": "eid",
          "type": "uint32"
        }
      ],
      "name": "NoPeer",
      "type": "error"
    },
    {
      "inputs": [
        {
          "internalType": "uint256",
          "name": "msgValue",
          "type": "uint256"
        }
      ],
      "name": "NotEnoughNative",
      "type": "error"
    },
    {
      "inputs": [
        {
          "internalType": "address",
          "name": "addr",
          "type": "address"
        }
      ],
      "name": "OnlyEndpoint",
      "type": "error"
    },
    {
      "inputs": [
        {
          "internalType": "uint32",
          "name": "eid",
          "type": "uint32"
        },
        {
          "internalType": "bytes32",
          "name": "sender",
          "type": "bytes32"
        }
      ],
      "name": "OnlyPeer",
      "type": "error"
    },
    {
      "inputs": [
        {
          "internalType": "address",
          "name": "owner",
          "type": "address"
        }
      ],
      "name": "OwnableInvalidOwner",
      "type": "error"
    },
    {
      "inputs": [
        {
          "internalType": "address",
          "name": "account",
          "type": "address"
        }
      ],
      "name": "OwnableUnauthorizedAccount",
      "type": "error"
    },
    {
      "inputs": [
        {
          "internalType": "uint256",
          "name": "length",
          "type": "uint256"
        }
      ],
      "name": "PayloadTooLong",
      "type": "error"
    },
    {
      "inputs": [
        {
          "internalType": "address",
          "name": "token",
          "type": "address"
        }
      ],
      "name": "SafeERC20FailedOperation",
      "type": "error"
    },
    {
      "anonymous": false,
      "inputs": [
        {
          "components": [
            {
              "internalType": "uint32",
              "name": "eid",
              "type": "uint32"
            },
            {
              "internalType": "uint16",
              "name": "msgType",
              "type": "uint16"
            },
            {
              "internalType": "bytes",
              "name": "options",
              "type": "bytes"
            }
          ],
          "indexed": false,
          "internalType": "struct EnforcedOptionParam[]",
          "name": "_enforcedOptions",
          "type": "tuple[]"
        }
      ],
      "name": "EnforcedOptionSet",
      "type": "event"
    },
    {
      "anonymous": false,
      "inputs": [
        {
          "indexed": true,
          "internalType": "address",
          "name": "previousOwner",
          "type": "address"
        },
        {
          "indexed": true,
          "internalType": "address",
          "name": "newOwner",
          "type": "address"
        }
      ],
      "name": "OwnershipTransferred",
      "type": "event"
    },
    {
      "anonymous": false,
      "inputs": [
        {
          "indexed": false,
          "internalType": "uint32",
          "name": "eid",
          "type": "uint32"
        },
        {
          "indexed": false,
          "internalType": "bytes32",
          "name": "peer",
          "type": "bytes32"
        }
      ],
      "name": "PeerSet",
      "type": "event"
    },
    {
      "inputs": [],
      "name": "SEND",
      "outputs": [
        {
          "internalType": "uint16",
          "name": "",
          "type": "uint16"
        }
      ],
      "stateMutability": "view",
      "type": "function"
    },
    {
      "inputs": [
        {
          "components": [
            {
              "internalType": "uint32",
              "name": "srcEid",
              "type": "uint32"
            },
            {
              "internalType": "bytes32",
              "name": "sender",
              "type": "bytes32"
            },
            {
              "internalType": "uint64",
              "name": "nonce",
              "type": "uint64"
            }
          ],
          "internalType": "struct Origin",
          "name": "origin",
          "type": "tuple"
        }
      ],
      "name": "allowInitializePath",
      "outputs": [
        {
          "internalType": "bool",
          "name": "",
          "type": "bool"
        }
      ],
      "stateMutability": "view",
      "type": "function"
    },
    {
      "inputs": [
        {
          "internalType": "uint32",
          "name": "_eid",
          "type": "uint32"
        },
        {
          "internalType": "uint16",
          "name": "_msgType",
          "type": "uint16"
        },
        {
          "internalType": "bytes",
          "name": "_extraOptions",
          "type": "bytes"
        }
      ],
      "name": "combineOptions",
      "outputs": [
        {
          "internalType": "bytes",
          "name": "",
          "type": "bytes"
        }
      ],
      "stateMutability": "view",
      "type": "function"
    },
    {
      "inputs": [],
      "name": "endpoint",
      "outputs": [
        {
          "internalType": "contract ILayerZeroEndpointV2",
          "name": "",
          "type": "address"
        }
      ],
      "stateMutability": "view",
      "type": "function"
    },
    {
      "inputs": [
        {
          "internalType": "uint32",
          "name": "eid",
          "type": "uint32"
        },
        {
          "internalType": "uint16",
          "name": "msgType",
          "type": "uint16"
        }
      ],
      "name": "enforcedOptions",
      "outputs": [
        {
          "internalType": "bytes",
          "name": "enforcedOption",
          "type": "bytes"
        }
      ],
      "stateMutability": "view",
      "type": "function"
    },
    {
      "inputs": [
        {
          "components": [
            {
              "internalType": "uint32",
              "name": "srcEid",
              "type": "uint32"
            },
            {
              "internalType": "bytes32",
              "name": "sender",
              "type": "bytes32"
            },
            {
              "internalType": "uint64",
              "name": "nonce",
              "type": "uint64"
            }
          ],
          "internalType": "struct Origin",
          "name": "",
          "type": "tuple"
        },
        {
          "internalType": "bytes",
          "name": "",
          "type": "bytes"
        },
        {
          "internalType": "address",
          "name": "_sender",
          "type": "address"
        }
      ],
      "name": "isComposeMsgSender",
      "outputs": [
        {
          "internalType": "bool",
          "name": "",
          "type": "bool"
        }
      ],
      "stateMutability": "view",
      "type": "function"
    },
    {
      "inputs": [
        {
          "components": [
            {
              "internalType": "uint32",
              "name": "srcEid",
              "type": "uint32"
            },
            {
              "internalType": "bytes32",
              "name": "sender",
              "type": "bytes32"
            },
            {
              "internalType": "uint64",
              "name": "nonce",
              "type": "uint64"
            }
          ],
          "internalType": "struct Origin",
          "name": "_origin",
          "type": "tuple"
        },
        {
          "internalType": "bytes32",
          "name": "_guid",
          "type": "bytes32"
        },
        {
          "internalType": "bytes",
          "name": "_message",
          "type": "bytes"
        },
        {
          "internalType": "address",
          "name": "_executor",
          "type": "address"
        },
        {
          "internalType": "bytes",
          "name": "_extraData",
          "type": "bytes"
        }
      ],
      "name": "lzReceive",
      "outputs": [],
      "stateMutability": "payable",
      "type": "function"
    },
    {
      "inputs": [
        {
          "internalType": "uint32",
          "name": "",
          "type": "uint32"
        },
        {
          "internalType": "bytes32",
          "name": "",
          "type": "bytes32"
        }
      ],
      "name": "nextNonce",
      "outputs": [
        {
          "internalType": "uint64",
          "name": "nonce",
          "type": "uint64"
        }
      ],
      "stateMutability": "view",
      "type": "function"
    },
    {
      "inputs": [],
      "name": "oAppVersion",
      "outputs": [
        {
          "internalType": "uint64",
          "name": "senderVersion",
          "type": "uint64"
        },
        {
          "internalType": "uint64",
          "name": "receiverVersion",
          "type": "uint64"
        }
      ],
      "stateMutability": "pure",
      "type": "function"
    },
    {
      "inputs": [],
      "name": "owner",
      "outputs": [
        {
          "internalType": "address",
          "name": "",
          "type": "address"
        }
      ],
      "stateMutability": "view",
      "type": "function"
    },
    {
      "inputs": [
        {
          "internalType": "uint32",
          "name": "eid",
          "type": "uint32"
        }
      ],
      "name": "peers",
      "outputs": [
        {
          "internalType": "bytes32",
          "name": "peer",
          "type": "bytes32"
        }
      ],
      "stateMutability": "view",
      "type": "function"
    },
    {
      "inputs": [
        {
          "components": [
            {
              "internalType": "uint8",
              "name": "action",
              "type": "uint8"
            },
            {
              "internalType": "uint32",
              "name": "dstEid",
              "type": "uint32"
            },
            {
              "internalType": "address",
              "name": "governanceContract",
              "type": "address"
            },
            {
              "internalType": "address",
              "name": "governedContract",
              "type": "address"
            },
            {
              "internalType": "bytes",
              "name": "callData",
              "type": "bytes"
            }
          ],
          "internalType": "struct GovernanceMessageEVMCodec.GovernanceMessage",
          "name": "_message",
          "type": "tuple"
        },
        {
          "internalType": "bytes",
          "name": "_extraOptions",
          "type": "bytes"
        },
        {
          "internalType": "bool",
          "name": "_payInLzToken",
          "type": "bool"
        }
      ],
      "name": "quoteEVMAction",
      "outputs": [
        {
          "components": [
            {
              "internalType": "uint256",
              "name": "nativeFee",
              "type": "uint256"
            },
            {
              "internalType": "uint256",
              "name": "lzTokenFee",
              "type": "uint256"
            }
          ],
          "internalType": "struct MessagingFee",
          "name": "fee",
          "type": "tuple"
        }
      ],
      "stateMutability": "view",
      "type": "function"
    },
    {
      "inputs": [
        {
          "internalType": "bytes",
          "name": "_message",
          "type": "bytes"
        },
        {
          "internalType": "bytes",
          "name": "_extraOptions",
          "type": "bytes"
        },
        {
          "internalType": "bool",
          "name": "_payInLzToken",
          "type": "bool"
        }
      ],
      "name": "quoteRawBytesAction",
      "outputs": [
        {
          "components": [
            {
              "internalType": "uint256",
              "name": "nativeFee",
              "type": "uint256"
            },
            {
              "internalType": "uint256",
              "name": "lzTokenFee",
              "type": "uint256"
            }
          ],
          "internalType": "struct MessagingFee",
          "name": "fee",
          "type": "tuple"
        }
      ],
      "stateMutability": "view",
      "type": "function"
    },
    {
      "inputs": [],
      "name": "renounceOwnership",
      "outputs": [],
      "stateMutability": "nonpayable",
      "type": "function"
    },
    {
      "inputs": [
        {
          "components": [
            {
              "internalType": "uint8",
              "name": "action",
              "type": "uint8"
            },
            {
              "internalType": "uint32",
              "name": "dstEid",
              "type": "uint32"
            },
            {
              "internalType": "address",
              "name": "governanceContract",
              "type": "address"
            },
            {
              "internalType": "address",
              "name": "governedContract",
              "type": "address"
            },
            {
              "internalType": "bytes",
              "name": "callData",
              "type": "bytes"
            }
          ],
          "internalType": "struct GovernanceMessageEVMCodec.GovernanceMessage",
          "name": "_message",
          "type": "tuple"
        },
        {
          "internalType": "bytes",
          "name": "_extraOptions",
          "type": "bytes"
        },
        {
          "components": [
            {
              "internalType": "uint256",
              "name": "nativeFee",
              "type": "uint256"
            },
            {
              "internalType": "uint256",
              "name": "lzTokenFee",
              "type": "uint256"
            }
          ],
          "internalType": "struct MessagingFee",
          "name": "_fee",
          "type": "tuple"
        },
        {
          "internalType": "address",
          "name": "_refundAddress",
          "type": "address"
        }
      ],
      "name": "sendEVMAction",
      "outputs": [
        {
          "components": [
            {
              "internalType": "bytes32",
              "name": "guid",
              "type": "bytes32"
            },
            {
              "internalType": "uint64",
              "name": "nonce",
              "type": "uint64"
            },
            {
              "components": [
                {
                  "internalType": "uint256",
                  "name": "nativeFee",
                  "type": "uint256"
                },
                {
                  "internalType": "uint256",
                  "name": "lzTokenFee",
                  "type": "uint256"
                }
              ],
              "internalType": "struct MessagingFee",
              "name": "fee",
              "type": "tuple"
            }
          ],
          "internalType": "struct MessagingReceipt",
          "name": "receipt",
          "type": "tuple"
        }
      ],
      "stateMutability": "payable",
      "type": "function"
    },
    {
      "inputs": [
        {
          "internalType": "bytes",
          "name": "_message",
          "type": "bytes"
        },
        {
          "internalType": "bytes",
          "name": "_extraOptions",
          "type": "bytes"
        },
        {
          "components": [
            {
              "internalType": "uint256",
              "name": "nativeFee",
              "type": "uint256"
            },
            {
              "internalType": "uint256",
              "name": "lzTokenFee",
              "type": "uint256"
            }
          ],
          "internalType": "struct MessagingFee",
          "name": "_fee",
          "type": "tuple"
        },
        {
          "internalType": "address",
          "name": "_refundAddress",
          "type": "address"
        }
      ],
      "name": "sendRawBytesAction",
      "outputs": [
        {
          "components": [
            {
              "internalType": "bytes32",
              "name": "guid",
              "type": "bytes32"
            },
            {
              "internalType": "uint64",
              "name": "nonce",
              "type": "uint64"
            },
            {
              "components": [
                {
                  "internalType": "uint256",
                  "name": "nativeFee",
                  "type": "uint256"
                },
                {
                  "internalType": "uint256",
                  "name": "lzTokenFee",
                  "type": "uint256"
                }
              ],
              "internalType": "struct MessagingFee",
              "name": "fee",
              "type": "tuple"
            }
          ],
          "internalType": "struct MessagingReceipt",
          "name": "receipt",
          "type": "tuple"
        }
      ],
      "stateMutability": "payable",
      "type": "function"
    },
    {
      "inputs": [
        {
          "internalType": "address",
          "name": "_delegate",
          "type": "address"
        }
      ],
      "name": "setDelegate",
      "outputs": [],
      "stateMutability": "nonpayable",
      "type": "function"
    },
    {
      "inputs": [
        {
          "components": [
            {
              "internalType": "uint32",
              "name": "eid",
              "type": "uint32"
            },
            {
              "internalType": "uint16",
              "name": "msgType",
              "type": "uint16"
            },
            {
              "internalType": "bytes",
              "name": "options",
              "type": "bytes"
            }
          ],
          "internalType": "struct EnforcedOptionParam[]",
          "name": "_enforcedOptions",
          "type": "tuple[]"
        }
      ],
      "name": "setEnforcedOptions",
      "outputs": [],
      "stateMutability": "nonpayable",
      "type": "function"
    },
    {
      "inputs": [
        {
          "internalType": "uint32",
          "name": "_eid",
          "type": "uint32"
        },
        {
          "internalType": "bytes32",
          "name": "_peer",
          "type": "bytes32"
        }
      ],
      "name": "setPeer",
      "outputs": [],
      "stateMutability": "nonpayable",
      "type": "function"
    },
    {
      "inputs": [
        {
          "internalType": "address",
          "name": "newOwner",
          "type": "address"
        }
      ],
      "name": "transferOwnership",
      "outputs": [],
      "stateMutability": "nonpayable",
      "type": "function"
    }
  ],
  "transactionHash": "0xd84041462e03fb7a4f57c7fa21e58cac71e034c470aa8fc0757bd81a6cedbd5a",
  "args": [
    "0x6EDCE65403992e310A62460808c4b910D972f10f",
    "0x0804a6e2798F42C7F3c97215DdF958d5500f8ec8"
  ],
  "numDeployments": 1,
  "solcInputHash": "35bfa8ea1dde1cf3a16a0c99d7d62650",
  "bytecode": "0x60a06040523480156200001157600080fd5b506040516200275b3803806200275b83398101604081905262000034916200017c565b81818181806001600160a01b0381166200006857604051631e4fbdf760e01b81526000600482015260240160405180910390fd5b62000073816200010f565b506001600160a01b038083166080528116620000a257604051632d618d8160e21b815260040160405180910390fd5b60805160405163ca5eb5e160e01b81526001600160a01b0383811660048301529091169063ca5eb5e190602401600060405180830381600087803b158015620000ea57600080fd5b505af1158015620000ff573d6000803e3d6000fd5b50505050505050505050620001b4565b600080546001600160a01b038381166001600160a01b0319831681178455604051919092169283917f8be0079c531659141344cd1fd0a4f28419497f9722a3daafe3b4186f6b6457e09190a35050565b80516001600160a01b03811681146200017757600080fd5b919050565b600080604083850312156200019057600080fd5b6200019b836200015f565b9150620001ab602084016200015f565b90509250929050565b608051612561620001fa6000396000818161026b015281816104a2015281816108cd01528181610a6401528181610f350152818161150701526115be01526125616000f3fe60806040526004361061011f5760003560e01c8063715018a6116100a0578063bb0b6a5311610064578063bb0b6a531461036f578063bc70b354146103aa578063ca5eb5e1146103ca578063f2fde38b146103ea578063ff7bd03d1461040a57600080fd5b8063715018a6146102a55780637d25a05e146102ba57806382413eac146102f25780638da5cb5b14610331578063b98bd0701461034f57600080fd5b80632505b38e116100e75780632505b38e146101d95780633400288b146101f95780633f2820e9146102195780635535d4611461022c5780635e280f111461025957600080fd5b806305a0a45b146101245780630c6075b41461014d57806313137d651461017a57806317442b701461018f5780631f5e1334146101b1575b600080fd5b61013761013236600461178a565b61042a565b604051610144919061181a565b60405180910390f35b34801561015957600080fd5b5061016d61016836600461186c565b610451565b60405161014491906118e6565b61018d61018836600461190f565b6104a0565b005b34801561019b57600080fd5b5060408051600181526002602082015201610144565b3480156101bd57600080fd5b506101c6600181565b60405161ffff9091168152602001610144565b3480156101e557600080fd5b5061016d6101f43660046119ae565b610560565b34801561020557600080fd5b5061018d610214366004611a42565b6105e3565b610137610227366004611a6c565b6105f9565b34801561023857600080fd5b5061024c610247366004611b12565b610622565b6040516101449190611b95565b34801561026557600080fd5b5061028d7f000000000000000000000000000000000000000000000000000000000000000081565b6040516001600160a01b039091168152602001610144565b3480156102b157600080fd5b5061018d6106c7565b3480156102c657600080fd5b506102da6102d5366004611a42565b6106db565b6040516001600160401b039091168152602001610144565b3480156102fe57600080fd5b5061032161030d366004611baf565b6001600160a01b0381163014949350505050565b6040519015158152602001610144565b34801561033d57600080fd5b506000546001600160a01b031661028d565b34801561035b57600080fd5b5061018d61036a366004611c15565b6106e4565b34801561037b57600080fd5b5061039c61038a366004611c89565b60016020526000908152604090205481565b604051908152602001610144565b3480156103b657600080fd5b5061024c6103c5366004611ca4565b6106fe565b3480156103d657600080fd5b5061018d6103e5366004611d04565b6108a6565b3480156103f657600080fd5b5061018d610405366004611d04565b61092c565b34801561041657600080fd5b50610321610425366004611d21565b61096a565b6104326116ac565b61043a6109a0565b61044786868686866109cd565b9695505050505050565b6040805180820190915260008082526020820152600080610473878787610a12565b909250905061049361048b6040890160208a01611c89565b838387610a4e565b925050505b949350505050565b7f00000000000000000000000000000000000000000000000000000000000000006001600160a01b031633146104f0576040516391ac5e4f60e01b81523360048201526024015b60405180910390fd5b6020870180359061050a90610505908a611c89565b610b2f565b146105485761051c6020880188611c89565b60405163309afaf360e21b815263ffffffff9091166004820152602088013560248201526044016104e7565b61055787878787878787610b6b565b50505050505050565b604080518082019091526000808252602082015260006105808787610c3c565b9050600061059182600188886106fe565b90506105d78289898080601f016020809104026020016040519081016040528093929190818152602001838380828437600092019190915250869250899150610a4e9050565b98975050505050505050565b6105eb6109a0565b6105f58282610c9f565b5050565b6106016116ac565b6106096109a0565b610617878787878787610cf4565b979650505050505050565b60026020908152600092835260408084209091529082529020805461064690611d3d565b80601f016020809104026020016040519081016040528092919081815260200182805461067290611d3d565b80156106bf5780601f10610694576101008083540402835291602001916106bf565b820191906000526020600020905b8154815290600101906020018083116106a257829003601f168201915b505050505081565b6106cf6109a0565b6106d96000610d74565b565b60005b92915050565b6106ec6109a0565b6105f56106f98284611e70565b610dc4565b63ffffffff8416600090815260026020908152604080832061ffff8716845290915281208054606092919061073290611d3d565b80601f016020809104026020016040519081016040528092919081815260200182805461075e90611d3d565b80156107ab5780601f10610780576101008083540402835291602001916107ab565b820191906000526020600020905b81548152906001019060200180831161078e57829003601f168201915b5050505050905080516000036107fb5783838080601f0160208091040260200160405190810160405280939291908181526020018383808284376000920191909152509294506104989350505050565b600083900361080b579050610498565b600283106108895761085284848080601f016020809104026020016040519081016040528093929190818152602001838380828437600092019190915250610ed692505050565b806108608460028188611f45565b60405160200161087293929190611f6f565b604051602081830303815290604052915050610498565b8383604051639a6d49cd60e01b81526004016104e7929190611f97565b6108ae6109a0565b60405163ca5eb5e160e01b81526001600160a01b0382811660048301527f0000000000000000000000000000000000000000000000000000000000000000169063ca5eb5e190602401600060405180830381600087803b15801561091157600080fd5b505af1158015610925573d6000803e3d6000fd5b5050505050565b6109346109a0565b6001600160a01b03811661095e57604051631e4fbdf760e01b8152600060048201526024016104e7565b61096781610d74565b50565b60006020820180359060019083906109829086611c89565b63ffffffff1681526020810191909152604001600020541492915050565b6000546001600160a01b031633146106d95760405163118cdaa760e01b81523360048201526024016104e7565b6109d56116ac565b6000806109e3888888610a12565b90925090506105d76109fb60408a0160208b01611c89565b8383610a0c368a90038a018a611fc6565b88610f02565b606080610a26610a2186611ff8565b611002565b9150610a44610a3b6040870160208801611c89565b600186866106fe565b9050935093915050565b60408051808201909152600080825260208201527f00000000000000000000000000000000000000000000000000000000000000006001600160a01b031663ddc28c586040518060a001604052808863ffffffff168152602001610ab189610b2f565b8152602001878152602001868152602001851515815250306040518363ffffffff1660e01b8152600401610ae69291906120ac565b6040805180830381865afa158015610b02573d6000803e3d6000fd5b505050506040513d601f19601f82011682018060405250810190610b269190612155565b95945050505050565b63ffffffff8116600090815260016020526040812054806106de5760405163f6ff4fb760e01b815263ffffffff841660048201526024016104e7565b6000610b778686611097565b805190915060ff16600114610ba75780516040516317949c6760e11b815260ff90911660048201526024016104e7565b60008082606001516001600160a01b03168360800151604051610bca9190612171565b6000604051808303816000865af19150503d8060008114610c07576040519150601f19603f3d011682016040523d82523d6000602084013e610c0c565b606091505b509150915081610c30578060405162461bcd60e51b81526004016104e79190611b95565b50505050505050505050565b60008282610c4b8360206121a3565b610c569060016121a3565b60ff1690610c66600060206121a3565b610c719060016121a3565b610c7c9060046121a3565b60ff1692610c8c93929190611f45565b610c95916121bc565b60e01c9392505050565b63ffffffff8216600081815260016020908152604091829020849055815192835282018390527f238399d427b947898edb290f5ff0f9109849b1c3ba196a42e35f00c50a54b98b910160405180910390a15050565b610cfc6116ac565b6000610d088888610c3c565b90506000610d1982600189896106fe565b9050610d67828a8a8080601f016020809104026020016040519081016040528093929190818152602001838380828437600092019190915250869250610a0c915050368a90038a018a611fc6565b9998505050505050505050565b600080546001600160a01b038381166001600160a01b0319831681178455604051919092169283917f8be0079c531659141344cd1fd0a4f28419497f9722a3daafe3b4186f6b6457e09190a35050565b60005b8151811015610e9b57610df6828281518110610de557610de56121ec565b602002602001015160400151610ed6565b818181518110610e0857610e086121ec565b60200260200101516040015160026000848481518110610e2a57610e2a6121ec565b60200260200101516000015163ffffffff1663ffffffff1681526020019081526020016000206000848481518110610e6457610e646121ec565b60200260200101516020015161ffff1661ffff1681526020019081526020016000209081610e929190612253565b50600101610dc7565b507fbe4864a8e820971c0247f5992e2da559595f7bf076a21cb5928d443d2a13b67481604051610ecb9190612312565b60405180910390a150565b600281015161ffff81166003146105f55781604051639a6d49cd60e01b81526004016104e79190611b95565b610f0a6116ac565b6000610f1984600001516114db565b602085015190915015610f3357610f338460200151611503565b7f00000000000000000000000000000000000000000000000000000000000000006001600160a01b0316632637a450826040518060a001604052808b63ffffffff168152602001610f838c610b2f565b81526020018a815260200189815260200160008960200151111515815250866040518463ffffffff1660e01b8152600401610fbf9291906120ac565b60806040518083038185885af1158015610fdd573d6000803e3d6000fd5b50505050506040513d601f19601f82011682018060405250810190610617919061239d565b606061ffff801682608001515111156110375781608001515160405163a341969160e01b81526004016104e791815260200190565b608082015180518351602080860151604080880151606089015191519596611080967747656e6572616c507572706f7365476f7665726e616e63659695929392899291016123f3565b604051602081830303815290604052915050919050565b6040805160a081018252600080825260208083018290529282018190526060808301829052608083015290916110cd91906121a3565b6110d89060016121a3565b6110e39060046121a3565b6110ee9060146121a3565b6110f99060146121a3565b6111049060026121a3565b60ff1682101561112757604051638d0242c960e01b815260040160405180910390fd5b7747656e6572616c507572706f7365476f7665726e616e63658360008461114f8260206121a3565b60ff169261115f93929190611f45565b61116891612474565b1461118657604051631bb2296560e31b815260040160405180910390fd5b8282611194600060206121a3565b60ff168181106111a6576111a66121ec565b919091013560f81c82525082826111bf600060206121a3565b6111ca9060016121a3565b60ff16906111da600060206121a3565b6111e59060016121a3565b6111f09060046121a3565b60ff169261120093929190611f45565b611209916121bc565b60e01c60208083019190915283908390611225906000906121a3565b6112309060016121a3565b61123b9060046121a3565b60ff169061124b600060206121a3565b6112569060016121a3565b6112619060046121a3565b61126c9060146121a3565b60ff169261127c93929190611f45565b61128591612492565b60601c6040820152828261129b600060206121a3565b6112a69060016121a3565b6112b19060046121a3565b6112bc9060146121a3565b60ff16906112cc600060206121a3565b6112d79060016121a3565b6112e29060046121a3565b6112ed9060146121a3565b6112f89060146121a3565b6113039060026121a3565b60ff169261131393929190611f45565b61131c91612492565b606090811c90820152600083836113348360206121a3565b61133f9060016121a3565b61134a9060046121a3565b6113559060146121a3565b6113609060146121a3565b60ff1690611370600060206121a3565b61137b9060016121a3565b6113869060046121a3565b6113919060146121a3565b61139c9060146121a3565b6113a79060026121a3565b6113b29060026121a3565b60ff16926113c293929190611f45565b6113cb916124c5565b60f01c9050806113dd600060206121a3565b6113e89060016121a3565b6113f39060046121a3565b6113fe9060146121a3565b6114099060146121a3565b6114149060026121a3565b60ff1661142191906124f3565b61ffff16831461144457604051630249dd0d60e51b815260040160405180910390fd5b8383611452600060206121a3565b61145d9060016121a3565b6114689060046121a3565b6114739060146121a3565b61147e9060146121a3565b6114899060026121a3565b60ff1690809261149b93929190611f45565b8080601f01602080910402602001604051908101604052809392919081815260200183838082843760009201919091525050505060808301525092915050565b60008134146114ff576040516304fb820960e51b81523460048201526024016104e7565b5090565b60007f00000000000000000000000000000000000000000000000000000000000000006001600160a01b031663e4fe1d946040518163ffffffff1660e01b8152600401602060405180830381865afa158015611563573d6000803e3d6000fd5b505050506040513d601f19601f82011682018060405250810190611587919061250e565b90506001600160a01b0381166115b0576040516329b99a9560e11b815260040160405180910390fd5b6040805133602482018190527f00000000000000000000000000000000000000000000000000000000000000006001600160a01b03818116604485015260648085018890528551808603909101815260849094019094526020830180516001600160e01b03166323b872dd60e01b1790526105f593851692869061163590859061163b565b50505050565b600080602060008451602086016000885af18061165e576040513d6000823e3d81fd5b50506000513d91508115611676578060011415611683565b6001600160a01b0384163b155b1561163557604051635274afe760e01b81526001600160a01b03851660048201526024016104e7565b60405180606001604052806000801916815260200160006001600160401b031681526020016116ee604051806040016040528060008152602001600081525090565b905290565b600060a0828403121561170557600080fd5b50919050565b60008083601f84011261171d57600080fd5b5081356001600160401b0381111561173457600080fd5b60208301915083602082850101111561174c57600080fd5b9250929050565b60006040828403121561170557600080fd5b6001600160a01b038116811461096757600080fd5b803561178581611765565b919050565b600080600080600060a086880312156117a257600080fd5b85356001600160401b03808211156117b957600080fd5b6117c589838a016116f3565b965060208801359150808211156117db57600080fd5b506117e88882890161170b565b90955093506117fc90508760408801611753565b9150608086013561180c81611765565b809150509295509295909350565b6000608082019050825182526001600160401b0360208401511660208301526040830151611855604084018280518252602090810151910152565b5092915050565b8035801515811461178557600080fd5b6000806000806060858703121561188257600080fd5b84356001600160401b038082111561189957600080fd5b6118a5888389016116f3565b955060208701359150808211156118bb57600080fd5b506118c88782880161170b565b90945092506118db90506040860161185c565b905092959194509250565b8151815260208083015190820152604081016106de565b60006060828403121561170557600080fd5b600080600080600080600060e0888a03121561192a57600080fd5b61193489896118fd565b96506060880135955060808801356001600160401b038082111561195757600080fd5b6119638b838c0161170b565b909750955060a08a0135915061197882611765565b90935060c0890135908082111561198e57600080fd5b5061199b8a828b0161170b565b989b979a50959850939692959293505050565b6000806000806000606086880312156119c657600080fd5b85356001600160401b03808211156119dd57600080fd5b6119e989838a0161170b565b90975095506020880135915080821115611a0257600080fd5b50611a0f8882890161170b565b9094509250611a2290506040870161185c565b90509295509295909350565b803563ffffffff8116811461178557600080fd5b60008060408385031215611a5557600080fd5b611a5e83611a2e565b946020939093013593505050565b60008060008060008060a08789031215611a8557600080fd5b86356001600160401b0380821115611a9c57600080fd5b611aa88a838b0161170b565b90985096506020890135915080821115611ac157600080fd5b50611ace89828a0161170b565b9095509350611ae290508860408901611753565b91506080870135611af281611765565b809150509295509295509295565b803561ffff8116811461178557600080fd5b60008060408385031215611b2557600080fd5b611b2e83611a2e565b9150611b3c60208401611b00565b90509250929050565b60005b83811015611b60578181015183820152602001611b48565b50506000910152565b60008151808452611b81816020860160208601611b45565b601f01601f19169290920160200192915050565b602081526000611ba86020830184611b69565b9392505050565b60008060008060a08587031215611bc557600080fd5b611bcf86866118fd565b935060608501356001600160401b03811115611bea57600080fd5b611bf68782880161170b565b9094509250506080850135611c0a81611765565b939692955090935050565b60008060208385031215611c2857600080fd5b82356001600160401b0380821115611c3f57600080fd5b818501915085601f830112611c5357600080fd5b813581811115611c6257600080fd5b8660208260051b8501011115611c7757600080fd5b60209290920196919550909350505050565b600060208284031215611c9b57600080fd5b611ba882611a2e565b60008060008060608587031215611cba57600080fd5b611cc385611a2e565b9350611cd160208601611b00565b925060408501356001600160401b03811115611cec57600080fd5b611cf88782880161170b565b95989497509550505050565b600060208284031215611d1657600080fd5b8135611ba881611765565b600060608284031215611d3357600080fd5b611ba883836118fd565b600181811c90821680611d5157607f821691505b60208210810361170557634e487b7160e01b600052602260045260246000fd5b634e487b7160e01b600052604160045260246000fd5b604051606081016001600160401b0381118282101715611da957611da9611d71565b60405290565b604080519081016001600160401b0381118282101715611da957611da9611d71565b604051601f8201601f191681016001600160401b0381118282101715611df957611df9611d71565b604052919050565b600082601f830112611e1257600080fd5b81356001600160401b03811115611e2b57611e2b611d71565b611e3e601f8201601f1916602001611dd1565b818152846020838601011115611e5357600080fd5b816020850160208301376000918101602001919091529392505050565b60006001600160401b0380841115611e8a57611e8a611d71565b8360051b6020611e9b818301611dd1565b868152918501918181019036841115611eb357600080fd5b865b84811015611f3957803586811115611ecd5760008081fd5b88016060368290031215611ee15760008081fd5b611ee9611d87565b611ef282611a2e565b8152611eff868301611b00565b8682015260408083013589811115611f175760008081fd5b611f2336828601611e01565b9183019190915250845250918301918301611eb5565b50979650505050505050565b60008085851115611f5557600080fd5b83861115611f6257600080fd5b5050820193919092039150565b60008451611f81818460208901611b45565b8201838582376000930192835250909392505050565b60208152816020820152818360408301376000818301604090810191909152601f909201601f19160101919050565b600060408284031215611fd857600080fd5b611fe0611daf565b82358152602083013560208201528091505092915050565b600060a0823603121561200a57600080fd5b60405160a081016001600160401b03828210818311171561202d5761202d611d71565b816040528435915060ff8216821461204457600080fd5b81835261205360208601611a2e565b60208401526040850135915061206882611765565b81604084015261207a6060860161177a565b6060840152608085013591508082111561209357600080fd5b506120a036828601611e01565b60808301525092915050565b6040815263ffffffff8351166040820152602083015160608201526000604084015160a060808401526120e260e0840182611b69565b90506060850151603f198483030160a08501526120ff8282611b69565b60809690960151151560c08501525050506001600160a01b039190911660209091015290565b60006040828403121561213757600080fd5b61213f611daf565b9050815181526020820151602082015292915050565b60006040828403121561216757600080fd5b611ba88383612125565b60008251612183818460208701611b45565b9190910192915050565b634e487b7160e01b600052601160045260246000fd5b60ff81811683821601908111156106de576106de61218d565b6001600160e01b031981358181169160048510156121e45780818660040360031b1b83161692505b505092915050565b634e487b7160e01b600052603260045260246000fd5b601f82111561224e576000816000526020600020601f850160051c8101602086101561222b5750805b601f850160051c820191505b8181101561224a57828155600101612237565b5050505b505050565b81516001600160401b0381111561226c5761226c611d71565b6122808161227a8454611d3d565b84612202565b602080601f8311600181146122b5576000841561229d5750858301515b600019600386901b1c1916600185901b17855561224a565b600085815260208120601f198616915b828110156122e4578886015182559484019460019091019084016122c5565b50858210156123025787850151600019600388901b60f8161c191681555b5050505050600190811b01905550565b600060208083018184528085518083526040925060408601915060408160051b87010184880160005b8381101561238f57888303603f190185528151805163ffffffff1684528781015161ffff1688850152860151606087850181905261237b81860183611b69565b96890196945050509086019060010161233b565b509098975050505050505050565b6000608082840312156123af57600080fd5b6123b7611d87565b8251815260208301516001600160401b03811681146123d557600080fd5b60208201526123e78460408501612125565b60408201529392505050565b87815260ff60f81b8760f81b16602082015263ffffffff60e01b8660e01b16602182015260006bffffffffffffffffffffffff19808760601b166025840152808660601b1660398401525061ffff60f01b8460f01b16604d830152825161246181604f850160208701611b45565b91909101604f0198975050505050505050565b803560208310156106de57600019602084900360031b1b1692915050565b6bffffffffffffffffffffffff1981358181169160148510156121e45760149490940360031b84901b1690921692915050565b6001600160f01b031981358181169160028510156121e45760029490940360031b84901b1690921692915050565b61ffff8181168382160190808211156118555761185561218d565b60006020828403121561252057600080fd5b8151611ba88161176556fea2646970667358221220f94fdfaa1257207d7d5afd1901d50a4df842943c6b4734d1a534e80d6e78c21c64736f6c63430008160033",
  "devdoc": {
    "errors": {
      "OwnableInvalidOwner(address)": [
        {
          "details": "The owner is not a valid owner account. (eg. `address(0)`)"
        }
      ],
      "OwnableUnauthorizedAccount(address)": [
        {
          "details": "The caller account is not authorized to perform an operation."
        }
      ],
      "SafeERC20FailedOperation(address)": [
        {
          "details": "An operation with an ERC-20 token failed."
        }
      ]
    },
    "kind": "dev",
    "methods": {
      "allowInitializePath((uint32,bytes32,uint64))": {
        "details": "This indicates to the endpoint that the OApp has enabled msgs for this particular path to be received.This defaults to assuming if a peer has been set, its initialized. Can be overridden by the OApp if there is other logic to determine this.",
        "params": {
          "origin": "The origin information containing the source endpoint and sender address."
        },
        "returns": {
          "_0": "Whether the path has been initialized."
        }
      },
      "combineOptions(uint32,uint16,bytes)": {
        "details": "If there is an enforced lzReceive option: - {gasLimit: 200k, msg.value: 1 ether} AND a caller supplies a lzReceive option: {gasLimit: 100k, msg.value: 0.5 ether} - The resulting options will be {gasLimit: 300k, msg.value: 1.5 ether} when the message is executed on the remote lzReceive() function.This presence of duplicated options is handled off-chain in the verifier/executor.",
        "params": {
          "_eid": "The endpoint ID.",
          "_extraOptions": "Additional options passed by the caller.",
          "_msgType": "The OAPP message type."
        },
        "returns": {
          "_0": "options The combination of caller specified options AND enforced options."
        }
      },
      "isComposeMsgSender((uint32,bytes32,uint64),bytes,address)": {
        "details": "_origin The origin information containing the source endpoint and sender address.  - srcEid: The source chain endpoint ID.  - sender: The sender address on the src chain.  - nonce: The nonce of the message._message The lzReceive payload.Applications can optionally choose to implement separate composeMsg senders that are NOT the bridging layer.The default sender IS the OAppReceiver implementer.",
        "params": {
          "_sender": "The sender address."
        },
        "returns": {
          "_0": "isSender Is a valid sender."
        }
      },
      "lzReceive((uint32,bytes32,uint64),bytes32,bytes,address,bytes)": {
        "details": "Entry point for receiving messages or packets from the endpoint.Entry point for receiving msg/packet from the LayerZero endpoint.",
        "params": {
          "_executor": "The address of the executor for the received message.",
          "_extraData": "Additional arbitrary data provided by the corresponding executor.",
          "_guid": "The unique identifier for the received LayerZero message.",
          "_message": "The payload of the received message.",
          "_origin": "The origin information containing the source endpoint and sender address.  - srcEid: The source chain endpoint ID.  - sender: The sender address on the src chain.  - nonce: The nonce of the message."
        }
      },
      "nextNonce(uint32,bytes32)": {
        "details": "_srcEid The source endpoint ID._sender The sender address.The path nonce starts from 1. If 0 is returned it means that there is NO nonce ordered enforcement.Is required by the off-chain executor to determine the OApp expects msg execution is ordered.This is also enforced by the OApp.By default this is NOT enabled. ie. nextNonce is hardcoded to return 0.",
        "returns": {
          "nonce": "The next nonce."
        }
      },
      "oAppVersion()": {
        "returns": {
          "receiverVersion": "The version of the OAppReceiver.sol implementation.",
          "senderVersion": "The version of the OAppSender.sol implementation."
        }
      },
      "owner()": {
        "details": "Returns the address of the current owner."
      },
      "renounceOwnership()": {
        "details": "Leaves the contract without owner. It will not be possible to call `onlyOwner` functions. Can only be called by the current owner. NOTE: Renouncing ownership will leave the contract without an owner, thereby disabling any functionality that is only available to the owner."
      },
      "setDelegate(address)": {
        "details": "Only the owner/admin of the OApp can call this function.Provides the ability for a delegate to set configs, on behalf of the OApp, directly on the Endpoint contract.",
        "params": {
          "_delegate": "The address of the delegate to be set."
        }
      },
      "setEnforcedOptions((uint32,uint16,bytes)[])": {
        "details": "Sets the enforced options for specific endpoint and message type combinations.Only the owner/admin of the OApp can call this function.Provides a way for the OApp to enforce things like paying for PreCrime, AND/OR minimum dst lzReceive gas amounts etc.These enforced options can vary as the potential options/execution on the remote may differ as per the msgType. eg. Amount of lzReceive() gas necessary to deliver a lzCompose() message adds overhead you dont want to pay if you are only making a standard LayerZero message ie. lzReceive() WITHOUT sendCompose().",
        "params": {
          "_enforcedOptions": "An array of EnforcedOptionParam structures specifying enforced options."
        }
      },
      "setPeer(uint32,bytes32)": {
        "details": "Only the owner/admin of the OApp can call this function.Indicates that the peer is trusted to send LayerZero messages to this OApp.Set this to bytes32(0) to remove the peer address.Peer is a bytes32 to accommodate non-evm chains.",
        "params": {
          "_eid": "The endpoint ID.",
          "_peer": "The address of the peer to be associated with the corresponding endpoint."
        }
      },
      "transferOwnership(address)": {
        "details": "Transfers ownership of the contract to a new account (`newOwner`). Can only be called by the current owner."
      }
    },
    "version": 1
  },
  "userdoc": {
    "kind": "user",
    "methods": {
      "allowInitializePath((uint32,bytes32,uint64))": {
        "notice": "Checks if the path initialization is allowed based on the provided origin."
      },
      "combineOptions(uint32,uint16,bytes)": {
        "notice": "Combines options for a given endpoint and message type."
      },
      "endpoint()": {
        "notice": "Retrieves the LayerZero endpoint associated with the OApp."
      },
      "isComposeMsgSender((uint32,bytes32,uint64),bytes,address)": {
        "notice": "Indicates whether an address is an approved composeMsg sender to the Endpoint."
      },
      "nextNonce(uint32,bytes32)": {
        "notice": "Retrieves the next nonce for a given source endpoint and sender address."
      },
      "oAppVersion()": {
        "notice": "Retrieves the OApp version information."
      },
      "peers(uint32)": {
        "notice": "Retrieves the peer (OApp) associated with a corresponding endpoint."
      },
      "sendEVMAction((uint8,uint32,address,address,bytes),bytes,(uint256,uint256),address)": {
        "notice": "Sends an EVM action"
      },
      "sendRawBytesAction(bytes,bytes,(uint256,uint256),address)": {
        "notice": "Sends a raw bytes action"
      },
      "setDelegate(address)": {
        "notice": "Sets the delegate address for the OApp."
      },
      "setPeer(uint32,bytes32)": {
        "notice": "Sets the peer address (OApp instance) for a corresponding endpoint."
      }
    },
    "version": 1
  },
  "storageLayout": {
    "storage": [
      {
        "astId": 1533,
        "contract": "contracts/GovernanceControllerOApp.sol:GovernanceControllerOApp",
        "label": "_owner",
        "offset": 0,
        "slot": "0",
        "type": "t_address"
      },
      {
        "astId": 785,
        "contract": "contracts/GovernanceControllerOApp.sol:GovernanceControllerOApp",
        "label": "peers",
        "offset": 0,
        "slot": "1",
        "type": "t_mapping(t_uint32,t_bytes32)"
      },
      {
        "astId": 1381,
        "contract": "contracts/GovernanceControllerOApp.sol:GovernanceControllerOApp",
        "label": "enforcedOptions",
        "offset": 0,
        "slot": "2",
        "type": "t_mapping(t_uint32,t_mapping(t_uint16,t_bytes_storage))"
      }
    ],
    "types": {
      "t_address": {
        "encoding": "inplace",
        "label": "address",
        "numberOfBytes": "20"
      },
      "t_bytes32": {
        "encoding": "inplace",
        "label": "bytes32",
        "numberOfBytes": "32"
      },
      "t_bytes_storage": {
        "encoding": "bytes",
        "label": "bytes",
        "numberOfBytes": "32"
      },
      "t_mapping(t_uint16,t_bytes_storage)": {
        "encoding": "mapping",
        "key": "t_uint16",
        "label": "mapping(uint16 => bytes)",
        "numberOfBytes": "32",
        "value": "t_bytes_storage"
      },
      "t_mapping(t_uint32,t_bytes32)": {
        "encoding": "mapping",
        "key": "t_uint32",
        "label": "mapping(uint32 => bytes32)",
        "numberOfBytes": "32",
        "value": "t_bytes32"
      },
      "t_mapping(t_uint32,t_mapping(t_uint16,t_bytes_storage))": {
        "encoding": "mapping",
        "key": "t_uint32",
        "label": "mapping(uint32 => mapping(uint16 => bytes))",
        "numberOfBytes": "32",
        "value": "t_mapping(t_uint16,t_bytes_storage)"
      },
      "t_uint16": {
        "encoding": "inplace",
        "label": "uint16",
        "numberOfBytes": "2"
      },
      "t_uint32": {
        "encoding": "inplace",
        "label": "uint32",
        "numberOfBytes": "4"
      }
    }
  }
}