{
  "address": "0x27FC1DD771817b53bE48Dc28789533BEa53C9CCA",
  "abi": [
    {
      "inputs": [
        {
          "internalType": "address",
          "name": "_endpoint",
          "type": "address"
        },
        {
          "internalType": "address",
          "name": "_owner",
          "type": "address"
        }
      ],
      "stateMutability": "nonpayable",
      "type": "constructor"
    },
    {
      "inputs": [],
      "name": "CanCallTargetIdempotent",
      "type": "error"
    },
    {
      "inputs": [],
      "name": "CannotCallTarget",
      "type": "error"
    },
    {
      "inputs": [],
      "name": "InvalidDelegate",
      "type": "error"
    },
    {
      "inputs": [],
      "name": "InvalidEndpointCall",
      "type": "error"
    },
    {
      "inputs": [
        {
          "internalType": "bytes",
          "name": "options",
          "type": "bytes"
        }
      ],
      "name": "InvalidOptions",
      "type": "error"
    },
    {
      "inputs": [],
      "name": "LzTokenUnavailable",
      "type": "error"
    },
    {
      "inputs": [
        {
          "internalType": "uint32",
          "name": "eid",
          "type": "uint32"
        }
      ],
      "name": "NoPeer",
      "type": "error"
    },
    {
      "inputs": [
        {
          "internalType": "uint256",
          "name": "msgValue",
          "type": "uint256"
        }
      ],
      "name": "NotEnoughNative",
      "type": "error"
    },
    {
      "inputs": [
        {
          "internalType": "uint32",
          "name": "eid",
          "type": "uint32"
        },
        {
          "internalType": "bytes32",
          "name": "sender",
          "type": "bytes32"
        }
      ],
      "name": "OnlyPeer",
      "type": "error"
    },
    {
      "inputs": [
        {
          "internalType": "address",
          "name": "owner",
          "type": "address"
        }
      ],
      "name": "OwnableInvalidOwner",
      "type": "error"
    },
    {
      "inputs": [
        {
          "internalType": "address",
          "name": "account",
          "type": "address"
        }
      ],
      "name": "OwnableUnauthorizedAccount",
      "type": "error"
    },
    {
      "inputs": [
        {
          "internalType": "address",
          "name": "token",
          "type": "address"
        }
      ],
      "name": "SafeERC20FailedOperation",
      "type": "error"
    },
    {
      "anonymous": false,
      "inputs": [
        {
          "indexed": true,
          "internalType": "address",
          "name": "sender",
          "type": "address"
        },
        {
          "indexed": true,
          "internalType": "uint32",
          "name": "dstEid",
          "type": "uint32"
        },
        {
          "indexed": true,
          "internalType": "bytes32",
          "name": "dstTarget",
          "type": "bytes32"
        },
        {
          "indexed": false,
          "internalType": "bool",
          "name": "canCall",
          "type": "bool"
        }
      ],
      "name": "CanCallTargetSet",
      "type": "event"
    },
    {
      "anonymous": false,
      "inputs": [
        {
          "components": [
            {
              "internalType": "uint32",
              "name": "eid",
              "type": "uint32"
            },
            {
              "internalType": "uint16",
              "name": "msgType",
              "type": "uint16"
            },
            {
              "internalType": "bytes",
              "name": "options",
              "type": "bytes"
            }
          ],
          "indexed": false,
          "internalType": "struct EnforcedOptionParam[]",
          "name": "_enforcedOptions",
          "type": "tuple[]"
        }
      ],
      "name": "EnforcedOptionSet",
      "type": "event"
    },
    {
      "anonymous": false,
      "inputs": [
        {
          "indexed": true,
          "internalType": "bytes32",
          "name": "guid",
          "type": "bytes32"
        }
      ],
      "name": "GovernanceCallSent",
      "type": "event"
    },
    {
      "anonymous": false,
      "inputs": [
        {
          "indexed": true,
          "internalType": "address",
          "name": "previousOwner",
          "type": "address"
        },
        {
          "indexed": true,
          "internalType": "address",
          "name": "newOwner",
          "type": "address"
        }
      ],
      "name": "OwnershipTransferred",
      "type": "event"
    },
    {
      "anonymous": false,
      "inputs": [
        {
          "indexed": false,
          "internalType": "uint32",
          "name": "eid",
          "type": "uint32"
        },
        {
          "indexed": false,
          "internalType": "bytes32",
          "name": "peer",
          "type": "bytes32"
        }
      ],
      "name": "PeerSet",
      "type": "event"
    },
    {
      "inputs": [],
      "name": "SEND_TX",
      "outputs": [
        {
          "internalType": "uint16",
          "name": "",
          "type": "uint16"
        }
      ],
      "stateMutability": "view",
      "type": "function"
    },
    {
      "inputs": [
        {
          "internalType": "address",
          "name": "srcSender",
          "type": "address"
        },
        {
          "internalType": "uint32",
          "name": "dstEid",
          "type": "uint32"
        },
        {
          "internalType": "bytes32",
          "name": "dstTarget",
          "type": "bytes32"
        }
      ],
      "name": "canCallTarget",
      "outputs": [
        {
          "internalType": "bool",
          "name": "canCall",
          "type": "bool"
        }
      ],
      "stateMutability": "view",
      "type": "function"
    },
    {
      "inputs": [
        {
          "internalType": "uint32",
          "name": "_eid",
          "type": "uint32"
        },
        {
          "internalType": "uint16",
          "name": "_msgType",
          "type": "uint16"
        },
        {
          "internalType": "bytes",
          "name": "_extraOptions",
          "type": "bytes"
        }
      ],
      "name": "combineOptions",
      "outputs": [
        {
          "internalType": "bytes",
          "name": "",
          "type": "bytes"
        }
      ],
      "stateMutability": "view",
      "type": "function"
    },
    {
      "inputs": [],
      "name": "endpoint",
      "outputs": [
        {
          "internalType": "contract ILayerZeroEndpointV2",
          "name": "",
          "type": "address"
        }
      ],
      "stateMutability": "view",
      "type": "function"
    },
    {
      "inputs": [
        {
          "internalType": "uint32",
          "name": "eid",
          "type": "uint32"
        },
        {
          "internalType": "uint16",
          "name": "msgType",
          "type": "uint16"
        }
      ],
      "name": "enforcedOptions",
      "outputs": [
        {
          "internalType": "bytes",
          "name": "enforcedOption",
          "type": "bytes"
        }
      ],
      "stateMutability": "view",
      "type": "function"
    },
    {
      "inputs": [],
      "name": "oAppVersion",
      "outputs": [
        {
          "internalType": "uint64",
          "name": "senderVersion",
          "type": "uint64"
        },
        {
          "internalType": "uint64",
          "name": "receiverVersion",
          "type": "uint64"
        }
      ],
      "stateMutability": "view",
      "type": "function"
    },
    {
      "inputs": [],
      "name": "owner",
      "outputs": [
        {
          "internalType": "address",
          "name": "",
          "type": "address"
        }
      ],
      "stateMutability": "view",
      "type": "function"
    },
    {
      "inputs": [
        {
          "internalType": "uint32",
          "name": "eid",
          "type": "uint32"
        }
      ],
      "name": "peers",
      "outputs": [
        {
          "internalType": "bytes32",
          "name": "peer",
          "type": "bytes32"
        }
      ],
      "stateMutability": "view",
      "type": "function"
    },
    {
      "inputs": [
        {
          "components": [
            {
              "internalType": "uint32",
              "name": "dstEid",
              "type": "uint32"
            },
            {
              "internalType": "bytes32",
              "name": "dstTarget",
              "type": "bytes32"
            },
            {
              "internalType": "bytes",
              "name": "dstCallData",
              "type": "bytes"
            },
            {
              "internalType": "bytes",
              "name": "extraOptions",
              "type": "bytes"
            }
          ],
          "internalType": "struct TxParams",
          "name": "_params",
          "type": "tuple"
        },
        {
          "internalType": "bool",
          "name": "_payInLzToken",
          "type": "bool"
        }
      ],
      "name": "quoteTx",
      "outputs": [
        {
          "components": [
            {
              "internalType": "uint256",
              "name": "nativeFee",
              "type": "uint256"
            },
            {
              "internalType": "uint256",
              "name": "lzTokenFee",
              "type": "uint256"
            }
          ],
          "internalType": "struct MessagingFee",
          "name": "fee",
          "type": "tuple"
        }
      ],
      "stateMutability": "view",
      "type": "function"
    },
    {
      "inputs": [],
      "name": "renounceOwnership",
      "outputs": [],
      "stateMutability": "nonpayable",
      "type": "function"
    },
    {
      "inputs": [
        {
          "components": [
            {
              "internalType": "uint32",
              "name": "dstEid",
              "type": "uint32"
            },
            {
              "internalType": "bytes32",
              "name": "dstTarget",
              "type": "bytes32"
            },
            {
              "internalType": "bytes",
              "name": "dstCallData",
              "type": "bytes"
            },
            {
              "internalType": "bytes",
              "name": "extraOptions",
              "type": "bytes"
            }
          ],
          "internalType": "struct TxParams",
          "name": "_params",
          "type": "tuple"
        },
        {
          "components": [
            {
              "internalType": "uint256",
              "name": "nativeFee",
              "type": "uint256"
            },
            {
              "internalType": "uint256",
              "name": "lzTokenFee",
              "type": "uint256"
            }
          ],
          "internalType": "struct MessagingFee",
          "name": "_fee",
          "type": "tuple"
        },
        {
          "internalType": "address",
          "name": "_refundAddress",
          "type": "address"
        }
      ],
      "name": "sendTx",
      "outputs": [
        {
          "components": [
            {
              "internalType": "bytes32",
              "name": "guid",
              "type": "bytes32"
            },
            {
              "internalType": "uint64",
              "name": "nonce",
              "type": "uint64"
            },
            {
              "components": [
                {
                  "internalType": "uint256",
                  "name": "nativeFee",
                  "type": "uint256"
                },
                {
                  "internalType": "uint256",
                  "name": "lzTokenFee",
                  "type": "uint256"
                }
              ],
              "internalType": "struct MessagingFee",
              "name": "fee",
              "type": "tuple"
            }
          ],
          "internalType": "struct MessagingReceipt",
          "name": "msgReceipt",
          "type": "tuple"
        }
      ],
      "stateMutability": "payable",
      "type": "function"
    },
    {
      "inputs": [
        {
          "internalType": "address",
          "name": "_srcSender",
          "type": "address"
        },
        {
          "internalType": "uint32",
          "name": "_dstEid",
          "type": "uint32"
        },
        {
          "internalType": "bytes32",
          "name": "_dstTarget",
          "type": "bytes32"
        },
        {
          "internalType": "bool",
          "name": "_canCall",
          "type": "bool"
        }
      ],
      "name": "setCanCallTarget",
      "outputs": [],
      "stateMutability": "nonpayable",
      "type": "function"
    },
    {
      "inputs": [
        {
          "internalType": "address",
          "name": "_delegate",
          "type": "address"
        }
      ],
      "name": "setDelegate",
      "outputs": [],
      "stateMutability": "nonpayable",
      "type": "function"
    },
    {
      "inputs": [
        {
          "components": [
            {
              "internalType": "uint32",
              "name": "eid",
              "type": "uint32"
            },
            {
              "internalType": "uint16",
              "name": "msgType",
              "type": "uint16"
            },
            {
              "internalType": "bytes",
              "name": "options",
              "type": "bytes"
            }
          ],
          "internalType": "struct EnforcedOptionParam[]",
          "name": "_enforcedOptions",
          "type": "tuple[]"
        }
      ],
      "name": "setEnforcedOptions",
      "outputs": [],
      "stateMutability": "nonpayable",
      "type": "function"
    },
    {
      "inputs": [
        {
          "internalType": "uint32",
          "name": "_eid",
          "type": "uint32"
        },
        {
          "internalType": "bytes32",
          "name": "_peer",
          "type": "bytes32"
        }
      ],
      "name": "setPeer",
      "outputs": [],
      "stateMutability": "nonpayable",
      "type": "function"
    },
    {
      "inputs": [
        {
          "internalType": "address",
          "name": "newOwner",
          "type": "address"
        }
      ],
      "name": "transferOwnership",
      "outputs": [],
      "stateMutability": "nonpayable",
      "type": "function"
    }
  ],
  "transactionHash": "0xba25a2b4464d3169fee18b836bdb06de48ec0f641314e7c4ca64464d8b12d1bf",
  "args": [
    "0x1a44076050125825900e736c501f859c50fE728c",
    "0x12E85B7a985283bbFf212A059e2D226397b78F95"
  ],
  "numDeployments": 1,
  "solcInputHash": "bf8051b1d3e046d67b80f2e265a074ab",
  "bytecode": "0x60a06040523480156200001157600080fd5b5060405162001bd538038062001bd5833981016040819052620000349162000178565b8181806001600160a01b0381166200006657604051631e4fbdf760e01b81526000600482015260240160405180910390fd5b62000071816200010b565b506001600160a01b038083166080528116620000a057604051632d618d8160e21b815260040160405180910390fd5b60805160405163ca5eb5e160e01b81526001600160a01b0383811660048301529091169063ca5eb5e190602401600060405180830381600087803b158015620000e857600080fd5b505af1158015620000fd573d6000803e3d6000fd5b5050505050505050620001b0565b600080546001600160a01b038381166001600160a01b0319831681178455604051919092169283917f8be0079c531659141344cd1fd0a4f28419497f9722a3daafe3b4186f6b6457e09190a35050565b80516001600160a01b03811681146200017357600080fd5b919050565b600080604083850312156200018c57600080fd5b62000197836200015b565b9150620001a7602084016200015b565b90509250929050565b6080516119e6620001ef600039600081816102190152818161081301528181610a6901528181610c9501528181610d8c0152610e4501526119e66000f3fe6080604052600436106100f35760003560e01c80638da5cb5b1161008a578063bc70b35411610059578063bc70b35414610301578063ca5eb5e114610321578063ec06b1b314610341578063f2fde38b1461036e57600080fd5b80638da5cb5b1461026857806395312b5714610286578063b98bd070146102a6578063bb0b6a53146102c657600080fd5b806336539ddd116100c657806336539ddd146101ba5780635535d461146101da5780635e280f1114610207578063715018a61461025357600080fd5b8063055bb79d146100f857806315ee41571461012557806317442b70146101765780633400288b14610198575b600080fd5b34801561010457600080fd5b5061010d600181565b60405161ffff90911681526020015b60405180910390f35b34801561013157600080fd5b50610166610140366004610fec565b600360209081526000938452604080852082529284528284209052825290205460ff1681565b604051901515815260200161011c565b34801561018257600080fd5b506040805160018152600060208201520161011c565b3480156101a457600080fd5b506101b86101b336600461102a565b61038e565b005b3480156101c657600080fd5b506101b86101d5366004611064565b6103a4565b3480156101e657600080fd5b506101fa6101f53660046110c5565b610482565b60405161011c9190611148565b34801561021357600080fd5b5061023b7f000000000000000000000000000000000000000000000000000000000000000081565b6040516001600160a01b03909116815260200161011c565b34801561025f57600080fd5b506101b8610527565b34801561027457600080fd5b506000546001600160a01b031661023b565b61029961029436600461117a565b61053b565b60405161011c91906111e7565b3480156102b257600080fd5b506101b86102c1366004611229565b610619565b3480156102d257600080fd5b506102f36102e136600461129d565b60016020526000908152604090205481565b60405190815260200161011c565b34801561030d57600080fd5b506101fa61031c3660046112b8565b610633565b34801561032d57600080fd5b506101b861033c366004611345565b6107ec565b34801561034d57600080fd5b5061036161035c366004611362565b610872565b60405161011c91906113a6565b34801561037a57600080fd5b506101b8610389366004611345565b6108ba565b6103966108f8565b6103a08282610925565b5050565b6103ac6108f8565b6001600160a01b038416600090815260036020908152604080832063ffffffff87168452825280832085845290915290205481151560ff90911615150361040657604051635ad3a02760e01b815260040160405180910390fd5b6001600160a01b038416600081815260036020908152604080832063ffffffff8816808552908352818420878552835292819020805460ff191686151590811790915590519081528593917f748c17f22f2c6461a208f073b5f7cbc2fb2a59248c3660d3cdc0fbcc640b4b0f910160405180910390a450505050565b6002602090815260009283526040808420909152908252902080546104a6906113bd565b80601f01602080910402602001604051908101604052809291908181526020018280546104d2906113bd565b801561051f5780601f106104f45761010080835404028352916020019161051f565b820191906000526020600020905b81548152906001019060200180831161050257829003601f168201915b505050505081565b61052f6108f8565b610539600061097a565b565b610543610f77565b336000908152600360209081526040822091906105629087018761129d565b63ffffffff1681526020808201929092526040908101600090812087840135825290925290205460ff166105a95760405163371f0e6760e01b815260040160405180910390fd5b6000806105b5866109ca565b90925090506105e16105ca602088018861129d565b83836105db368a90038a018a611481565b88610a36565b8051604051919450907f9b672fe49fac7b3a55461ef171ff35f7206fdf570db242de2f810b9e4412a24d90600090a250509392505050565b6106216108f8565b6103a061062e82846114b3565b610b41565b63ffffffff8416600090815260026020908152604080832061ffff87168452909152812080546060929190610667906113bd565b80601f0160208091040260200160405190810160405280929190818152602001828054610693906113bd565b80156106e05780601f106106b5576101008083540402835291602001916106e0565b820191906000526020600020905b8154815290600101906020018083116106c357829003601f168201915b5050505050905080516000036107305783838080601f0160208091040260200160405190810160405280939291908181526020018383808284376000920191909152509294506107e49350505050565b60008390036107405790506107e4565b600283106107be5761078784848080601f016020809104026020016040519081016040528093929190818152602001838380828437600092019190915250610c5392505050565b8061079584600281886115d8565b6040516020016107a793929190611602565b6040516020818303038152906040529150506107e4565b8383604051639a6d49cd60e01b81526004016107db92919061162a565b60405180910390fd5b949350505050565b6107f46108f8565b60405163ca5eb5e160e01b81526001600160a01b0382811660048301527f0000000000000000000000000000000000000000000000000000000000000000169063ca5eb5e190602401600060405180830381600087803b15801561085757600080fd5b505af115801561086b573d6000803e3d6000fd5b5050505050565b6040805180820190915260008082526020820152600080610892856109ca565b90925090506108af6108a7602087018761129d565b838387610c7f565b925050505b92915050565b6108c26108f8565b6001600160a01b0381166108ec57604051631e4fbdf760e01b8152600060048201526024016107db565b6108f58161097a565b50565b6000546001600160a01b031633146105395760405163118cdaa760e01b81523360048201526024016107db565b63ffffffff8216600081815260016020908152604091829020849055815192835282018390527f238399d427b947898edb290f5ff0f9109849b1c3ba196a42e35f00c50a54b98b910160405180910390a15050565b600080546001600160a01b038381166001600160a01b0319831681178455604051919092169283917f8be0079c531659141344cd1fd0a4f28419497f9722a3daafe3b4186f6b6457e09190a35050565b6060803360008160208601356109e36040880188611659565b6040516020016109f694939291906116a6565b60408051601f1981840301815291905290506000610a29610a1a602088018861129d565b600161031c60608a018a611659565b9196919550909350505050565b610a3e610f77565b6000610a4d8460000151610d60565b602085015190915015610a6757610a678460200151610d88565b7f00000000000000000000000000000000000000000000000000000000000000006001600160a01b0316632637a450826040518060a001604052808b63ffffffff168152602001610ab78c610e6a565b81526020018a815260200189815260200160008960200151111515815250866040518463ffffffff1660e01b8152600401610af39291906116c7565b60806040518083038185885af1158015610b11573d6000803e3d6000fd5b50505050506040513d601f19601f82011682018060405250810190610b369190611770565b979650505050505050565b60005b8151811015610c1857610b73828281518110610b6257610b626117c6565b602002602001015160400151610c53565b818181518110610b8557610b856117c6565b60200260200101516040015160026000848481518110610ba757610ba76117c6565b60200260200101516000015163ffffffff1663ffffffff1681526020019081526020016000206000848481518110610be157610be16117c6565b60200260200101516020015161ffff1661ffff1681526020019081526020016000209081610c0f919061182d565b50600101610b44565b507fbe4864a8e820971c0247f5992e2da559595f7bf076a21cb5928d443d2a13b67481604051610c4891906118ec565b60405180910390a150565b600281015161ffff81166003146103a05781604051639a6d49cd60e01b81526004016107db9190611148565b60408051808201909152600080825260208201527f00000000000000000000000000000000000000000000000000000000000000006001600160a01b031663ddc28c586040518060a001604052808863ffffffff168152602001610ce289610e6a565b8152602001878152602001868152602001851515815250306040518363ffffffff1660e01b8152600401610d179291906116c7565b6040805180830381865afa158015610d33573d6000803e3d6000fd5b505050506040513d601f19601f82011682018060405250810190610d579190611977565b95945050505050565b6000813414610d84576040516304fb820960e51b81523460048201526024016107db565b5090565b60007f00000000000000000000000000000000000000000000000000000000000000006001600160a01b031663e4fe1d946040518163ffffffff1660e01b8152600401602060405180830381865afa158015610de8573d6000803e3d6000fd5b505050506040513d601f19601f82011682018060405250810190610e0c9190611993565b90506001600160a01b038116610e35576040516329b99a9560e11b815260040160405180910390fd5b6103a06001600160a01b038216337f000000000000000000000000000000000000000000000000000000000000000085610ea6565b63ffffffff8116600090815260016020526040812054806108b45760405163f6ff4fb760e01b815263ffffffff841660048201526024016107db565b604080516001600160a01b0385811660248301528416604482015260648082018490528251808303909101815260849091019091526020810180516001600160e01b03166323b872dd60e01b179052610f00908590610f06565b50505050565b600080602060008451602086016000885af180610f29576040513d6000823e3d81fd5b50506000513d91508115610f41578060011415610f4e565b6001600160a01b0384163b155b15610f0057604051635274afe760e01b81526001600160a01b03851660048201526024016107db565b60405180606001604052806000801916815260200160006001600160401b03168152602001610fb9604051806040016040528060008152602001600081525090565b905290565b6001600160a01b03811681146108f557600080fd5b803563ffffffff81168114610fe757600080fd5b919050565b60008060006060848603121561100157600080fd5b833561100c81610fbe565b925061101a60208501610fd3565b9150604084013590509250925092565b6000806040838503121561103d57600080fd5b61104683610fd3565b946020939093013593505050565b80358015158114610fe757600080fd5b6000806000806080858703121561107a57600080fd5b843561108581610fbe565b935061109360208601610fd3565b9250604085013591506110a860608601611054565b905092959194509250565b803561ffff81168114610fe757600080fd5b600080604083850312156110d857600080fd5b6110e183610fd3565b91506110ef602084016110b3565b90509250929050565b60005b838110156111135781810151838201526020016110fb565b50506000910152565b600081518084526111348160208601602086016110f8565b601f01601f19169290920160200192915050565b60208152600061115b602083018461111c565b9392505050565b60006080828403121561117457600080fd5b50919050565b6000806000838503608081121561119057600080fd5b84356001600160401b038111156111a657600080fd5b6111b287828801611162565b9450506040601f19820112156111c757600080fd5b5060208401915060608401356111dc81610fbe565b809150509250925092565b6000608082019050825182526001600160401b0360208401511660208301526040830151611222604084018280518252602090810151910152565b5092915050565b6000806020838503121561123c57600080fd5b82356001600160401b038082111561125357600080fd5b818501915085601f83011261126757600080fd5b81358181111561127657600080fd5b8660208260051b850101111561128b57600080fd5b60209290920196919550909350505050565b6000602082840312156112af57600080fd5b61115b82610fd3565b600080600080606085870312156112ce57600080fd5b6112d785610fd3565b93506112e5602086016110b3565b925060408501356001600160401b038082111561130157600080fd5b818701915087601f83011261131557600080fd5b81358181111561132457600080fd5b88602082850101111561133657600080fd5b95989497505060200194505050565b60006020828403121561135757600080fd5b813561115b81610fbe565b6000806040838503121561137557600080fd5b82356001600160401b0381111561138b57600080fd5b61139785828601611162565b9250506110ef60208401611054565b8151815260208083015190820152604081016108b4565b600181811c908216806113d157607f821691505b60208210810361117457634e487b7160e01b600052602260045260246000fd5b634e487b7160e01b600052604160045260246000fd5b604080519081016001600160401b0381118282101715611429576114296113f1565b60405290565b604051606081016001600160401b0381118282101715611429576114296113f1565b604051601f8201601f191681016001600160401b0381118282101715611479576114796113f1565b604052919050565b60006040828403121561149357600080fd5b61149b611407565b82358152602083013560208201528091505092915050565b60006001600160401b03808411156114cd576114cd6113f1565b8360051b60206114de818301611451565b8681529185019181810190368411156114f657600080fd5b865b848110156115cc578035868111156115105760008081fd5b880160603682900312156115245760008081fd5b61152c61142f565b61153582610fd3565b81526115428683016110b3565b868201526040808301358981111561155a5760008081fd5b9290920191601f36818501126115705760008081fd5b83358a811115611582576115826113f1565b611593818301601f19168a01611451565b915080825236898287010111156115aa5760008081fd5b808986018a8401376000908201890152908201528452509183019183016114f8565b50979650505050505050565b600080858511156115e857600080fd5b838611156115f557600080fd5b5050820193919092039150565b600084516116148184602089016110f8565b8201838582376000930192835250909392505050565b60208152816020820152818360408301376000818301604090810191909152601f909201601f19160101919050565b6000808335601e1984360301811261167057600080fd5b8301803591506001600160401b0382111561168a57600080fd5b60200191503681900382131561169f57600080fd5b9250929050565b84815283602082015281836040830137600091016040019081529392505050565b6040815263ffffffff8351166040820152602083015160608201526000604084015160a060808401526116fd60e084018261111c565b90506060850151603f198483030160a085015261171a828261111c565b60809690960151151560c08501525050506001600160a01b039190911660209091015290565b60006040828403121561175257600080fd5b61175a611407565b9050815181526020820151602082015292915050565b60006080828403121561178257600080fd5b61178a61142f565b8251815260208301516001600160401b03811681146117a857600080fd5b60208201526117ba8460408501611740565b60408201529392505050565b634e487b7160e01b600052603260045260246000fd5b601f821115611828576000816000526020600020601f850160051c810160208610156118055750805b601f850160051c820191505b8181101561182457828155600101611811565b5050505b505050565b81516001600160401b03811115611846576118466113f1565b61185a8161185484546113bd565b846117dc565b602080601f83116001811461188f57600084156118775750858301515b600019600386901b1c1916600185901b178555611824565b600085815260208120601f198616915b828110156118be5788860151825594840194600190910190840161189f565b50858210156118dc5787850151600019600388901b60f8161c191681555b5050505050600190811b01905550565b600060208083018184528085518083526040925060408601915060408160051b87010184880160005b8381101561196957888303603f190185528151805163ffffffff1684528781015161ffff168885015286015160608785018190526119558186018361111c565b968901969450505090860190600101611915565b509098975050505050505050565b60006040828403121561198957600080fd5b61115b8383611740565b6000602082840312156119a557600080fd5b815161115b81610fbe56fea2646970667358221220bcdd062a0d8dd27bd3f6382c9f091fcc24040f960fe94bab260769011dd1ae2e64736f6c63430008160033",
  "devdoc": {
    "author": "LayerZero Labs",
    "details": "Cross-chain governance sender contract that handles outbound governance calls",
    "errors": {
      "CanCallTargetIdempotent()": [
        {
          "details": "Thrown when trying to set the same canCallTarget value that's already set"
        }
      ],
      "CannotCallTarget()": [
        {
          "details": "Thrown when a sender attempts to call a target they don't have permission for"
        }
      ],
      "OwnableInvalidOwner(address)": [
        {
          "details": "The owner is not a valid owner account. (eg. `address(0)`)"
        }
      ],
      "OwnableUnauthorizedAccount(address)": [
        {
          "details": "The caller account is not authorized to perform an operation."
        }
      ],
      "SafeERC20FailedOperation(address)": [
        {
          "details": "An operation with an ERC-20 token failed."
        }
      ]
    },
    "events": {
      "CanCallTargetSet(address,uint32,bytes32,bool)": {
        "details": "Emitted when canCallTarget permission is updated",
        "params": {
          "canCall": "Whether the sender can call the target",
          "dstEid": "The destination endpoint ID",
          "dstTarget": "The target contract address (as bytes32)",
          "sender": "The address whose permission is being updated"
        }
      },
      "GovernanceCallSent(bytes32)": {
        "details": "Emitted when a governance call is successfully sent to a remote chain",
        "params": {
          "guid": "The unique identifier for the LayerZero message"
        }
      }
    },
    "kind": "dev",
    "methods": {
      "combineOptions(uint32,uint16,bytes)": {
        "details": "If there is an enforced lzReceive option: - {gasLimit: 200k, msg.value: 1 ether} AND a caller supplies a lzReceive option: {gasLimit: 100k, msg.value: 0.5 ether} - The resulting options will be {gasLimit: 300k, msg.value: 1.5 ether} when the message is executed on the remote lzReceive() function.This presence of duplicated options is handled off-chain in the verifier/executor.",
        "params": {
          "_eid": "The endpoint ID.",
          "_extraOptions": "Additional options passed by the caller.",
          "_msgType": "The OAPP message type."
        },
        "returns": {
          "_0": "options The combination of caller specified options AND enforced options."
        }
      },
      "constructor": {
        "details": "Constructor to initialize the GovernanceOAppSender contract",
        "params": {
          "_endpoint": "The LayerZero endpoint address",
          "_owner": "The delegate and owner address for the OApp"
        }
      },
      "oAppVersion()": {
        "details": "Providing 0 as the default for OAppReceiver version. Indicates that the OAppReceiver is not implemented. ie. this is a SEND only OApp.If the OApp uses both OAppSender and OAppReceiver, then this needs to be override returning the correct versions",
        "returns": {
          "receiverVersion": "The version of the OAppReceiver.sol contract.",
          "senderVersion": "The version of the OAppSender.sol contract."
        }
      },
      "owner()": {
        "details": "Returns the address of the current owner."
      },
      "quoteTx((uint32,bytes32,bytes,bytes),bool)": {
        "details": "Quote the fee for sending a governance transaction",
        "params": {
          "_params": "The transaction parameters",
          "_payInLzToken": "Whether to pay the fee in LayerZero token"
        },
        "returns": {
          "fee": "The messaging fee required for the transaction"
        }
      },
      "renounceOwnership()": {
        "details": "Leaves the contract without owner. It will not be possible to call `onlyOwner` functions. Can only be called by the current owner. NOTE: Renouncing ownership will leave the contract without an owner, thereby disabling any functionality that is only available to the owner."
      },
      "sendTx((uint32,bytes32,bytes,bytes),(uint256,uint256),address)": {
        "details": "Send a governance transaction to a remote chain",
        "params": {
          "_fee": "The messaging fee to pay",
          "_params": "The transaction parameters",
          "_refundAddress": "The address to receive any excess fee refund"
        },
        "returns": {
          "msgReceipt": "The receipt containing the message GUID and other details"
        }
      },
      "setCanCallTarget(address,uint32,bytes32,bool)": {
        "details": "Set permission for a sender to call a specific target on a destination chain",
        "params": {
          "_canCall": "Whether to grant or revoke permission",
          "_dstEid": "The destination endpoint ID",
          "_dstTarget": "The target contract address (as bytes32)",
          "_srcSender": "The address of the sender"
        }
      },
      "setDelegate(address)": {
        "details": "Only the owner/admin of the OApp can call this function.Provides the ability for a delegate to set configs, on behalf of the OApp, directly on the Endpoint contract.",
        "params": {
          "_delegate": "The address of the delegate to be set."
        }
      },
      "setEnforcedOptions((uint32,uint16,bytes)[])": {
        "details": "Sets the enforced options for specific endpoint and message type combinations.Only the owner/admin of the OApp can call this function.Provides a way for the OApp to enforce things like paying for PreCrime, AND/OR minimum dst lzReceive gas amounts etc.These enforced options can vary as the potential options/execution on the remote may differ as per the msgType. eg. Amount of lzReceive() gas necessary to deliver a lzCompose() message adds overhead you dont want to pay if you are only making a standard LayerZero message ie. lzReceive() WITHOUT sendCompose().",
        "params": {
          "_enforcedOptions": "An array of EnforcedOptionParam structures specifying enforced options."
        }
      },
      "setPeer(uint32,bytes32)": {
        "details": "Only the owner/admin of the OApp can call this function.Indicates that the peer is trusted to send LayerZero messages to this OApp.Set this to bytes32(0) to remove the peer address.Peer is a bytes32 to accommodate non-evm chains.",
        "params": {
          "_eid": "The endpoint ID.",
          "_peer": "The address of the peer to be associated with the corresponding endpoint."
        }
      },
      "transferOwnership(address)": {
        "details": "Transfers ownership of the contract to a new account (`newOwner`). Can only be called by the current owner."
      }
    },
    "stateVariables": {
      "SEND_TX": {
        "details": "The message type identifier for sending transactions"
      },
      "canCallTarget": {
        "details": "This mapping is used to determine if a sender is allowed to call a specific target on a given dst EID."
      }
    },
    "title": "GovernanceOAppSender",
    "version": 1
  },
  "userdoc": {
    "kind": "user",
    "methods": {
      "combineOptions(uint32,uint16,bytes)": {
        "notice": "Combines options for a given endpoint and message type."
      },
      "endpoint()": {
        "notice": "Retrieves the LayerZero endpoint associated with the OApp."
      },
      "oAppVersion()": {
        "notice": "Retrieves the OApp version information."
      },
      "peers(uint32)": {
        "notice": "Retrieves the peer (OApp) associated with a corresponding endpoint."
      },
      "sendTx((uint32,bytes32,bytes,bytes),(uint256,uint256),address)": {
        "notice": "Requires the caller to have permission via canCallTarget mapping"
      },
      "setCanCallTarget(address,uint32,bytes32,bool)": {
        "notice": "Only callable by the contract owner"
      },
      "setDelegate(address)": {
        "notice": "Sets the delegate address for the OApp."
      },
      "setPeer(uint32,bytes32)": {
        "notice": "Sets the peer address (OApp instance) for a corresponding endpoint."
      }
    },
    "notice": "This contract manages permissions and sends governance transactions to remote chains via LayerZero",
    "version": 1
  },
  "storageLayout": {
    "storage": [
      {
        "astId": 3916,
        "contract": "contracts/GovernanceOAppSender.sol:GovernanceOAppSender",
        "label": "_owner",
        "offset": 0,
        "slot": "0",
        "type": "t_address"
      },
      {
        "astId": 1390,
        "contract": "contracts/GovernanceOAppSender.sol:GovernanceOAppSender",
        "label": "peers",
        "offset": 0,
        "slot": "1",
        "type": "t_mapping(t_uint32,t_bytes32)"
      },
      {
        "astId": 2006,
        "contract": "contracts/GovernanceOAppSender.sol:GovernanceOAppSender",
        "label": "enforcedOptions",
        "offset": 0,
        "slot": "2",
        "type": "t_mapping(t_uint32,t_mapping(t_uint16,t_bytes_storage))"
      },
      {
        "astId": 5124,
        "contract": "contracts/GovernanceOAppSender.sol:GovernanceOAppSender",
        "label": "canCallTarget",
        "offset": 0,
        "slot": "3",
        "type": "t_mapping(t_address,t_mapping(t_uint32,t_mapping(t_bytes32,t_bool)))"
      }
    ],
    "types": {
      "t_address": {
        "encoding": "inplace",
        "label": "address",
        "numberOfBytes": "20"
      },
      "t_bool": {
        "encoding": "inplace",
        "label": "bool",
        "numberOfBytes": "1"
      },
      "t_bytes32": {
        "encoding": "inplace",
        "label": "bytes32",
        "numberOfBytes": "32"
      },
      "t_bytes_storage": {
        "encoding": "bytes",
        "label": "bytes",
        "numberOfBytes": "32"
      },
      "t_mapping(t_address,t_mapping(t_uint32,t_mapping(t_bytes32,t_bool)))": {
        "encoding": "mapping",
        "key": "t_address",
        "label": "mapping(address => mapping(uint32 => mapping(bytes32 => bool)))",
        "numberOfBytes": "32",
        "value": "t_mapping(t_uint32,t_mapping(t_bytes32,t_bool))"
      },
      "t_mapping(t_bytes32,t_bool)": {
        "encoding": "mapping",
        "key": "t_bytes32",
        "label": "mapping(bytes32 => bool)",
        "numberOfBytes": "32",
        "value": "t_bool"
      },
      "t_mapping(t_uint16,t_bytes_storage)": {
        "encoding": "mapping",
        "key": "t_uint16",
        "label": "mapping(uint16 => bytes)",
        "numberOfBytes": "32",
        "value": "t_bytes_storage"
      },
      "t_mapping(t_uint32,t_bytes32)": {
        "encoding": "mapping",
        "key": "t_uint32",
        "label": "mapping(uint32 => bytes32)",
        "numberOfBytes": "32",
        "value": "t_bytes32"
      },
      "t_mapping(t_uint32,t_mapping(t_bytes32,t_bool))": {
        "encoding": "mapping",
        "key": "t_uint32",
        "label": "mapping(uint32 => mapping(bytes32 => bool))",
        "numberOfBytes": "32",
        "value": "t_mapping(t_bytes32,t_bool)"
      },
      "t_mapping(t_uint32,t_mapping(t_uint16,t_bytes_storage))": {
        "encoding": "mapping",
        "key": "t_uint32",
        "label": "mapping(uint32 => mapping(uint16 => bytes))",
        "numberOfBytes": "32",
        "value": "t_mapping(t_uint16,t_bytes_storage)"
      },
      "t_uint16": {
        "encoding": "inplace",
        "label": "uint16",
        "numberOfBytes": "2"
      },
      "t_uint32": {
        "encoding": "inplace",
        "label": "uint32",
        "numberOfBytes": "4"
      }
    }
  }
}